:020000040800F2
:100000004004002045010008810900083F0700085E
:100010007D090008350500083314000800000000C1
:10002000000000000000000000000000850F000834
:100030008D050008000000002D0A00084B11000883
:10004000451400085F0100085F0100085F01000817
:100050005F0100085F0100085F0100085F01000800
:100060005F0100085F0100085F0100085F010008F0
:100070005F0100085F0100085F0100085F010008E0
:100080005F0100085F0100085F0100085F010008D0
:100090005F0100085F0100085F0100085F010008C0
:1000A0005F0100085F0100085F0100085F010008B0
:1000B0005F0100085F0100085F0100085F010008A0
:1000C0005F0100085F0100085F0100085F01000890
:1000D0005F010008AD1100085F0100085F01000822
:1000E0005F0100085F0100085F0100085F01000870
:1000F0005F0100085F0100085F0100085F01000860
:100100005F0100085F0100085F0100085F0100084F
:100110005F0100085F0100085F0100085F0100083F
:100120005F0100085F0100085F0100085F0100082F
:10013000DFF80CD000F0ECF90048004795150008F6
:10014000400400200648804706480047FEE7FEE7D7
:10015000FEE7FEE7FEE7FEE7FEE7FEE7FEE7FEE777
:100160004D110008310100082DE9FE4F804681EA5B
:100170000300C00F0C46009021F0004123F0004521
:10018000B8EB0200A94105D24046214690461C46E4
:100190000B46024623F00040104347D0270DC7F31B
:1001A0000A00C3F30A510290401A019040286BDA0A
:1001B000C3F3130040F4801B0098924620B1002343
:1001C000D2EB030A63EB0B0B01985946C0F14002D6
:1001D000504600F00FF906460D4650465946019A22
:1001E00000F027F910EB08006141002487EA115262
:1001F00084EAE7731A4340D0009A62B3019A012A55
:100200004FEA075215DC001B61EB02014FF0004280
:1002100002EA0752CDE90042001C41F58011324646
:100220002B4600F027F903B0BDE8F08F4046214689
:10023000F9E7001B61EB0201001C41F58013001877
:100240005B412018A2F5001747EB030140EAD57087
:10025000B6196D4111E06D084FEA360645EAC075E2
:100260004FEA0752001B61EB0201001C41F58011AF
:1002700049084FEA30000019514132462B4603B07D
:10028000BDE8F04F00F0E7B80098012240000023DD
:10029000D0EB020263EBE073009821464FEAE07472
:1002A000B8EB000061EB0401E9E783F000435BE792
:1002B00081F0004158E72DE9F04D81EA030404F094
:1002C000004B21F0004514464FF0000A23F0004196
:1002D00050EA050220D054EA01021DD0C5F30A57A6
:1002E0000246C5F31303C1F31300C1F30A5640F4E9
:1002F000801543F48013A7EB0608101BD64608F2BE
:10030000FD3873EB050002D308F1010801E09218F3
:100310005B41B8F1000F03DA00200146BDE8F08D23
:1003200000204FF48011064684460EE0171B73EB45
:10033000050705D3121B63EB050306434CEA010CCA
:1003400049084FEA300092185B4150EA0107EDD1AD
:1003500052EA030012D082EA040083EA050108434E
:1003600005D0101BAB4106D20122002306E000227B
:100370004FF0004302E06FF0010253101AEB060049
:100380004CEB085110EB0A0041EB0B01BDE8F04DBE
:1003900000F061B80EB5C10F80EAE0700844CA07EA
:1003A000002140F233438DE80E000A460B4600F070
:1003B00061F803B000BD70B5C1F30A5201F0004509
:1003C0000024C1F3130140F2FF3341F480119A423B
:1003D00001DA002070BD40F233439A42A2F2334268
:1003E00003DC524200F015F800E090402C43F1D0BD
:1003F000404270BD202A04DB203A00FA02F10020BE
:1004000070479140C2F1200320FA03F31943904052
:100410007047202A04DB203A21FA02F000217047BD
:1004200021FA02F3D040C2F120029140084319465C
:100430007047202A06DBCB17203A41FA02F043EA44
:10044000E07306E041FA02F3D040C2F1200291408D
:1004500008431946704710B5141E73F1000408DAFA
:10046000401C41F1000192185B411A4301D120F078
:10047000010010BD2DE9F04D92469B4611B1B1FA35
:1004800081F202E0B0FA80F220329046FFF7B2FF2C
:1004900004460F4640EA0A0041EA0B0153465A4619
:1004A000084313D0114653EA010019D0C8F14002A5
:1004B0005046FFF7AEFF05460E46504659464246A7
:1004C000FFF798FF084305D0012004E02046394695
:1004D000BDE8F08D0020054346EAE0762C43374323
:1004E0000A986305E40AA0EB08000022FD0A44EA2A
:1004F00047540A3002D500200146E9E701051019EA
:100500006941DDE9084500196941BDE8F04DA2E700
:10051000064C074D06E0E06840F0010394E8070050
:1005200098471034AC42F6D3FFF706FE7C1600085D
:100530009C16000800BFFEE7002904DA4A4211B207
:100540002D22027001E020220270642291FBF2F25F
:100550003032D3B2421C10461370642291FBF2F386
:1005600002FB13110A2291FBF2F23032D3B2421C89
:10057000104613700A2291FBF2F302FB131101F1F2
:100580003002D3B2421C104613707047704701B559
:1005900009E0002000E0401C4CF250318842FAD3C0
:1005A0000099491E009100990029F2D108BD000070
:1005B0000549096821F01001034A116011460968D4
:1005C00001431160704700000020024001460020F6
:1005D000034A106800F038000843106070470000BC
:1005E0000020024008B501213C2000F021FA4FF420
:1005F0000070ADF8000018208DF8030003208DF87E
:1006000002006946074800F00FF84FF48060ADF82B
:10061000000004208DF803006946024800F004F849
:1006200008BD0000000801402DE9F0410246002508
:100630000026002000230024002791F803C00CF0BE
:100640000F0591F803C00CF0100CBCF1000F03D0A3
:1006500091F802C04CEA050591F800C0BCF1000F0A
:1006600031D0146800202BE04FF0010C0CFA00F39D
:10067000B1F800C00CEA03069E4220D183004FF07F
:100680000F0C0CFA03F7BC4305FA03FC4CEA040414
:1006900091F803C0BCF1280F06D14FF0010C0CFA01
:1006A00000FCC2F814C00AE091F803C0BCF1480F86
:1006B00005D14FF0010C0CFA00FCC2F810C0401C30
:1006C0000828D1D31460B1F800C0BCF1FF0F34DDAD
:1006D000546800202EE000F1080C4FF0010808FAE1
:1006E0000CF3B1F800C00CEA03069E4221D183004E
:1006F0004FF00F0C0CFA03F7BC4305FA03FC4CEA6D
:10070000040491F803C0BCF1280F05D100F1080CD6
:1007100008FA0CF8C2F8148091F803C0BCF1480F35
:1007200007D100F1080C4FF0010808FA0CF8C2F8E4
:100730001080401C0828CED35460BDE8F08100BF73
:10074000FEE7000008B54020ADF8000003208DF85A
:10075000020014208DF8030069460848FFF764FF83
:100760008020ADF8000003208DF8020014208DF8E1
:10077000030069460148FFF757FF08BD000C014020
:1007800000B540200A49086000F0D6F880200849EA
:10079000091F086000F0D0F840200549091F0860D3
:1007A00000F0CAF840200249086000F0C5F800BD1A
:1007B000140C014000B50823002280201149086074
:1007C00014E05006020E40200E49091D086000F09A
:1007D000B3F840200B49086000F0AEF8094808382B
:1007E000006800F0800008B142F00102181EA3F179
:1007F0000101CBB2E5D140200249091D0860104635
:1008000000BD0000100C014000B50246082319E0AD
:1008100040201149086000F08FF802F0800020B1FC
:1008200080200D49091F086002E080200A49086005
:100830005006020E00F080F840200749091F0860AA
:1008400000F07AF8181EA3F10101CBB2E0D14020EC
:100850000149086000BD0000140C014000B5802073
:10086000134908604020086000F066F81048083816
:10087000006808B9012000E0002000F0800008B105
:10088000002000BD80200A49091D086000F054F8CE
:1008900007480838006800F0800008B10020F0E741
:1008A00080200349091D086000F046F80120E8E7B0
:1008B000100C014000B540200A49086000F03CF8E7
:1008C00080200849086000F037F840200549091FDA
:1008D000086000F031F880200249091F086000F02C
:1008E0002BF800BD140C014000B5402011490860F0
:1008F00000F022F880200F49091F086000F01CF862
:1009000040200C49091F086000F016F809480C380F
:10091000006800F0800030B140200649086000F017
:100920000BF8002000BD40200249086000F004F8E8
:100930000120F7E7140C0140052001E0411EC8B278
:100940000028FBD1704700B500226B21D02000F0B9
:10095000D9FB07221921D02000F0D4FB06221A214E
:10096000D02000F0CFFB18221B21D02000F0CAFBC2
:1009700001221C21D02000F0C5FB00BD00BFFEE716
:10098000704708B54FF4A06000F046F825208DF8B8
:10099000000001208DF801008DF802008DF80300A1
:1009A000684600F001F808BD70B5002100230F2251
:1009B000C47804B3154C246804F4E064C4F5E0641E
:1009C000210AC1F10403CA40447804FA03F184788F
:1009D0001440214309010E4C0678A155047804F017
:1009E0001F050124AC4005786D11AD0005F1E0252F
:1009F000C5F8004109E0047804F01F050124AC406B
:100A0000044D0678761145F8264070BD0CED00E0E7
:100A100000E400E080E100E002490143024A116085
:100A2000704700000000FA050CED00E07047000080
:100A300029B1064A92690243044B9A6104E0034AD1
:100A400092698243014B9A61704700000010024096
:100A500010B500F037F84FF4803000F0F5F800F0F2
:100A600051F91749087008460078012826D100205E
:100A700000F0DEF8002000F019F94FF4806000F07B
:100A800009F90220FFF7A2FD1020FFF791FD4FF4B6
:100A9000E0114FF4803000F01BF9012000F012F952
:100AA00000BF392000F09EF80028FAD0022000F0A4
:100AB0001DF900BF00F0B4F80828FBD110BD0000FC
:100AC000180000200F48006840F001000D49086040
:100AD000084640680C4908400A49486008460068D2
:100AE0000A490840074908600846006820F4802049
:100AF00008600846406820F4FE0048604FF41F007C
:100B000088607047001002400000FFF8FFFFF6FE0B
:100B100030B500210022002400232D4D6D6805F022
:100B20000C0121B1042905D0082923D105E0294D64
:100B3000056022E0274D05601FE0254D6D6805F436
:100B40007012234D6D6805F48034022505EB924246
:100B50001CB9214D554305600BE01D4D6D6805F432
:100B600000351DB11C4D5543056002E0194D55433C
:100B7000056002E0174D056000BF00BF144D6D68B1
:100B800005F0F0010909154D6B5C0568DD40456015
:100B90000F4D6D6805F4E061090A104D6B5C456806
:100BA000DD4085600A4D6D6805F46051C90A0B4D42
:100BB0006B5C4568DD40C560054D6D6805F44041DE
:100BC000890B074D6B5CC568B5FBF3F5056130BD5E
:100BD0000010024000127A0000093D0000000020D1
:100BE0001000002010B501460022002300204A1109
:100BF000012A02D1094C236806E0022A02D1074CDF
:100C0000236A01E0054C636A01F01F02012494404D
:100C10001C400CB1012000E0002010BD001002407B
:100C20000248406800F00C007047000000100240CD
:100C300001460020034A506820F0F000084350604D
:100C400070470000001002401149096821F480310A
:100C50000F4A11601146096821F480211160B0F536
:100C6000803F03D0B0F5802F0ED106E00849096817
:100C700041F48031064A116007E00549096841F4F2
:100C8000A021034A116000E000BF00BF70470000D0
:100C90000010024001460020034A506820F4E06042
:100CA00008435060704700000010024001460020D9
:100CB000034A506820F4605040EAC1005060704719
:100CC00000100240014908667047000000004242DF
:100CD00002460020044B586820F47C1042EA0103CD
:100CE0001843014B58607047001002400146002035
:100CF000034A506820F0030008435060704700002A
:100D00000010024038B5002000900024002500BFEC
:100D10003120FFF767FF05460098401C00900098BF
:100D2000B0F5A06F01D0002DF2D03120FFF75AFFAF
:100D300008B1012400E00024204638BD2DE9F04729
:100D40004421D02000F0B0F9834908704321D0201D
:100D500000F0AAF98049487008460078497840EACE
:100D6000012000B27D4908800846B0F90000FFF775
:100D700011FB06464FF06632794BFFF79CFA0446AA
:100D8000FFF719FB00B2754908804621D02000F01A
:100D90008BF9714988704521D02000F085F96E49A2
:100DA000C87008468078C97840EA012000B26D49D1
:100DB00008800846B0F90000FFF7ECFA06464FF04D
:100DC0006632674BFFF777FA0446FFF7F4FA00B292
:100DD000644908804821D02000F066F95E49087116
:100DE0004721D02000F060F95B494871084600793E
:100DF000497940EA012000B25B4908800846B0F911
:100E00000000FFF7C7FA06464FF06632544BFFF773
:100E100052FA0446FFF7CFFA00B253490880422144
:100E2000D02000F041F94C4988714121D02000F0D8
:100E30003BF94949C87108468079C97940EA0120DF
:100E400000B24A4908800846B0F9000043F29031E8
:100E50000844FFF79FFA06460022454BFFF72BFA9E
:100E600004460022434BFFF77FF98046FFF7A3FAC1
:100E700000B23E4908803C21D02000F015F93649E7
:100E800008723B21D02000F00FF933494872084620
:100E9000007A497A40EA012000B2374908800846C2
:100EA000B0F90000FFF776FA06464FF066322C4B99
:100EB000FFF701FA0446FFF77EFA00B22E490880D8
:100EC0003E21D02000F0F0F8234988723D21D02047
:100ED00000F0EAF82049C8720846807AC97A40EAE8
:100EE000012000B2254908800846B0F90000FFF74C
:100EF00051FA06464FF06632194BFFF7DCF904460B
:100F0000FFF759FA00B21D4908804021D02000F0B7
:100F1000CBF8114908733F21D02000F0C5F80E49E5
:100F200048730846007B497B40EA012000B214491F
:100F300008800846B0F90000FFF72CFA06464FF08B
:100F40006632074BFFF7B7F90446FFF734FA00B2F1
:100F50000B490880BDE8F087300000201E0000200B
:100F6000666630402000002022000020240000207F
:100F700000807140008041402600002028000020B1
:100F80002A0000207047000070B50546284600F092
:100F90001FF93A2000F01CF9002405E00749085D1C
:100FA00000F016F9601CC4B2042CF7DB202000F01E
:100FB0000FF9202000F00CF970BD00001A0000208D
:100FC00010B500F001F810BD0CB5002001900090A4
:100FD0003348006840F480303149086000BF304831
:100FE000006800F4003000900198401C01900098C7
:100FF00018B90198B0F5A06FF1D12948006800F444
:10100000003010B10120009001E000200090009815
:10101000012843D12348006840F0100021490860AE
:101020000846006820F0030008600846006840F0A9
:10103000020008601A48406819494860084640683C
:1010400048600846406840F4806048600846406850
:1010500020F47C1048600846406840F4E81048607E
:101060000846006840F08070086000BF0C480068C7
:1010700000F000700028F9D00948406820F0030013
:10108000074948600846406840F00200486000BFD9
:101090000348406800F00C000828F9D10CBD00009E
:1010A000001002400020024070B504460D46FFF7D4
:1010B000D5FB08B9002070BD2046FFF7A5FBFFF760
:1010C00013FC30B9FFF7F6FB01200D490870002032
:1010D000F1E72846FFF798FBFFF706FCFFF7BEFB9A
:1010E000611CC8B2FFF790FBFFF7FEFBFFF762FB46
:1010F0000646FFF745FBFFF7DDFB3046DBE7000068
:101100001900002070B506460C461546FFF7A6FBF1
:1011100008B9002070BD3046FFF776FBFFF7E4FB0F
:1011200018B9FFF7C7FB0020F4E72046FFF76CFB78
:10113000FFF7DAFB2846FFF767FBFFF7D5FBFFF762
:10114000B9FB00F00DFA0120E4E7704710B5134831
:10115000006840F0010011490860084640681049E5
:1011600008400E494860084600680E4908400B498F
:1011700008600846006820F480200860084640683F
:1011800020F4FE0048604FF41F008860FFF718FF4E
:101190004FF000600449086010BD000000100240DC
:1011A0000000FFF8FFFFF6FE08ED00E010B540F28A
:1011B0002551064800F079F838B1044800F030F9BC
:1011C000C4B22146014800F030F910BD003801409A
:1011D00010B504462146034800F027F90120FFF727
:1011E000D6F910BD0038014021B1828942F4005285
:1011F000828104E082894DF6FF731A408281704734
:1012000000B585B0012144F20500FFF711FC4FF451
:101210000070ADF8100018208DF8130003208DF831
:10122000120004A91848FFF7FFF94FF48060ADF8E9
:10123000100004208DF8130003208DF8120004A97B
:101240001148FFF7F1F94FF4E13000900020ADF8BC
:101250000400ADF80600ADF80800ADF80C000C2055
:10126000ADF80A006946094800F06EF8FFF789FBFF
:10127000012240F22551054800F041F801210348C0
:10128000FFF7B2FF05B000BD000801400038014083
:1012900002460020B1F5007F00D100BF13880B404B
:1012A0000BB1012000E00020704770B50246002419
:1012B00000230025002040F66A16B14200D100BF8D
:1012C000C1F3421501F01F03012606FA03F3012DB5
:1012D00002D19689334006E0022D02D1168A3340AE
:1012E00001E0968A33400C12012606FA04F41688AF
:1012F000344013B10CB1012000E0002070BDF0B506
:101300000346002400260025002040F66A17B94253
:1013100000D100BF1846C1F3421401F01F06012797
:1013200007FA06F5012C01D10C3004E0022C01D1A2
:10133000103000E014301AB107682F43076002E054
:101340000768AF430760F0BD2DE9F04786B005465A
:101350000E460024A24600BFA1460027B08900B176
:1013600000BF2F462C8A4CF6FF700440F0880443DF
:101370002C82AC894EF6F3100440B08831890843C2
:10138000718908430443AC81AC8A4FF6FF400440A6
:10139000B0890443AC8201A8FFF7BAFB1F4887421B
:1013A00002D1DDF810A001E0DDF80CA0A88900F45E
:1013B000004040B10AEBCA0000EB0A103168490056
:1013C000B0FBF1F807E00AEBCA0000EB0A10316845
:1013D0008900B0FBF1F86420B8FBF0F004012009AB
:1013E000642101FB1089A88900F4004040B132203B
:1013F00000EBC900B0FBF1F000F00700044308E087
:10140000322000EB09106421B0FBF1F000F00F0076
:1014100004432C8106B0BDE8F0870000003801408D
:1014200001468888C0F308007047C1F30802828033
:10143000704700BFFEE700000020014908607047C8
:10144000082C004010B5502000F004F8FFF7F4FF1E
:1014500010BD000000F07F01014A116070470000DC
:10146000002C0040014A024900F013B87115000831
:101470002C00002002E008C8121F08C1002AFAD17F
:1014800070477047002001E001C1121F002AFBD104
:1014900070472DE9F04116460F460446002503E04B
:1014A0003946B047641C6D1C20780028F8D12846C6
:1014B000BDE8F08110B5FFF7A3FE0DA0FFF7D2FF46
:1014C000FFF7C6FA10A0FFF7CDFFFFF78BF813A0C8
:1014D000FFF7C8FFFFF736F916A0FFF7C3FF0A2092
:1014E000FFF755F8FFF72FFA17A0FFF7BBFF10BD66
:1014F000555341525420436F6E666967205375639C
:10150000636565642100000052434320436F6E66AB
:101510006967205375636365656421004750494FCF
:1015200020436F6E66696720537563636565642148
:101530000000000049494320436F6E6669672053ED
:1015400075636365656421004D5055363035302034
:10155000496E6974205375636365656421000000FA
:1015600042F2107000E0401E0028FCD170470000DD
:1015700070B504460D46E1B20548FFF756FF00BFBF
:1015800080210348FFF784FE0028F9D0204670BD73
:1015900000380140FFF78EFF01E000F001F8FCE7A2
:1015A00010B5FFF7CBFB2D48B0F900102C48FEF723
:1015B000C3FF5820FFF7E8FC2A48B0F9001028487C
:1015C000FEF7BAFF5920FFF7DFFC2748B0F90010FB
:1015D0002348FEF7B1FF5A20FFF7D6FC0D20FFF796
:1015E000F7FD0A20FFF7F4FD2048B0F900101C4871
:1015F000FEF7A2FF5420FFF7C7FC0D20FFF7E8FD20
:101600000A20FFF7E5FD1A48B0F900101448FEF76C
:1016100093FF5820FFF7B8FC1648B0F900101048A7
:10162000FEF78AFF5920FFF7AFFC1348B0F900100E
:101630000B48FEF781FF5A20FFF7A6FC0D20FFF7AD
:10164000C7FD0A20FFF7C4FD0D20FFF7C1FD0A20EA
:10165000FFF7BEFD6420FEF79AFF10BD1E000020BC
:101660001A0000202000002022000020240000207A
:1016700026000020280000202A0000209C160008D8
:10168000000000203000000074140008CC16000890
:101690003000002010040000841400080000000046
:1016A00001020304010203040607080902040608F4
:1016B000000000000000000000000000000000002A
:0C16C0000000000000000000000000001E
:0400000508000131BD
:00000001FF
