:020000040800F2
:100000003004002045010008F50B0008D904000861
:10001000F10B0008D5010008F712000800000000ED
:10002000000000000000000000000000510F000868
:10003000D901000800000000A10C00083D100008D4
:100040005F0100085F0100085F0100085F01000810
:100050005F0100085F0100085F010008E701000878
:100060005F0100085F0100085F0100085F010008F0
:100070005F0100085F0100085F0100085F010008E0
:100080005F0100085F0100085F0100085F010008D0
:100090005F0100085F0100085F0100085F010008C0
:1000A0005F0100085F0100085F0100085F010008B0
:1000B0005F0100085F0100085F0100085F010008A0
:1000C0005F0100085F0100085F0100085F01000890
:1000D0005F010008A11000085F0100085F0100082F
:1000E0005F0100085F0100085F0100085F01000870
:1000F0005F0100085F0100085F0100085F01000860
:100100005F0100085F0100085F0100085F0100084F
:100110005F0100085F0100085F0100085F0100083F
:100120005F0100085F0100085F0100085F0100082F
:10013000DFF80CD000F03CF8004800472913000815
:10014000300400200648804706480047FEE7FEE7E7
:10015000FEE7FEE7FEE7FEE7FEE7FEE7FEE7FEE777
:10016000411000083101000840EA01039B0703D059
:1001700009E008C9121F08C0042AFAD203E011F8E6
:10018000013B00F8013B521EF9D27047D2B201E0A8
:1001900000F8012B491EFBD270470022F6E710B58C
:1001A00013460A4604461946FFF7F0FF204610BDE5
:1001B000064C074D06E0E06840F0010394E80700B4
:1001C00098471034AC42F6D3FFF7B6FFF41300089B
:1001D0001414000800BFFEE7704700BF011EA0F125
:1001E0000100FBD1704710B5022000F01FF838B1B4
:1001F00000F058FD022000F005F8022000F008F899
:1002000010BD00000149086070470000140401405F
:100210000149086070470000140401400249096860
:100220000143014A1160704710040140014600205B
:100230000022074B1B6803EA0102054B14331B68BD
:100240000B4013B10AB1012000E00020704700000C
:1002500000040140002123498279002A3AD00A464D
:10026000126803689A430B461A600A1D12680368F5
:100270009A430B1D1A60027911440A6803681A43F5
:100280000A60184A0832126803689A43154B08330B
:100290001A601A1D126803689A43124B0C331A60D5
:1002A0004279102A0ED11A1F126803681A430D4BA7
:1002B00008331A601A1D126803681A43094B0C337D
:1002C0001A600DE00749427911440A6803681A432D
:1002D0000A6005E0027911440A6803689A430A60DB
:1002E000704700000004014030B500228B071C0F4E
:1002F0000F2303FA04F20B4B8C1053F82430934372
:10030000084C8D1044F8253023468C1053F82430C7
:100310008C07240F00FA04F42343024C8D1044F898
:10032000253030BD080001402DE9F041024600258E
:100330000026002000230024002791F803C00CF0C1
:100340000F0591F803C00CF0100CBCF1000F03D0A6
:1003500091F802C04CEA050591F800C0BCF1000F0D
:1003600031D0146800202BE04FF0010C0CFA00F3A0
:10037000B1F800C00CEA03069E4220D183004FF082
:100380000F0C0CFA03F7BC4305FA03FC4CEA040417
:1003900091F803C0BCF1280F06D14FF0010C0CFA04
:1003A00000FCC2F814C00AE091F803C0BCF1480F89
:1003B00005D14FF0010C0CFA00FCC2F810C0401C33
:1003C0000828D1D31460B1F800C0BCF1FF0F34DDB0
:1003D000546800202EE000F1080C4FF0010808FAE4
:1003E0000CF3B1F800C00CEA03069E4221D1830051
:1003F0004FF00F0C0CFA03F7BC4305FA03FC4CEA70
:10040000040491F803C0BCF1280F05D100F1080CD9
:1004100008FA0CF8C2F8148091F803C0BCF1480F38
:1004200007D100F1080C4FF0010808FA0CF8C2F8E7
:100430001080401C0828CED35460BDE8F081000035
:10044000F0B50A46002300240021002500F00046F4
:10045000B6F1004F02D11D4EF16901E01B4E7168EB
:10046000C0F3034583B200F44016B6F5401F08D12F
:1004700021F07061154E766826F07066134F7E602D
:1004800012E000F48016B6F5801F06D1032606FAA6
:1004900005F4A14341F0706106E0460D360103FA10
:1004A00006F6B14341F0706122B1460D360103FA00
:1004B00006F6314300F00046B6F1004F02D1034E7C
:1004C000F16101E0014E7160F0BD000000000140EB
:1004D000416170470161704700BFFEE71FB5012110
:1004E000042000F04DFC0220ADF8000004208DF83F
:1004F000030003208DF8020069461848FFF714FF37
:1005000001210020FFF7F0FE0220029000208DF86C
:100510000C000C208DF80D0001208DF80E0002A8B3
:10052000FFF798FE0220FFF779FE02210C48FFF743
:10053000D1FF0220FFF766FE0220FFF769FE0720C9
:100540008DF8040000208DF805008DF806000120CC
:100550008DF8070001A800F061FB1FBD00100140ED
:100560000008014008B501210C2000F009FC4FF4FF
:10057000E070ADF8000003208DF8020010208DF827
:10058000030069460C48FFF7CFFE0420ADF80000D9
:1005900003208DF8020010208DF8030069460748FB
:1005A000FFF7C2FE04210548FFF794FF80210248AF
:1005B000FFF790FF08BD0000000C0140000801405B
:1005C00010B5FFF7CFFFFFF789FF00F005F800F047
:1005D000E1FA00F0B5FA10BD00B587B0012144F290
:1005E000080000F0BDFB01212748FFF729FF4FF469
:1005F0006040ADF8040003208DF8060018208DF847
:10060000070001A92148FFF78FFE4FF48060ADF885
:10061000040003208DF8060010208DF8070001A9C2
:100620001A48FFF781FE4FF480711848FFF752FF18
:100630000021174800F054FC0020ADF808004FF4EA
:100640008270ADF80A000020ADF80C000220ADF871
:100650000E000020ADF810004FF40070ADF812004D
:100660002820ADF814000020ADF816000720ADF8E2
:10067000180002A9064800F04DFC0121044800F0D2
:100680002FFC07B000BD000000023000000C01404C
:100690000038004030B503460024002500BF08E0C4
:1006A000002503E07820FFF798FD6D1C9D42F9D3EB
:1006B000641C052CF4D330BD0025FFF781FF00201A
:1006C000514908709FE050480078102815D003DC8D
:1006D00048B101286FD104E011286DD03128F9D13B
:1006E00000E000BF8EE001204749087000F0D0FB19
:1006F00010B931204449087084E000F03FF9054604
:10070000072D74D2DFE805F07340597172042000A0
:1007100002203E490860002413E04FF400713C4879
:10072000FFF7D6FE41F28830FFF7B4FF4FF40071B7
:100730003748FFF7CFFE41F28830FFF7ABFF601C70
:10074000C4B2032CE9DB53E03048006802281AD118
:10075000002413E04FF400712D48FFF7B9FE41F279
:100760008830FFF797FF4FF400712948FFF7B2FE7A
:1007700041F28830FFF78EFF601CC4B2032CE9DB26
:1007800001202249086033E020480068022806D191
:1007900001021F48FFF79CFE03201C4908601B480C
:1007A0000068012806D141021948FFF791FE012097
:1007B000164908601CE020E020E014480068022888
:1007C00006D101021248FFF785FE03200F49086099
:1007D0000E480068012806D141020D48FFF77AFE55
:1007E00001200A49086003E001E001E000E000BFE9
:1007F00000BF00200449087004E000BF0020024947
:10080000087000BF00BF5EE716000020280000202F
:10081000000C014070B5B6B0502122A8FFF7BDFC16
:1008200078222A4904A8FFF79FFC284A783207CA91
:1008300001AB07C30126002441E000F08AF808B9A3
:1008400000263EE001A8015DC12000F05BF9002117
:10085000C32000F057F90421082000F053F90120CB
:10086000FFF718FF0021082000F04CF90120FFF7E6
:1008700011FF002512E004EB840004A901EB8000C5
:10088000405D00B90CE004EB840004AA02EB800098
:10089000415D052000F036F9681CC5B2142DEADB75
:1008A00000BF2946B92000F02DF9FF21B22000F049
:1008B00029F90421372000F025F9601CC4B20A2C64
:1008C000BBDB00BF304636B070BD000070130008BF
:1008D00010B54321352000F015F909211C2000F046
:1008E00011F92021BD2000F00DF90121082000F0B0
:1008F00009F90520FFF7CEFE0021082000F002F9DB
:100900000520FFF7C7FE00F024F808B9002010BD4D
:10091000FF21B22000F0F6F80621372000F0F2F8AF
:100920000621372000F0EEF80520FFF7B3FE0B217B
:100930001C2000F0E7F81021292000F0E3F8002146
:10094000BD2000F0DFF80120E1E710B500F01CF851
:1009500010BD70B5002500240BE0B22000F0B2F805
:10096000212801D1012506E00A20FFF793FE601C33
:10097000C4B20A2CF1DB00BF284670BD10B5C520FB
:1009800000F0A0F810BD000010B50820194908704B
:1009900000F032F80021BD2000F0B4F84821172003
:1009A00000F0B0F80520FFF775FE80213C2000F034
:1009B000A9F807213E2000F0A5F8FF21382000F01B
:1009C000A1F807213A2000F09DF80021402000F016
:1009D00099F80821422000F095F80021442000F009
:1009E00091F80821462000F08DF80120FFF752FE13
:1009F00010BD00001400002010B5062000F062F8C1
:100A00003521172000F07EF80520FFF743FE062071
:100A100000F058F80321892000F074F80520FFF752
:100A200039FE4321CF2000F06DF80520FFF732FE9C
:100A30000221CB2000F066F80321112000F062F8BB
:100A40001F480078402810D100211E2000F05AF8DD
:100A50000F21192000F056F818211B2000F052F841
:100A60002C211D2000F04EF80FE000211E2000F088
:100A700049F83F21192000F045F848211B2000F0DB
:100A800041F81F211D2000F03DF80520FFF702FE70
:100A90000421CD2000F036F84C21172000F032F868
:100AA0000120FFF7F7FD0021B92000F02BF84F21BE
:100AB000CF2000F027F8FF216F2000F023F810BDB1
:100AC0001400002070B504464FF480710C48FFF705
:100AD000FFFC4FF480610A48FFF7FAFC052000F0A4
:100AE0002BFC204600F028FC002000F025FC0546E9
:100AF0004FF480710248FFF7EDFC284670BD0000FE
:100B0000000C014070B505460C464FF480710B484F
:100B1000FFF7DEFC4FF480610848FFF7D9FC0420A2
:100B200000F00AFC284600F007FC204600F004FC18
:100B30004FF480710148FFF7CDFC70BD000C0140FF
:100B400010B540211248FFF7C5FC6420FFF7A2FD55
:100B500040210F48FFF7BCFC6420FFF79BFD4021BC
:100B60000B48FFF7B7FC6420FFF794FD4FF480714A
:100B70000748FFF7ADFC6420FFF78CFD4FF4807150
:100B80000348FFF7A7FC6420FFF784FD10BD0000B9
:100B9000000C014008B50121202000F0F1F80420EC
:100BA000ADF8000003208DF8020010208DF803003E
:100BB00069460D48FFF7B8FB4FF48070ADF80000B0
:100BC00003208DF8020010208DF8030069460748C5
:100BD000FFF7AAFB4FF480710448FFF779FC04216A
:100BE0000148FFF775FC08BD0014014000080140F2
:100BF00000BFFEE7704708B54FF4A06000F046F86C
:100C000025208DF8000001208DF801008DF80200EC
:100C10008DF80300684600F001F808BD70B50021AA
:100C200000230F22C47804B3154C246804F4E06454
:100C3000C4F5E064210AC1F10403CA40447804FA0F
:100C400003F184781440214309010E4C0678A15524
:100C5000047804F01F050124AC4005786D11AD0047
:100C600005F1E025C5F8004109E0047804F01F050E
:100C70000124AC40044D0678761145F8264070BD3D
:100C80000CED00E000E400E080E100E002490143F7
:100C9000024A1160704700000000FA050CED00E008
:100CA0007047000010B500242B20FFF70BFF2A49E6
:100CB000087000212920FFF725FF00210220FFF7FF
:100CC00021FF2548007800F01000C8B1B220FFF7DE
:100CD000F9FE212814D1BF20FFF7F4FE35280FD1EB
:100CE000BA20FFF7EFFE0446002C05DD042C03DCE0
:100CF00010201A49087006E011201849087002E017
:100D000011201649087000212B20FFF7FBFE00215F
:100D10001C20FFF7F7FE00212920FFF7F3FE00213A
:100D20000220FFF7EFFE00212B20FFF7EBFE002152
:100D3000BA20FFF7E7FE0021BC20FFF7E3FE012108
:100D40000820FFF7DFFE00210820FFF7DBFE01206F
:100D5000FFF7A0FC10BD00001500002016000020C9
:100D600029B1064AD2690243044BDA6104E0034A1E
:100D7000D2698243014BDA617047000000100240E3
:100D800029B1064A92690243044B9A6104E0034A7E
:100D900092698243014B9A61704700000010024043
:100DA00010B500F04DF9012144F27C00FFF7E8FF97
:100DB00001214804FFF7D4FF10BD000030B5002129
:100DC0000022002400232D4D6D6805F00C0121B197
:100DD000042905D0082923D105E0294D056022E02A
:100DE000274D05601FE0254D6D6805F47012234DF9
:100DF0006D6805F48034022505EB92421CB9214D43
:100E0000554305600BE01D4D6D6805F400351DB1BF
:100E10001C4D5543056002E0194D5543056002E045
:100E2000174D056000BF00BF144D6D6805F0F0015F
:100E30000909154D6B5C0568DD4045600F4D6D6817
:100E400005F4E061090A104D6B5C4568DD40856082
:100E50000A4D6D6805F46051C90A0B4D6B5C45681D
:100E6000DD40C560054D6D6805F44041890B074DB7
:100E70006B5CC568B5FBF3F5056130BD0010024041
:100E800000127A0000093D00000000201000002040
:100E900070B50024002500BF1DE0FFF756FD64205B
:100EA000FFF7F8FBFFF7B6FC28B9FFF749FE322041
:100EB000FFF7F0FB0DE00A20FFF7ECFBFFF708FD62
:100EC00028B9FFF73DFE3220FFF7E4FB01E00125E2
:100ED00003E0601CC4B2052CDFDB00BF284670BDF8
:100EE00021B1028842F04002028004E002884FF6FD
:100EF000BF731A40028070470246002013890B40DE
:100F00000BB1012000E0002070470146888970473E
:100F10008181704710B50022028802F441520B888B
:100F20004C8823438C882343CC8823430C89234358
:100F30004C8923438C892343CC8923431A43028061
:100F4000838B4FF2FF74234083830B8A038210BD8F
:100F5000704710B500F002F810BD00000CB500207D
:100F6000019000903348006840F4803031490860B7
:100F700000BF3048006800F4003000900198401C29
:100F80000190009818B90198B0F5A06FF1D12948E7
:100F9000006800F4003010B10120009001E0002052
:100FA00000900098012843D12348006840F01000C9
:100FB000214908600846006820F0030008600846E0
:100FC000006840F0020008601A484068194948600B
:100FD0000846406848600846406840F480604860C1
:100FE0000846406820F47C1048600846406840F499
:100FF000E81048600846006840F08070086000BF54
:101000000C48006800F000700028F9D009484068DA
:1010100020F00300074948600846406840F002009D
:10102000486000BF0348406800F00C000828F9D170
:101030000CBD00000010024000200240704700007C
:1010400010B51348006840F00100114908600846D7
:101050004068104908400E494860084600680E493B
:1010600008400B4908600846006820F480200860AA
:101070000846406820F4FE0048604FF41F00886076
:10108000FFF767FF4FF000600449086010BD0000E3
:10109000001002400000FFF8FFFFF6FE08ED00E040
:1010A00010B540F22551064800F060F838B1044808
:1010B00000F018F9C4B22146014800F018F910BD3B
:1010C0000038014021B1828942F40052828104E05B
:1010D00082894DF6FF731A408281704700B585B052
:1010E000012144F20500FFF74BFE4FF40070ADF80C
:1010F000100018208DF8130003208DF8120004A9A9
:101100001848FFF711F94FF48060ADF81000042083
:101110008DF8130003208DF8120004A91148FFF781
:1011200003F94FF4E13000900020ADF80400ADF871
:101130000600ADF80800ADF80C000C20ADF80A0070
:101140006946094800F062F8FFF755FD012240F2B8
:101150002551054800F034F801210348FFF7B2FF9C
:1011600005B000BD000801400038014070B50246DE
:10117000002400230025002040F66A16B14200D169
:1011800000BFC1F3421501F01F03012606FA03F365
:10119000012D02D19689334006E0022D02D1168A34
:1011A000334001E0968A33400C12012606FA04F41B
:1011B0001688344013B10CB1012000E0002070BD4E
:1011C000F0B50346002400260025002040F66A17EB
:1011D000B94200D100BF1846C1F3421401F01F0606
:1011E000012707FA06F5012C01D10C3004E0022C8E
:1011F00001D1103000E014301AB107682F430760A6
:1012000002E00768AF430760F0BD00002DE9F0473A
:1012100086B005460E460024A24600BFA146002720
:10122000B08900B100BF2F462C8A4CF6FF700440F5
:10123000F08804432C82AC894EF6F3100440B08849
:1012400031890843718908430443AC81AC8A4FF665
:10125000FF400440B0890443AC8201A8FFF7AEFD13
:101260001F48874202D1DDF810A001E0DDF80CA094
:10127000A88900F4004040B10AEBCA0000EB0A1054
:1012800031684900B0FBF1F807E00AEBCA0000EB57
:101290000A1031688900B0FBF1F86420B8FBF0F067
:1012A00004012009642101FB1089A88900F4004091
:1012B00040B1322000EBC900B0FBF1F000F00700B4
:1012C000044308E0322000EB09106421B0FBF1F088
:1012D00000F00F0004432C8106B0BDE8F087000049
:1012E0000038014001468888C0F308007047C1F308
:1012F00008028280704700BFFEE702E008C8121FA4
:1013000008C1002AFAD170477047002001E001C1EE
:10131000121F002AFBD1704710B5FFF7DFFEFFF761
:101320003FFDFFF74DF910BD10B5FFF7F5FFFFF7D3
:10133000C3F9002010BD000010B5044600BF022113
:101340000A48FFF7D9FD0028F9D021460748FFF7E2
:10135000DFFD00BF01210548FFF7CEFD0028F9D0D1
:101360000248FFF7D2FDC0B210BD000000380040B7
:101370006B61692064656E6700000000000000007A
:10138000000000006775616E2064656E67000000F4
:1013900000000000000000007969206B6F75207963
:1013A000616E207169207368756900007A68692030
:1013B0007A68616E67000000000000000000000015
:1013C0007368612064616E0000000000000000008E
:1013D000000000006875616E2078696E67206D6F8F
:1013E0002073686900000000010203040506000084
:1013F0000000000014140008000000202C00000071
:10140000FA120008401400082C0000200404000018
:101410000A13000800000000010203040102030493
:1014200006070809020406080000000088130000EF
:1014300000000000000000000200000002000000A8
:0400000508000131BD
:00000001FF
