:020000040800F2
:1000000018040020450100084D0100084F010008B8
:1000100051010008530100085501000800000000CC
:100020000000000000000000000000005701000870
:1000300059010008000000005B0100085D01000894
:100040005F0100085F0100085F0100085F01000810
:100050005F0100085F0100085F0100085F01000800
:100060005F0100085F0100085F0100085F010008F0
:100070005F0100085F0100085F0100085F010008E0
:100080005F0100085F0100085F0100085F010008D0
:100090005F0100085F0100085F0100085F010008C0
:1000A0005F0100085F0100085F0100085F010008B0
:1000B0005F0100085F0100085F0100085F010008A0
:1000C0005F0100085F0100085F0100085F01000890
:1000D0005F010008350D00085F0100085F0100089E
:1000E0005F0100085F0100085F0100085F01000870
:1000F0005F0100085F0100085F0100085F01000860
:100100005F0100085F0100085F0100085F0100084F
:100110005F0100085F0100085F0100085F0100083F
:100120005F0100085F0100085F0100085F0100082F
:10013000DFF80CD000F018F800480047890F0008DD
:10014000180400200648804706480047FEE7FEE7FF
:10015000FEE7FEE7FEE7FEE7FEE7FEE7FEE7FEE777
:100160006107000831010008064C074D06E0E06811
:1001700040F0010394E8070098471034AC42F6D3EE
:10018000FFF7DAFF90100008B010000810B500F07B
:10019000FBF900F07DF800F08FFD00F011FB00F09E
:1001A0000FFB00F069FB00F067FB00F003F800F0C4
:1001B0004AF910BD0EB52020ADF8000048208DF89A
:1001C000030003208DF8020069460B4800F0B0F8E8
:1001D0000521022000F08CF82020019000208DF8ED
:1001E00008000C208DF8090001208DF80A0001A8F4
:1001F00000F004F80EBD000000100140002123496A
:100200008279002A3AD00A46126803689A430B465C
:100210001A600A1D126803689A430B1D1A6002795E
:1002200011440A6803681A430A60184A08321268BF
:1002300003689A43154B08331A601A1D1268036845
:100240009A43124B0C331A604279102A0ED11A1FAE
:10025000126803681A430D4B08331A601A1D12689E
:1002600003681A43094B0C331A600DE007494279C1
:1002700011440A6803681A430A6005E002791144D0
:100280000A6803689A430A6070470000000401404E
:1002900008B50F20ADF8000010208DF803000320F2
:1002A0008DF8020069460F4800F042F84FF4707074
:1002B000ADF8000010208DF8030003208DF8020037
:1002C0006946094800F034F82020ADF800001020FD
:1002D0008DF8030003208DF802006946034800F002
:1002E00027F808BD00080140000C01400010014043
:1002F00030B500228B071C0F0F2303FA04F20B4BBF
:100300008C1053F824309343084C8D1044F825305A
:1003100023468C1053F824308C07240F00FA04F481
:100320002343024C8D1044F8253030BD08000140B5
:100330002DE9F0410246002500260020002300247C
:10034000002791F803C00CF00F0591F803C00CF0E2
:10035000100CBCF1000F03D091F802C04CEA050567
:1003600091F800C0BCF1000F31D0146800202BE0E0
:100370004FF0010C0CFA00F3B1F800C00CEA0306D0
:100380009E4220D183004FF00F0C0CFA03F7BC43C0
:1003900005FA03FC4CEA040491F803C0BCF1280FF1
:1003A00006D14FF0010C0CFA00FCC2F814C00AE0B0
:1003B00091F803C0BCF1480F05D14FF0010C0CFAC5
:1003C00000FCC2F810C0401C0828D1D31460B1F85A
:1003D00000C0BCF1FF0F34DD546800202EE000F1B6
:1003E000080C4FF0010808FA0CF3B1F800C00CEA51
:1003F00003069E4221D183004FF00F0C0CFA03F745
:10040000BC4305FA03FC4CEA040491F803C0BCF1B8
:10041000280F05D100F1080C08FA0CF8C2F8148076
:1004200091F803C0BCF1480F07D100F1080C4FF060
:10043000010808FA0CF8C2F81080401C0828CED336
:100440005460BDE8F08108B500214FF0006000F075
:1004500071F84FF4A06000F063F825208DF80000DB
:1004600000208DF801008DF8020001208DF80300B6
:10047000684600F01DF81C208DF8000000208DF863
:1004800001008DF8020001208DF80300684600F09D
:100490000FF817208DF8000000208DF801008DF86E
:1004A000020001208DF80300684600F001F808BD45
:1004B00070B5002100230F22C47804B3154C2468C2
:1004C00004F4E064C4F5E064210AC1F10403CA4005
:1004D000447804FA03F184781440214309010E4C56
:1004E0000678A155047804F01F050124AC40057876
:1004F0006D11AD0005F1E025C5F8004109E0047873
:1005000004F01F050124AC40044D0678761145F82F
:10051000264070BD0CED00E000E400E080E100E06A
:1005200002490143024A1160704700000000FA05C9
:100530000CED00E0024A0A400243024B1A60704789
:1005400080FFFF1F08ED00E029B1064AD26902438F
:10055000044BDA6104E0034AD2698243014BDA6159
:10056000704700000010024029B1064A9269024318
:10057000044B9A6104E0034A92698243014B9A61F9
:10058000704700000010024010B500F0E9F80121AA
:100590000720FFF7D9FF012144F27D00FFF7E4FFB8
:1005A00010BD000030B500210022002400232D4D95
:1005B0006D6805F00C0121B1042905D0082923D16B
:1005C00005E0294D056022E0274D05601FE0254D1F
:1005D0006D6805F47012234D6D6805F480340225B2
:1005E00005EB92421CB9214D554305600BE01D4DB2
:1005F0006D6805F400351DB11C4D5543056002E0E2
:10060000194D5543056002E0174D056000BF00BF5E
:10061000144D6D6805F0F0010909154D6B5C056816
:10062000DD4045600F4D6D6805F4E061090A104D2D
:100630006B5C4568DD4085600A4D6D6805F460516E
:10064000C90A0B4D6B5C4568DD40C560054D6D68A2
:1006500005F44041890B074D6B5CC568B5FBF3F5AC
:10066000056130BD0010024000127A0000093D0013
:10067000040000201400002010B500F001F810BDA7
:100680000CB50020019000903348006840F48030A1
:100690003149086000BF3048006800F40030009025
:1006A0000198401C0190009818B90198B0F5A06F0E
:1006B000F1D12948006800F4003010B10120009009
:1006C00001E0002000900098012843D123480068F1
:1006D00040F01000214908600846006820F003003F
:1006E00008600846006840F0020008601A48406848
:1006F000194948600846406848600846406840F428
:10070000806048600846406820F47C1048600846D5
:10071000406840F4E81048600846006840F0807087
:10072000086000BF0C48006800F000700028F9D095
:100730000948406820F003000749486008464068BF
:1007400040F00200486000BF0348406800F00C0021
:100750000828F9D10CBD0000001002400020024022
:1007600010B51348006840F00100114908600846C0
:100770004068104908400E494860084600680E4924
:1007800008400B4908600846006820F48020086093
:100790000846406820F4FE0048604FF41F0088605F
:1007A000FFF76AFF4FF000600449086010BD0000C9
:1007B000001002400000FFF8FFFFF6FE08ED00E029
:1007C00000B589B00F20ADF8200018208DF8230067
:1007D00003208DF8220008A92648FFF7A9FD632011
:1007E000ADF8080041F61F40ADF804000020ADF858
:1007F0000A00ADF8060001A94FF0804000F00AFAA7
:100800000020ADF816007020ADF810000120ADF802
:1008100012000020ADF8180004A94FF0804000F04D
:100820009DF80821C80600F0E5F804A94FF08040C3
:1008300000F0EAF80821C80600F038F904A94FF0E2
:10084000804000F041F90821C80600F08DF904A9A4
:100850004FF0804000F092F90821C80600F0CCF972
:100860000121880700F062F80121880700F06AF88A
:1008700009B000BD0008014000B589B04FF47070A8
:10088000ADF8200018208DF8230003208DF82200F9
:1008900008A92448FFF74CFD6320ADF8080041F695
:1008A0001F40ADF804000020ADF80A00ADF80600C6
:1008B00001A91D4800F0AEF90020ADF81600702027
:1008C000ADF810000120ADF812000020ADF81800BE
:1008D00004A9154800F042F80821134800F08AF8EE
:1008E00004A9114800F090F808210F4800F0DEF844
:1008F00004A90D4800F0E8F808210B4800F034F98D
:1009000004A9094800F03AF90821074800F074F9F1
:100910000121054800F00AF80121034800F012F80F
:1009200009B000BD000C01400008004021B1028860
:1009300042F08002028004E002884FF67F731A4082
:100940000280704721B1028842F00102028004E077
:1009500002884FF6FE731A400280704770B500247B
:1009600000220023058C4FF6FE7635400584028C6C
:100970008388048B4FF68F752C40B51E2C400D8854
:100980002C43751E2A400D892A434D882A43144D55
:10099000A8420BD0134DA84208D0134DA84205D051
:1009A000124DA84202D0124DA84213D14FF6F7754E
:1009B0002A404D892A434FF6FB752A408D882A43E9
:1009C0004FF6FF652B404FF6FF552B408D892B438B
:1009D000CD892B4383800483CD888586028470BDB6
:1009E000002C01400034014000400140004401401F
:1009F000004801400A460021018B4FF6F773194069
:100A0000114301837047000070B5002400220023C9
:100A1000058C4FF6EF7635400584028C8388048B75
:100A200048F6FF752C404FF6FF452C400D884FF6D9
:100A3000FF7606EA05252C434FF6DF752A400D891F
:100A400006EA05152A434D8806EA05152A43154D81
:100A5000A84202D0144DA8421DD14FF67F752A40FE
:100A60004D894FF6FF7606EA05152A434FF6BF7506
:100A70002A408D8806EA05152A434FF6FF352B409C
:100A80004FF2FF752B408D8906EA85052B43CD89F2
:100A900006EA85052B4383800483CD88058702847D
:100AA00070BD0000002C0140003401400A460021C6
:100AB000018B4FF2FF7319404FF6FF7303EA0223D5
:100AC000194301837047000070B500240022002301
:100AD000058C4FF6FF6635400584028C8388848B35
:100AE0004FF68F752C404FF6FC752C400D882C432B
:100AF0004FF6FF552A400D894FF6FF7606EA052589
:100B00002A434D8806EA05252A43154DA84202D0FE
:100B1000144DA8421DD14FF2FF752A404D894FF662
:100B2000FF7606EA05252A434FF6FF352A408D88D1
:100B300006EA05252A434EF6FF752B404DF6FF7554
:100B40002B408D8906EA05152B43CD8906EA05154C
:100B50002B4383808483CD888587028470BD000009
:100B6000002C0140003401400A460021818B4FF6E1
:100B7000F7731940114381837047000070B500225C
:100B800000230024058C4EF6FF7635400584038C47
:100B90008488828B48F6FF752A404FF6FF452A402D
:100BA0000D884FF6FF7606EA05252A434DF6FF75B8
:100BB0002B400D8906EA05352B434D8806EA05359D
:100BC0002B430B4DA84202D00A4DA84208D14BF648
:100BD000FF752C408D894FF6FF7606EA85152C436C
:100BE00084808283CD88A0F84050038470BD0000CB
:100BF000002C0140003401400A460021818B4FF255
:100C0000FF7319404FF6FF7303EA022319438183F0
:100C100070470000002202881D4B98420ED01D4BE9
:100C200098420BD0B0F1804F08D01B4B984205D0B2
:100C30001A4B984202D01A4B984204D14FF68F7348
:100C40001A404B881A43174B984207D0164B9842CC
:100C500004D04FF6FF431A40CB881A4302808B889A
:100C600083850B8803850A4B98420BD0094B984229
:100C700008D00E4B984205D00D4B984202D00D4B38
:100C8000984201D10B7A03860123838270470000CA
:100C9000002C0140003401400004004000080040E6
:100CA000000C0040001000400014004000400140D3
:100CB000004401400048014000B585B04FF4806019
:100CC000ADF8000004208DF8030069461748FFF7CF
:100CD0002FFB4FF40070ADF8000003208DF80200E8
:100CE00018208DF8030069461048FFF721FB4FF4E8
:100CF000164001900020ADF80800ADF80A00ADF8EC
:100D00000C00ADF810000C20ADF80E0001A9084849
:100D100000F0BAF8012240F22551054800F08EF8A3
:100D20000121034800F047F805B000BD000801406C
:100D30000038014010B540F22551174800F054F832
:100D400040B3154800F00CF9C4B2612C02D1012067
:100D500012490860622C02D1022010490860632CFD
:100D600002D103200D490860642C02D104200B49F4
:100D70000860652C02D105200849086000BF4021A9
:100D8000054800F024F80028F9D02021044800F09C
:100D900009F800BF10BD000000380140000000202D
:100DA0000044004001F40072B2F5007F00D100BFA2
:100DB000CA430280704721B1828942F40052828185
:100DC00004E082894DF6FF731A4082817047024623
:100DD0000020B1F5007F00D100BF13880B400BB19C
:100DE000012000E00020704770B502460024002377
:100DF0000025002040F66A16B14200D100BFC1F3C1
:100E0000421501F01F03012606FA03F3012D02D15A
:100E10009689334006E0022D02D1168A334001E064
:100E2000968A33400C12012606FA04F416883440E0
:100E300013B10CB1012000E0002070BDF0B50346F5
:100E4000002400260025002040F66A17B94200D190
:100E500000BF1846C1F3421401F01F06012707FA2C
:100E600006F5012C01D10C3004E0022C01D1103028
:100E700000E014301AB107682F43076002E00768EA
:100E8000AF430760F0BD00002DE9F04786B005468E
:100E90000E460024A24600BFA1460027B08900B13B
:100EA00000BF2F462C8A4CF6FF700440F0880443A4
:100EB0002C82AC894EF6F3100440B0883189084387
:100EC000718908430443AC81AC8A4FF6FF4004406B
:100ED000B0890443AC8201A8FFF764FB1F48874236
:100EE00002D1DDF810A001E0DDF80CA0A88900F423
:100EF000004040B10AEBCA0000EB0A10316849001B
:100F0000B0FBF1F807E00AEBCA0000EB0A10316809
:100F10008900B0FBF1F86420B8FBF0F0040120096F
:100F2000642101FB1089A88900F4004040B13220FF
:100F300000EBC900B0FBF1F000F00700044308E04B
:100F4000322000EB09106421B0FBF1F000F00F003B
:100F500004432C8106B0BDE8F08700000038014052
:100F600001468888C0F30800704702E008C8121FD5
:100F700008C1002AFAD170477047002001E001C182
:100F8000121F002AFBD17047FFF700F979E03D48B6
:100F90000068012816D100204FF080418886632028
:100FA0000887002088876320374908800020374958
:100FB00008806320091D08800020091D0880632027
:100FC000091D08802F48006802280FD100204FF02B
:100FD00080418886088788872B4908802B490880AC
:100FE000091D0880091D0880091D08802548006822
:100FF000032816D163204FF080418886002008879F
:101000006320888700202049088063201F490880CA
:101010000020091D08806320091D08800020091D8B
:10102000088018480068042813D100204FF0804140
:101030008886632008878887002013490880134921
:1010400008806320091D0880091D08800020091DF3
:1010500008800C480068052813D163204FF08041B8
:101060008886002008878887632007490880074909
:1010700008800020091D0880091D08806320091DC3
:10108000088084E700000020400000403408004051
:10109000B010000800000020180000006A0F0008CF
:1010A000C810000818000020000400007A0F000893
:1010B000000000000000000001020304010203041C
:0810C0000607080902040608F6
:0400000508000131BD
:00000001FF
