:020000040800F2
:1000000028040020450100086303000821030008BC
:100010005F030008010200084B0D0008000000000B
:100020000000000000000000000000008D09000832
:10003000050200080000000045040008790A0008D5
:100040005F0100085F0100085F010008A9070008C0
:100050005F0100085F0100085F0100085F01000800
:100060005F0100085F0100085F0100085F010008F0
:100070005F0100085F0100085F0100085F010008E0
:100080005F0100085F0100085F0100085F010008D0
:100090005F0100085F0100085F0100085F010008C0
:1000A0005F0100085F0100085F0100085F010008B0
:1000B0005F0100085F0100085F0100085F010008A0
:1000C0005F0100085F0100085F0100085F01000890
:1000D0005F010008DD0A00085F0100085F010008F9
:1000E0005F0100085F0100085F0100085F01000870
:1000F0005F0100085F0100085F0100085F01000860
:100100005F0100085F0100085F0100085F0100084F
:100110005F0100085F0100085F0100085F0100083F
:100120005F0100085F0100085F0100085F0100082F
:10013000DFF80CD000F02EF800480047090F000847
:10014000280400200648804706480047FEE7FEE7EF
:10015000FEE7FEE7FEE7FEE7FEE7FEE7FEE7FEE777
:100160007D0A00083101000830B50B460146002029
:100170002022012409E021FA02F59D4205D303FA69
:1001800002F5491B04FA02F52844151EA2F10102EA
:10019000F1DC30BD064C074D06E0E06840F001039D
:1001A00094E8070098471034AC42F6D3FFF7C4FF39
:1001B000880F0008A80F000810B5012000F064F9AE
:1001C000002000F061F910BD08B501460020009044
:1001D000034800900098084400900098008808BDEB
:1001E000006C004008B500220092044A0092009A78
:1001F00002440092009A116008BD0000006C0040AB
:1002000000BFFEE770472DE9F041024600250026B9
:10021000002000230024002791F803C00CF00F05F4
:1002200091F803C00CF0100CBCF1000F03D091F852
:1002300002C04CEA050591F800C0BCF1000F31D0B6
:10024000146800202BE04FF0010C0CFA00F3B1F819
:1002500000C00CEA03069E4220D183004FF00F0C31
:100260000CFA03F7BC4305FA03FC4CEA040491F8CA
:1002700003C0BCF1280F06D14FF0010C0CFA00FCB2
:10028000C2F814C00AE091F803C0BCF1480F05D1D0
:100290004FF0010C0CFA00FCC2F810C0401C0828FA
:1002A000D1D31460B1F800C0BCF1FF0F34DD546845
:1002B00000202EE000F1080C4FF0010808FA0CF3C2
:1002C000B1F800C00CEA03069E4221D183004FF032
:1002D0000F0C0CFA03F7BC4305FA03FC4CEA0404C8
:1002E00091F803C0BCF1280F05D100F1080C08FA01
:1002F0000CF8C2F8148091F803C0BCF1480F07D184
:1003000000F1080C4FF0010808FA0CF8C2F8108050
:10031000401C0828CED35460BDE8F08101617047CD
:1003200000BFFEE70146CA1701EB92729210A1EBE3
:10033000820292B9642091FBF0F200FB121050B9D6
:100340004FF4C87091FBF0F200FB121008B90120C5
:1003500070470020FCE70120FAE70020F8E700BF23
:10036000FEE7704708B54FF4A06000F05BF8252069
:100370008DF8000001208DF801008DF802008DF845
:100380000300684600F016F808BD08B54FF4A060F9
:1003900000F048F803208DF8000000208DF80100DF
:1003A0008DF8020001208DF80300684600F002F885
:1003B00008BD000070B5002100230F22C47804B3EB
:1003C000154C246804F4E064C4F5E064210AC1F12A
:1003D0000403CA40447804FA03F1847814402143AA
:1003E00009010E4C0678A155047804F01F0501247C
:1003F000AC4005786D11AD0005F1E025C5F8004170
:1004000009E0047804F01F050124AC40044D06788F
:10041000761145F8264070BD0CED00E000E400E0E8
:1004200080E100E002490143024A11607047000088
:100430000000FA050CED00E0014908627047000079
:1004400000000E427047000029B1064AD2690243FB
:10045000044BDA6104E0034AD2698243014BDA615A
:10046000704700000010024029B1064A9269024319
:10047000044B9A6104E0034A92698243014B9A61FA
:1004800070470000001002400149086070470000FA
:100490004004424230B500210022002400232D4DAB
:1004A0006D6805F00C0121B1042905D0082923D17C
:1004B00005E0294D056022E0274D05601FE0254D30
:1004C0006D6805F47012234D6D6805F480340225C3
:1004D00005EB92421CB9214D554305600BE01D4DC3
:1004E0006D6805F400351DB11C4D5543056002E0F3
:1004F000194D5543056002E0174D056000BF00BF70
:10050000144D6D6805F0F0010909154D6B5C056827
:10051000DD4045600F4D6D6805F4E061090A104D3E
:100520006B5C4568DD4085600A4D6D6805F460517F
:10053000C90A0B4D6B5C4568DD40C560054D6D68B3
:1005400005F44041890B074D6B5CC568B5FBF3F5BD
:10055000056130BD0010024000127A0000093D0024
:10056000020000201200002010B5014600220023E6
:1005700000204A11012A02D1094C236806E0022A10
:1005800002D1074C236A01E0054C636A01F01F02A7
:10059000012494401C400CB1012000E0002010BD5B
:1005A0000010024000210B4A11700A4A203A82F8DA
:1005B0002010012802D0042808D103E00121054AB7
:1005C000117004E00521034A117000E000BF00BF74
:1005D0007047000020100240014908607047000089
:1005E0003C0442420249096A0143014A11627047D0
:1005F00000100240024909888143014A1180704776
:100600000428004010B501214FF0C050FFF71CFF37
:100610000120FFF711FFFFF7CFFD0120FFF7C2FF19
:1006200000BF4120FFF7A0FF0028FAD04FF48070F0
:10063000FFF7D8FF0120FFF7CFFF00F095F900F09A
:1006400089F947F6FF7000F075F900F083F9012190
:10065000084600F0BDF800F07DF910BD03480088A1
:1006600040F0100001490880704700000428004055
:10067000034800884FF6EF71084001490880704731
:100680000428004070B500260024002500F070F812
:1006900006463348B6FBF0F432480088A0423AD010
:1006A00030490C8040F2B2750EE02846FFF73AFE62
:1006B00030B1B4F5B77F02D3A4F5B77402E006E019
:1006C000A4F26D14681C85B2B4F5B67FEDD800BFF6
:1006D00025488580002516E023498888FFF722FEFB
:1006E00030B1012D04D11D2C01D31D3C09E00CE0DB
:1006F0001E48405DA04203D81C48405D241A00E01B
:1007000003E0681C85B21C2CE6D200BF681C1649A9
:100710008871601CC8711248B6FBF0F100FB1164CF
:100720004FF46160B4FBF0F00F4908704FF4616062
:10073000B4FBF0F100FB11403C21B0FBF1F00A49A1
:1007400048704FF46160B4FBF0F100FB11403C21B4
:10075000B0FBF1F201FB120003498870002070BD6C
:1007600080510100000000201C0000207C0F0008C8
:10077000002103480188001F008841EA00407047BB
:100780001C28004001460020064A12880A40D0B2C8
:10079000044A121F12880A4012B108B1012000E079
:1007A000002070470428004010B50120FFF7EAFF41
:1007B00008B1FFF767FF0220FFF7E4FF10B1022046
:1007C000FFF718FF0520FFF715FF00F0C3F810BD75
:1007D00029B1064A12880243044B1A8004E0034AF6
:1007E00012888243014B1A807047000000280040A5
:1007F0001CB50420FFF7E8FC41F21601884217D02F
:10080000FFF700FF1E20262112231A22CDE9001037
:10081000012140F2E37000F021F84FF400510D483F
:10082000FFF77CFD41F216010420FFF7DBFC0CE032
:1008300000F09AF801210846FFF7CAFF00F08AF895
:100840004FF480410448FFF769FDFFF79EFDFFF775
:1008500019FF1CBD00140140002001402DE9F05F8C
:1008600006460F4690469946DDE90AAB002440F261
:10087000B270864203DB40F63300864202DD01207F
:10088000BDE8F09F40F2B2750AE02846FFF74AFD46
:1008900010B11D48044401E01C480444681C85B2A2
:1008A000B542F2DB781EC7B2002510E01848405D63
:1008B00040F2A321484304EBC0143046FFF732FD59
:1008C00018B1012D01D113480444681C85B2BD4202
:1008D000ECDBA8F1010040F2A321484304EBC01473
:1008E000C9EB4910C0EB092004EB0014CAEB0A1055
:1008F00004EB80045C44204600F00EF800F02AF877
:10090000FFF7C0FE0020BBE70085E2018033E10174
:100910007C0F00088051010000B50246FFF79EFEE3
:10092000100C03490880091D0A80FFF7A1FE00BDD5
:100930001828004000B50246FFF790FEC2F30340BE
:1009400003490880091D0A80FFF792FE00BD0000E0
:100950000828004000BF0348008800F0200000285D
:10096000F9D0704704280040074800884FF6F77117
:1009700008400549088000BF0348008800F00800CF
:100980000028F9D07047000004280040704710B5D7
:1009900000F002F810BD00000CB50020019000909E
:1009A0003348006840F480303149086000BF304867
:1009B000006800F4003000900198401C01900098FD
:1009C00018B90198B0F5A06FF1D12948006800F47A
:1009D000003010B10120009001E00020009000984C
:1009E000012843D12348006840F0100021490860E5
:1009F0000846006820F0030008600846006840F0E0
:100A0000020008601A484068194948600846406872
:100A100048600846406840F4806048600846406886
:100A200020F47C1048600846406840F4E8104860B4
:100A30000846006840F08070086000BF0C480068FD
:100A400000F000700028F9D00948406820F0030049
:100A5000074948600846406840F00200486000BF0F
:100A60000348406800F00C000828F9D10CBD0000D4
:100A700000100240002002407047000010B51348EB
:100A8000006840F0010011490860084640681049BC
:100A900008400E494860084600680E4908400B4966
:100AA00008600846006820F4802008600846406816
:100AB00020F4FE0048604FF41F008860FFF767FFD6
:100AC0004FF000600449086010BD000000100240B3
:100AD0000000FFF8FFFFF6FE08ED00E010B540F261
:100AE0002551064800F06DF838B1044800F024F9AB
:100AF000C4B22146014800F024F910BD003801407D
:100B000021B1828942F40052828104E082894DF64B
:100B1000FF731A408281704700B585B0012144F20D
:100B20000500FFF7A1FC4FF40070ADF8100018208D
:100B30008DF8130003208DF8120004A91848FFF760
:100B400062FB4FF48060ADF8100004208DF81300B4
:100B500003208DF8120004A91148FFF754FB4FF44D
:100B6000E13000900020ADF80400ADF80600ADF8CB
:100B70000800ADF80C000C20ADF80A0069460948E1
:100B800000F06EF8FFF7EEFB012240F22551054818
:100B900000F041F801210348FFF7B2FF05B000BDA6
:100BA000000801400038014002460020B1F5007FF6
:100BB00000D100BF13880B400BB1012000E00020E2
:100BC000704770B50246002400230025002040F63F
:100BD0006A16B14200D100BFC1F3421501F01F03F4
:100BE000012606FA03F3012D02D19689334006E06F
:100BF000022D02D1168A334001E0968A33400C124E
:100C0000012606FA04F41688344013B10CB1012011
:100C100000E0002070BDF0B503460024002600254A
:100C2000002040F66A17B94200D100BF1846C1F350
:100C3000421401F01F06012707FA06F5012C01D125
:100C40000C3004E0022C01D1103000E014301AB155
:100C500007682F43076002E00768AF430760F0BDF5
:100C60002DE9F04786B005460E460024A24600BF97
:100C7000A1460027B08900B100BF2F462C8A4CF650
:100C8000FF700440F08804432C82AC894EF6F310C8
:100C90000440B08831890843718908430443AC811A
:100CA000AC8A4FF6FF400440B0890443AC8201A8EF
:100CB000FFF7F0FB1F48874202D1DDF810A001E0EA
:100CC000DDF80CA0A88900F4004040B10AEBCA008E
:100CD00000EB0A1031684900B0FBF1F807E00AEBBD
:100CE000CA0000EB0A1031688900B0FBF1F86420FB
:100CF000B8FBF0F004012009642101FB1089A889E8
:100D000000F4004040B1322000EBC900B0FBF1F02C
:100D100000F00700044308E0322000EB09106421D2
:100D2000B0FBF1F000F00F0004432C8106B0BDE8E9
:100D3000F08700000038014001468888C0F30800B1
:100D40007047C1F308028280704700BFFEE70000D1
:100D50000FB4054B10B503A9044A029800F018F827
:100D600010BC5DF814FB0000E50E00081800002020
:100D700002E008C8121F08C1002AFAD17047704764
:100D8000002001E001C1121F002AFBD170470000C2
:100D90002DE9FF4F89B09B460446002506E0252833
:100DA0000BD05A460B999047641C6D1C2078002884
:100DB000F5D10DB02846BDE8F08F0027B8460122D6
:100DC000474900E0074314F8013F203B02FA03F0D3
:100DD0000842F7D120782E2819D114F8010F47F0D6
:100DE00004072A280ED06FF02F022078A0F13001DE
:100DF00009290CD808EB880102EB410100EB01083E
:100E0000641CF2E70A98641C50F8048B0A9020785E
:100E10000028CED0642808D0692806D075281ED0B6
:100E20005A460B9990476D1C58E00A994FF00A09F1
:100E300001C90A91002802DA40422D2102E0390559
:100E400004D52B218DF82010012103E0F90704D0EF
:100E50002021F7E78A4608AE0DE00021FAE70A995B
:100E60004FF00A0901C90A91F7E74946FFF77CF9F3
:100E7000303106F8011D0028F7D1ADEB060000F176
:100E80002009780701D44FF00108C84502DDA8EB1E
:100E9000090000E000208046002706E008A85A4626
:100EA000C05D0B9990476D1C7F1C5745F6DB04E035
:100EB00030205A460B9990476D1CB8F10001A8F1FB
:100EC0000108F5DC05E016F8010B5A460B9990472E
:100ED0006D1CB9F10001A9F10109F4DC641C65E79E
:100EE0000928010070B504460D46E1B20548FFF738
:100EF00028FF00BF80210348FFF756FE0028F9D0E5
:100F0000204670BD003801400EB50024FFF704FEF6
:100F1000FFF76EFC14E00B488078A04210D009481F
:100F20008478807807494978064A1278CDE900210B
:100F300002900448C3798279818803A0FFF708FFF3
:100F4000E9E700001C0000200D0A206E6F77206981
:100F50007320256420C4EA20256420D4C22025649F
:100F600020C8D520256420CAB120256420B7D6200A
:100F7000256420C3EB200D0A200000001F1C1F1E4B
:100F80001F1E1F1F1E1F1E1FA80F0008000000208D
:100F90001C000000700D0008C40F00081C00002099
:100FA0000C040000800D0008000000000000010299
:100FB00003040102030406070809020406080000EE
:040FC000000000002D
:0400000508000131BD
:00000001FF
