:020000040800F2
:100000003804002045010008050500081104000817
:10001000010500082F020008810E00080000000002
:10002000000000000000000000000000010B0008BC
:100030004D02000800000000510800082D0C0008C7
:100040005F0100085F0100085F0100085F01000810
:100050005F0100085F0100085F0100085F01000800
:100060005F0100085F0100085F0100085F010008F0
:100070005F0100085F0100085F0100085F010008E0
:100080005F0100085F0100085F0100085F010008D0
:100090005F0100085F0100085F0100085F010008C0
:1000A0005F0100085F0100085F0100085F010008B0
:1000B0005F0100085F0100085F0100085F010008A0
:1000C0005F0100085F0100085F0100085F01000890
:1000D0005F010008910C00085F0100085F01000843
:1000E0005F0100085F0100085F0100085F01000870
:1000F0005F0100085F0100085F0100085F01000860
:100100005F0100085F0100085F0100085F0100084F
:100110005F0100085F0100085F0100085F0100083F
:100120005F0100085F0100085F0100085F0100082F
:10013000DFF80CD000F04AF800480047AD13000883
:10014000380400200648804706480047FEE7FEE7DF
:10015000FEE7FEE7FEE7FEE7FEE7FEE7FEE7FEE777
:10016000310C0008310100082DE9F05F0546002040
:1001700092469B4688460646814640241BE0284618
:1001800041464746224600F042F853465A46C01AB6
:10019000914110D311461846224600F029F82D1A35
:1001A00067EB01084F4622460120002100F020F8AD
:1001B00017EB00094E41201EA4F10104DFDC484684
:1001C00031462A464346BDE8F09F0000064C074DE5
:1001D00006E0E06840F0010394E807009847103417
:1001E000AC42F6D3FFF7A8FF14140008341400083B
:1001F000202A04DB203A00FA02F1002070479140E7
:10020000C2F1200320FA03F3194390407047202ADB
:1002100004DB203A21FA02F00021704721FA02F3B0
:10022000D040C2F12002914008431946704700BFF8
:10023000FEE770B505460C46284600F0F7FB06467B
:1002400026EA0401284600F01DFE70BD704700003C
:1002500010B56FF0040000F0D5FC0A4800680A49A8
:10026000B0FBF1F0094908700846007800EB400146
:10027000C1EBC0104FF6FF7101EAC00004490880CD
:1002800010BD00000000002000127A0014000020C1
:10029000160000200146114A12784A434FF0E0232D
:1002A0005A6100229A611A46126942F001021A61EB
:1002B00000BF4FF0E022106900F001021AB100F413
:1002C0008032002AF5D04FF0E022126922F00102BC
:1002D0004FF0E0231A6100229A6170471400002059
:1002E0002DE9F041024600250026002000230024CD
:1002F000002791F803C00CF00F0591F803C00CF033
:10030000100CBCF1000F03D091F802C04CEA0505B7
:1003100091F800C0BCF1000F31D0146800202BE030
:100320004FF0010C0CFA00F3B1F800C00CEA030620
:100330009E4220D183004FF00F0C0CFA03F7BC4310
:1003400005FA03FC4CEA040491F803C0BCF1280F41
:1003500006D14FF0010C0CFA00FCC2F814C00AE000
:1003600091F803C0BCF1480F05D14FF0010C0CFA15
:1003700000FCC2F810C0401C0828D1D31460B1F8AA
:1003800000C0BCF1FF0F34DD546800202EE000F106
:10039000080C4FF0010808FA0CF3B1F800C00CEAA1
:1003A00003069E4221D183004FF00F0C0CFA03F795
:1003B000BC4305FA03FC4CEA040491F803C0BCF109
:1003C000280F05D100F1080C08FA0CF8C2F81480C7
:1003D00091F803C0BCF1480F07D100F1080C4FF0B1
:1003E000010808FA0CF8C2F81080401C0828CED387
:1003F0005460BDE8F0810246002093680B400BB1C9
:10040000012000E0002070474161704701617047A2
:1004100000BFFEE78CB02FE003A9522000F0ADF939
:100420000446262804D003A9522000F0A6F9044669
:10043000262C21D103A800F0CEF826281CD19DF847
:100440000F009DF80E10CDE900109DF80D309DF8BD
:100450000C200AA104A800F03DFD04A910A000F0A2
:1004600029FD11480078401C0F49087008460078A3
:100470000A2801D100200870CEE7000054686520EA
:10048000436172642049442069733A202530325810
:1004900025303258253032582530325800000000BF
:1004A00025730D0A000000001800002010B5044656
:1004B000412C24D108210846FFF7BBFE3D21112025
:1004C00000F0E0FC8621172000F0DCFC7F212620D4
:1004D00000F0D8FC1E212D2000F0D4FC00212C209F
:1004E00000F0D0FC8D212A2000F0CCFC3E212B20F6
:1004F00000F0C8FC0220FFF7CDFE00F05FF810BD51
:1005000000BFFEE7704708B54FF4A06000F046F862
:1005100025208DF8000001208DF801008DF80200E3
:100520008DF80300684600F001F808BD70B50021A1
:1005300000230F22C47804B3154C246804F4E0644B
:10054000C4F5E064210AC1F10403CA40447804FA06
:1005500003F184781440214309010E4C0678A1551B
:10056000047804F01F050124AC4005786D11AD003E
:1005700005F1E025C5F8004109E0047804F01F0505
:100580000124AC40044D0678761145F8264070BD34
:100590000CED00E000E400E080E100E002490143EE
:1005A000024A1160704700000000FA050CED00E0FF
:1005B00010B503211420FFF73CFE10BD10B5142028
:1005C00000F034FA044604F0030018B903211420A3
:1005D00000F097FA10BDF0B587B005460027082156
:1005E0000846FFF726FE00210D2000F04BFC80217D
:1005F0000E20FFF71EFE93208DF8080020208DF8B6
:10060000090001A802AB022202A900900C2000F010
:100610001BF80646262E10D1002407E002A8005D34
:10062000285502A8005D4740601CC4B2042CF5DBCD
:1006300002A8005DB84200D0BB2680210E2000F049
:1006400060FA304607B0F0BD2DE9FE4F06468846F9
:1006500091469A46DDF830B0BB2002900020019010
:1006600000900C2E06D00E2E09D1122001901020E1
:10067000009005E0772001903020009000E000BF5E
:1006800000BF019840F08001022000F0FBFB8021B8
:100690000420FFF7CEFD0021012000F0F3FB8021B4
:1006A0000A2000F02EFA002505E018F805100920B0
:1006B00000F0E8FB6D1C4D45F7D33146012000F0FA
:1006C000E1FB0C2E03D180210D2000F01AFA4FF42B
:1006D0007A7500BF042000F0A9F904466D1E35B1FB
:1006E00004F0010018B9009820400028F2D08021C1
:1006F0000D20FFF79EFD95B3062000F097F900F05E
:100700001B0068BB262002900198204000F00100E9
:1007100008B1CC2002900C2E24D10A2000F086F9DA
:1007200004460C2000F082F900F007072FB1601E8C
:1007300007EBC000CBF8000002E0E000CBF80000BF
:1007400004B90124122C00DD1224002505E0092043
:1007500000F06CF90AF805006D1CA542F7D301E022
:10076000BB20029080210C2000F0CBF90021012059
:1007700000F088FB0298BDE8FE8F70B588B0054692
:100780000C4608210846FFF754FD07210D2000F014
:1007900079FB0321142000F0B4F98DF80C5002A865
:1007A00003AB012203A900900C20FFF74DFF064682
:1007B000262E09D10298102806D19DF80C00207031
:1007C0009DF80D00607000E0BB26304608B070BD9B
:1007D00010B508211D48FFF719FE0120FFF75AFD4B
:1007E00008211A48FFF710FE0120FFF753FD0821EA
:1007F0001648FFF70BFE0120FFF74CFD0F210120EB
:1008000000F040FB00BF012000F010F900F01000E4
:100810000028F8D10120FFF73DFD3D21112000F017
:1008200031FB1E212D2000F02DFB00212C2000F09B
:1008300029FB8D212A2000F025FB3E212B2000F0F2
:1008400021FB4021152000F01DFB10BD00080140D8
:100850007047000010B500F019F808210A48FFF7AA
:10086000D5FD10210848FFF7D1FDFFF7B1FF41206A
:10087000FFF71CFEFFF79CFE4FF47A70FFF70AFDAE
:10088000FFF79CFE10BD00000008014008B50121E3
:10089000042000F051F81020ADF8000003208DF87E
:1008A000020010208DF8030069462248FFF718FD6A
:1008B0000121042000F040F82020ADF800000320C2
:1008C0008DF8020010208DF8030069461948FFF7E3
:1008D00007FD0121042000F02FF88020ADF8000072
:1008E00003208DF8020010208DF80300694611489E
:1008F000FFF7F6FC0121042000F01EF84020ADF8BF
:10090000000004208DF8030069460A48FFF7E8FC60
:100910000121042000F010F80820ADF800000320A9
:100920008DF8020010208DF8030069460148FFF79A
:10093000D7FC08BD0008014029B1064A926902436C
:10094000044B9A6104E0034A92698243014B9A6125
:10095000704700000010024030B500210022002442
:1009600000232D4D6D6805F00C0121B1042905D03F
:10097000082923D105E0294D056022E0274D0560B7
:100980001FE0254D6D6805F47012234D6D6805F468
:100990008034022505EB92421CB9214D5543056078
:1009A0000BE01D4D6D6805F400351DB11C4D554320
:1009B000056002E0194D5543056002E0174D0560E2
:1009C00000BF00BF144D6D6805F0F0010909154D19
:1009D0006B5C0568DD4045600F4D6D6805F4E061B6
:1009E000090A104D6B5C4568DD4085600A4D6D68F5
:1009F00005F46051C90A0B4D6B5C4568DD40C5606C
:100A0000054D6D6805F44041890B074D6B5CC56869
:100A1000B5FBF3F5056130BD0010024000127A000D
:100A200000093D00190000202900002070B504468F
:100A30007E2000EA440040F0800510210748FFF7BF
:100A4000E3FC284600F032F800F00AF806461021D0
:100A50000248FFF7DBFC304670BD00000008014093
:100A600070B500251CE06006040E20210E48FFF73B
:100A7000CBFCC820FFF70EFC40210B48FFF7BBFC66
:100A8000012801D144F00104C820FFF703FC202114
:100A90000548FFF7BBFCC820FFF7FCFB681CC5B28C
:100AA000082DE0DB204670BD0008014070B504460B
:100AB000002520E004F0800020B180210F48FFF7DE
:100AC000A5FC03E080210D48FFF79EFCC820FFF73E
:100AD000E1FB20210948FFF797FCC820FFF7DAFB6C
:100AE00020210648FFF792FCC820FFF7D3FB6006E1
:100AF000040E681CC5B2082DDCDB70BD0008014087
:100B0000704770B505460C462846FFF78FFF06462E
:100B100046EA0401284600F0B5F970BD10B500F0B2
:100B200001F810BD0CB5002001900090334800681A
:100B300040F480303149086000BF3048006800F45C
:100B4000003000900198401C0190009818B901985D
:100B5000B0F5A06FF1D12948006800F4003010B161
:100B60000120009001E0002000900098012843D16E
:100B70002348006840F010002149086008460068DA
:100B800020F0030008600846006840F0020008609A
:100B90001A48406819494860084640684860084655
:100BA000406840F4806048600846406820F47C104B
:100BB00048600846406840F4E8104860084600680D
:100BC00040F08070086000BF0C48006800F00070C2
:100BD0000028F9D00948406820F003000749486020
:100BE0000846406840F00200486000BF0348406883
:100BF00000F00C000828F9D10CBD000000100240E4
:100C000000200240042808D14FF0E021096941F09A
:100C100004014FF0E022116107E04FF0E021096983
:100C200021F004014FF0E02211617047704700008D
:100C300010B51348006840F00100114908600846EB
:100C40004068104908400E494860084600680E494F
:100C500008400B4908600846006820F480200860BE
:100C60000846406820F4FE0048604FF41F0088608A
:100C7000FFF754FF4FF000600449086010BD00000A
:100C8000001002400000FFF8FFFFF6FE08ED00E054
:100C9000704721B1828942F40052828104E0828946
:100CA0004DF6FF731A4082817047000000B585B091
:100CB000012144F20500FFF73FFE4FF40070ADF84C
:100CC000100018208DF8130003208DF8120004A9DD
:100CD0001848FFF705FB4FF48060ADF810000420C2
:100CE0008DF8130003208DF8120004A91148FFF7B6
:100CF000F7FA4FF4E13000900020ADF80400ADF8B1
:100D00000600ADF80800ADF80C000C20ADF80A00A4
:100D10006946094800F044F8FFF7F5FB012240F26C
:100D20002551054800F017F801210348FFF7B1FFEE
:100D300005B000BD00080140003801400246002017
:100D4000B1F5007F00D100BF13880B400BB101202B
:100D500000E000207047F0B503460024002600257F
:100D6000002040F66A17B94200D100BF1846C1F30F
:100D7000421401F01F06012707FA06F5012C01D1E4
:100D80000C3004E0022C01D1103000E014301AB114
:100D900007682F43076002E00768AF430760F0BDB4
:100DA0002DE9F04786B005460E460024A24600BF56
:100DB000A1460027B08900B100BF2F462C8A4CF60F
:100DC000FF700440F08804432C82AC894EF6F31087
:100DD0000440B08831890843718908430443AC81D9
:100DE000AC8A4FF6FF400440B0890443AC8201A8AE
:100DF000FFF7B2FD1F48874202D1DDF810A001E0E5
:100E0000DDF80CA0A88900F4004040B10AEBCA004C
:100E100000EB0A1031684900B0FBF1F807E00AEB7B
:100E2000CA0000EB0A1031688900B0FBF1F86420B9
:100E3000B8FBF0F004012009642101FB1089A889A6
:100E400000F4004040B1322000EBC900B0FBF1F0EB
:100E500000F00700044308E0322000EB0910642191
:100E6000B0FBF1F000F00F0004432C8106B0BDE8A8
:100E7000F087000000380140C1F30802828070470B
:100E800000BFFEE770B504460D467E2000EA44062A
:100E900010210748FFF7B8FA3046FFF707FE28464B
:100EA000FFF704FE10210248FFF7B0FA70BD000002
:100EB000000801400FB4054B10B503A9044A02987D
:100EC00000F02CF810BC5DF814FB0000891300083A
:100ED000300000200FB4084B10B504A902AA0398F3
:100EE00000F01CF8044602A9002000F048FA204651
:100EF00010BC5DF814FB00007F13000802E008C876
:100F0000121F08C1002AFAD170477047002001E083
:100F100001C1121F002AFBD1704700002DE9FF4FCD
:100F20008DB00F460546002606E025280BD0DDE9EA
:100F30000F1290476D1C761C28780028F5D111B04F
:100F40003046BDE8F08F0024A246A1460122EC49BC
:100F500000E0044315F8013F203B02FA03F0084289
:100F6000F7D128782A2810D06FF02F022878A0F126
:100F70003001092914D80AEB8A0102EB410144F03F
:100F8000020400EB010A6D1CF0E701CF5FEA000AE2
:100F900003D544F40054CAF1000A44F002046D1C65
:100FA00028782E2817D115F8010F44F004042A28B8
:100FB0000ED06FF02F022878A0F1300109290AD84D
:100FC00009EB890102EB410100EB01096D1CF2E71D
:100FD00057F8049B6D1C28786C280FD006DC4C2831
:100FE00017D068280DD06A2814D104E0742810D0D6
:100FF0007A280FD10DE044F400140AE044F4801480
:1010000001E044F440146978814202D104F580146F
:101010006D1C6D1C2A786E2A1FD00CDC632A31D01F
:1010200004DC002A8BD0582A11D1A3E0642A68D0AE
:10103000692A0CD165E0732A2ED004DC6F2A73D0A4
:10104000702A04D19BE0752A6FD0782A6ED01046A2
:10105000DDE90F129047761C50E1C4F302500228DC
:1010600006D0032809D0042801CF09D0066045E145
:1010700001CFF117C0E9006140E101CF06803DE1F9
:1010800006703BE117F8040B8DF8000000208DF886
:101090000100EB46012003E057F804BB4FF0FF309E
:1010A00061074FF0000102D40DE008F1010188460C
:1010B00049450FDA8045F8DB1BF808100029F4D108
:1010C00008E008F1010188468142FADB1BF80810AC
:1010D0000029F6D1DDE90F23AAEB0800814621465D
:1010E00000F036F9304400EB080604E0DDE90F12A9
:1010F0001BF8010B9047B8F10108F7D2214648468A
:10110000F7E00A21C4F302534FF0000B0891022BC1
:1011100004D001CFC117032B09D00AE0FF1D27F02F
:101120000707F7E8020108E032E01FE020E000B224
:10113000C117042B01D140B2C117031E71F1000386
:1011400007DA4FF0000CD0EB0C006CEB01012D2303
:1011500002E0230504D52B238DF82430012303E07E
:10116000E30701D02023F7E7984658E00A2110E072
:1011700010210EE010204FF0000B08900CE0102121
:101180004FF0000B44F004044FF00809089103E00D
:1011900008214FF0000B0891C4F30253022B04D036
:1011A00001CF0021032B06D006E0FF1D27F0070723
:1011B000F7E8020103E080B2042B00D1C0B24FF087
:1011C000000823072BD5702A07D0DDF820C08CF04B
:1011D000100C5CEA0B0C05D00EE040238DF8243097
:1011E000012308E050EA010306D030238DF82430B3
:1011F0008DF8252002239846DDF820C08CF0080CDD
:101200005CEA0B0C0BD150EA010301D1630706D550
:1012100030238DF824304FF00108A9F10109582A34
:1012200004D038A20B9208AA0A920BE03AA2F9E77E
:101230005B46089AFEF798FF0B9B9B5C0A9A521E2E
:101240000A92137050EA0102F2D10A98ADEB000045
:1012500000F1200B600702D524F4803401E04FF048
:101260000109D94502DDA9EB0B0000E0002000EBED
:101270000B0141440890AAEB010AE00306D4DDE922
:101280000F232146504600F063F806444FF0000952
:1012900008E009A911F80900DDE90F12904709F1EA
:1012A0000109761CC145F4DBE0030CD5DDE90F2311
:1012B0002146504600F04CF8064404E0DDE90F12E8
:1012C00030209047761C0899481E08900029F5DCCC
:1012D00008E00A980A990078491C0A91DDE90F1282
:1012E0009047761CBBF10001ABF1010BF1DC21460C
:1012F0005046DDE90F2300F019F806446D1C1BE68B
:1013000009280100303132333435363738396162DB
:10131000636465660000000030313233343536379F
:101320003839414243444546000000002DE9F04170
:10133000044600251E461746880404D405E03946B5
:101340002020B0476D1C641EF9D52846BDE8F08109
:101350002DE9F041044600251E469046C80301D5FC
:10136000302700E02027880404D505E041463846B0
:10137000B0476D1C641EF9D52846BDE8F0810A68A7
:10138000531C0B601070704770B504460D46E1B2F7
:101390000548FFF771FD00BF80210348FFF7CEFC31
:1013A0000028F9D0204670BD00380140FEF750FFFC
:1013B000FFF77CFCFFF74EFA05A0FFF77BFD08A0C6
:1013C000FFF778FDFFF746FA01E0FFF723F8FCE7A7
:1013D00057462D524335323220546573740A00004B
:1013E000506C656173652070757420746865204960
:1013F000432063617264206F6E2057462D5243353F
:10140000323220616E74656E6E612061726561209A
:101410002E2E2E003414000800000020340000009E
:10142000FC0E0008681400083400002004040000CA
:101430000C0F000800A24A04000000000000000099
:101440000102030406070809000000000000000074
:10145000000102030401020304060708090204064E
:0814600008000000000000007C
:0400000508000131BD
:00000001FF
