:020000040800F2
:100000005808002045010008C11300081705000822
:10001000BD130008E3010008EF190008000000000C
:100020000000000000000000000000004916000869
:10003000D103000800000000F11400083517000883
:100040005F0100085F0100085F0100085F01000810
:100050005F0100085F0100085F0100085F01000800
:100060005F0100085F0100085F0100085F010008F0
:100070005F0100085F0100085F0100085F010008E0
:100080005F0100085F0100085F0100085F010008D0
:100090005F0100085F0100085F0100085F010008C0
:1000A0005F0100085F0100085F0100085F010008B0
:1000B0005F0100085F0100085F010008A905000852
:1000C0001D0500086D080008E10700085F01000831
:1000D0005F010008991700085F0100085F01000830
:1000E0005F0100085F0100085F0100085F01000870
:1000F0005F0100085F0100085F0100085F01000860
:100100005F0100085F0100085F0100085F0100084F
:100110005F0100085F0100085F0100085F0100083F
:100120005F0100085F0100085F0100085F0100082F
:10013000DFF80CD000F018F800480047351A000826
:10014000580800200648804706480047FEE7FEE7BB
:10015000FEE7FEE7FEE7FEE7FEE7FEE7FEE7FEE777
:100160003917000831010008064C074D06E0E06829
:1001700040F0010394E8070098471034AC42F6D3EE
:10018000FFF7DAFF6C1A00088C1A000870B58C189B
:1001900010F8015B15F0070301D110F8013B2A119B
:1001A00006D110F8012B03E010F8016B01F8016B88
:1001B0005B1EF9D12B0705D40023521E0DD401F884
:1001C000013BFAE710F8013BCB1A921C03E013F84D
:1001D000015B01F8015B521EF9D5A142D8D3002082
:1001E00070BD00BFFEE7000000F0805111B103496F
:1001F000086001E0024948607047000004040240C2
:100200000000024021B1026842F00102026004E0F5
:1002100002684FF6FE731A400260704701684FF69D
:10022000FE72114001600021016041608160C16087
:100230004B49884208D14A490839496841F00F01C1
:10024000474A083A51608AE045491431884208D14A
:1002500043490839496841F0F001414A083A516080
:100260007DE03F492831884208D13D490839496835
:1002700041F470613A4A083A516070E038493C31C3
:10028000884208D136490839496841F47041344AF6
:10029000083A516063E032495031884208D1304910
:1002A0000839496841F470212D4A083A516056E0F6
:1002B0002B496431884208D129490839496841F4F9
:1002C0007001274A083A516049E02549783188424F
:1002D00008D123490839496841F07061204A083A39
:1002E00051603CE01F49884206D1011F096841F076
:1002F0000F01021F116032E01A491431884208D1FF
:100300001849091F096841F0F001164A121F1160CF
:1003100025E014492831884208D11249091F09688B
:1003200041F470610F4A121F116018E00D493C3111
:10033000884208D10B49091F096841F47041094AF4
:10034000121F11600BE007495031884207D105495F
:10035000091F096841F47021024A121F1160704799
:10036000080002400804024001460020002201F07B
:10037000805313B1054B1A6801E0054B1A6802EA75
:1003800001030BB1012000E000207047000402408F
:100390000000024010B50022026847F6F0739A434D
:1003A0000C6A8B6823430C6923434C6923438C6993
:1003B0002343CC6923434C6A23438C6A23431A4367
:1003C0000260CB6843600B6883604B68C36010BDFC
:1003D0007047000008B50121082001F0BBF84FF478
:1003E0004C60ADF8000003208DF8020014208DF859
:1003F00003006946014800F003F808BD000C014005
:100400002DE9F041024600250026002000230024AB
:10041000002791F803C00CF00F0591F803C00CF011
:10042000100CBCF1000F03D091F802C04CEA050596
:1004300091F800C0BCF1000F31D0146800202BE00F
:100440004FF0010C0CFA00F3B1F800C00CEA0306FF
:100450009E4220D183004FF00F0C0CFA03F7BC43EF
:1004600005FA03FC4CEA040491F803C0BCF1280F20
:1004700006D14FF0010C0CFA00FCC2F814C00AE0DF
:1004800091F803C0BCF1480F05D14FF0010C0CFAF4
:1004900000FCC2F810C0401C0828D1D31460B1F889
:1004A00000C0BCF1FF0F34DD546800202EE000F1E5
:1004B000080C4FF0010808FA0CF3B1F800C00CEA80
:1004C00003069E4221D183004FF00F0C0CFA03F774
:1004D000BC4305FA03FC4CEA040491F803C0BCF1E8
:1004E000280F05D100F1080C08FA0CF8C2F81480A6
:1004F00091F803C0BCF1480F07D100F1080C4FF090
:10050000010808FA0CF8C2F81080401C0828CED365
:100510005460BDE8F08100BFFEE7000008B5002090
:100520000090204800880090009800F48060B0F5AA
:10053000806F08D11B4800884FF6FF3108401949E9
:10054000088000200090009800F40070B0F5007F53
:1005500008D1144800884FF6FF310840114908803F
:1005600000200090009800F48070B0F5807F08D1E2
:100570000C4800884FF6FF6108400A4908800020B7
:100580000090009800F40060B0F5006F08D10548B5
:1005900000884FF2FF710840024908800020009057
:1005A00008BD0000145400400CB5002001900090DC
:1005B0008348008801908248001D008800900098C0
:1005C00000F00100002840D1019800F0020002284C
:1005D00006D10020019000907A4908707A4908708D
:1005E000019800F0800080280CD176490878411CE1
:1005F000744A11707549095C714A121F11800020FC
:1006000001900090019800F0400040280DD16C4905
:10061000091F0988CAB26C490878411C6A4B1970D5
:100620006B490A54002001900090019800F01000DE
:1006300010280AD162481438008840F0010060494F
:1006400014390880002001900090019800F001000A
:1006500038B1604800785A49091F0880002001908D
:100660000090009800F0010000287DD0019800F073
:100670000200022838D158480068E8B900205149E2
:1006800008700878411C4F4A11705049095C4C4A67
:10069000121F118051480068401E504908600846EA
:1006A0000068F0B94648103800884FF6FF3108401E
:1006B00043491039088014E0002043490870474836
:1006C000006801280DD13E48143800884FF6FF31EC
:1006D00008403B49143908800846008840F40070FF
:1006E0000880002001900090019800F0840080288C
:1006F00020D13A480068D0B132490878411C314ACB
:1007000011703249095C2E4A121F1180334800686B
:10071000401E324908600846006840B92848103831
:1007200000884FF6FF310840254910390880002025
:1007300001900090019800F08400842812D1204894
:100740001438008840F400701D4914390880081DD1
:1007500000884FF6FF5108401949103908800020E1
:1007600001900090019800E028E000F0400040284F
:1007700024D11349091F0988CAB213490878411CBA
:10078000114B197012490A5414480068401E13494D
:1007900008600846006801280DD10948143800880F
:1007A0004FF6FF3108400649143908800846008892
:1007B00040F4007008800020019000900CBD000003
:1007C00014540040FF01002000020020010000201E
:1007D0002802002024020020180200201C02002011
:1007E00008B500200090204800880090009800F490
:1007F0008060B0F5806F08D11B4800884FF6FF314C
:1008000008401949088000200090009800F400700A
:10081000B0F5007F08D1144800884FF6FF3108403A
:100820001149088000200090009800F48070B0F515
:10083000807F08D10C4800884FF6FF6108400A49C4
:10084000088000200090009800F40060B0F5006F70
:1008500008D1054800884FF2FF710840024908801E
:100860000020009008BD0000145800400CB5002086
:10087000019000908348008801908248001D008804
:100880000090009800F00100002840D1019800F08D
:100890000200022806D10020019000907A490870D9
:1008A0007A490870019800F0800080280CD17649C0
:1008B0000878411C744A11707549095C714A121F0D
:1008C0001180002001900090019800F04000402825
:1008D0000DD16C49091F0988CAB26C490878411CBE
:1008E0006A4B19706B490A540020019000900198DE
:1008F00000F0100010280AD162481438008840F037
:10090000010060491439088000200190009001988E
:1009100000F0010038B1604800785A49091F08808A
:10092000002001900090009800F0010000287DD088
:10093000019800F00200022838D158480068E8B950
:100940000020514908700878411C4F4A11705449E1
:10095000095C4C4A121F118052480068401E5149E0
:10096000086008460068F0B94648103800884FF61D
:10097000FF31084043491039088014E00020434902
:1009800008704848006801280DD13E481438008896
:100990004FF6FF3108403B4914390880084600886B
:1009A00040F400700880002001900090019800F051
:1009B0008400802820D13B480068D0B132490878B3
:1009C000411C314A11703249095C2E4A121F1180B4
:1009D00034480068401E334908600846006840B942
:1009E0002848103800884FF6FF3108402549103953
:1009F0000880002001900090019800F08400842875
:100A000012D120481438008840F400701D49143970
:100A10000880081D00884FF6FF5108401949103919
:100A20000880002001900090019800E028E000F08C
:100A30004000402824D11349091F0988CAB213492C
:100A40000878411C114B197012490A541548006866
:100A5000401E144908600846006801280DD1094865
:100A6000143800884FF6FF310840064914390880D1
:100A70000846008840F40070088000200190009033
:100A80000CBD0000145800400102002002020020AA
:100A9000000100202703002024020020180200206B
:100AA00001000020200200202DE9F04104460D46FF
:100AB00016461F4667BB2F48456010202D498860A9
:100AC0000846C6602C4884420FD12B48103008607D
:100AD00000212A48FFF796FB26492848FFF75AFCD1
:100AE00001212648FFF78EFB41E025482149086097
:100AF000002122482838FFF785FB1E491F48283867
:100B0000FFF748FC01211D482838FFF77BFB2EE04A
:100B1000184845600020174988600846C660164896
:100B2000844212D114481030086000211348143058
:100B3000FFF768FB0F4911481430FFF72BFC012128
:100B40000E481430FFF75EFB11E00D4809490860BC
:100B500000210A481438FFF755FB064907481438A6
:100B6000FFF718FC012105481438FFF74BFBBDE8DF
:100B7000F081000028040020005400406C00024076
:100B80001058004021B1028842F40072028004E053
:100B900002884FF6FF531A40028070472DE9F04358
:100BA00085B004460D460026B1460427DFF8CC8008
:100BB000A6884FF6C0700640684600F0DBFCDDF802
:100BC00008802F48B8FBF0F01FFA80F946EA0906C2
:100BD000A68020884FF6FE71084020800026294913
:100BE000286888420CD828684000B8FBF0F087B22B
:100BF000042F00DA04273E4309F10100208427E096
:100C0000E8884BF6FF71884206D1286800EB400067
:100C1000B8FBF0F087B209E0286800EBC00101EBF7
:100C20000010B8FBF0F087B247F48047C7F30B0021
:100C300008B947F0010747F4004006434FF49670A7
:100C400009FB00F04FF47A7190FBF1F0401C208416
:100C5000A683208840F00100208026884FF6F530DA
:100C60000640A8886989084306432680A8892989FF
:100C70000843208105B0BDE8F083000000127A002F
:100C800040420F00A086010010B586B00446012145
:100C9000082000F05FFC0121084600F02BFC5E48B4
:100CA000844221D10121480500F034FC4020ADF8F8
:100CB000140003208DF816001C208DF8170005A9DC
:100CC0005648FFF79DFB8020ADF8140005A9534856
:100CD000FFF796FB0121480500F02CFC00214FF4A2
:100CE000001000F027FC22E00121880500F012FC32
:100CF0004FF48060ADF8140003208DF816001C201E
:100D00008DF8170005A94548FFF77AFB4FF40060FE
:100D1000ADF8140005A94148FFF772FB01218805D1
:100D200000F008FC00214FF4800000F003FC0020DC
:100D3000ADF808004BF6FF70ADF80A002820ADF8BA
:100D40000C004FF48060ADF80E000001ADF810000B
:100D50003348019001A93048FFF720FF3020ADF85B
:100D60000C0001A92F48FFF719FF2B48844227D117
:100D70002D48FFF753FA284810302C49086000200E
:100D80004860102088604FF6FF70C860002008613E
:100D90008020486100208861C86108624FF440509B
:100DA0004862002088622048FFF7F4FA1E48143099
:100DB000FFF734FA1D491C481430FFF7EBFA28E01E
:100DC00019482838FFF72AFA1648103017490860E2
:100DD00000204860102088604FF6FF70C860002037
:100DE00008618020486100208861C86108624FF472
:100DF00040504862002088620B482838FFF7CAFA42
:100E000009481438FFF70AFA084907481438FFF769
:100E1000C1FA06B010BD000000540040000C0140B3
:100E2000801A0600005800406C0002402804002090
:100E30002DE9FC4104460D4617469846089E0020C1
:100E400001900090A08840F48070A080B8F1020F5B
:100E500067D101233A4629462046FFF725FEA088A0
:100E600040F48050A080A08840F40060A0804FF63D
:100E7000FF700090208840F48070208006E0009889
:100E8000411E009110B90020BDE8FC81A08A00F04D
:100E900001000028F3D04FF6FF70009046F00106E5
:100EA000BE4806700078208205E00098411E00913F
:100EB00008B90020E8E7A08A00F002000228F4D177
:100EC000208B0190B64884420FD100BF4FF00070D4
:100ED000FFF74AFA0028F9D00021B248FFF792F94B
:100EE0004FF00070FFF780F90FE000BF4FF40030C3
:100EF000FFF73AFA0028F9D00021AA482838FFF76E
:100F000081F94FF40030FFF76FF9208840F400704A
:100F1000208000BF208800F40070B0F5007FF9D079
:100F20003AE1B8F1000F73D1012F48D14FF6FF70AD
:100F30000090208840F48070208005E00098411ED9
:100F4000009108B900209FE7A08A00F00100002866
:100F5000F4D046F0010691480670007820824FF6E2
:100F6000FF70009005E00098411E009108B9002034
:100F70008AE7A08A00F002000228F4D120884FF608
:100F8000FF310840208072B6208B0190208840F409
:100F90000070208062B600BFA08A00F040004028A8
:100FA000FAD1208A287000BF208800F40070B0F5C4
:100FB000007FF9D0208840F480602080ECE0022F90
:100FC00057D1208840F4006020804FF6FF700090D9
:100FD000208840F48070208005E00098411E009138
:100FE00008B9002050E7A08A00F001000028F4D0E2
:100FF0004FF6FF70009046F00106684806700078D2
:10100000208206E00098411E009110B900203BE7C5
:1010100096E0A08A00F002000228F3D172B6208B7D
:10102000019020884FF6FF310840208062B600BF53
:10103000A08A00F004000428FAD172B601212046EB
:10104000FFF7A0FD208A287062B66D1C208A2870E8
:1010500000BF208800F40070B0F5007FF9D0208830
:1010600040F48060208020884FF2FF71084020808B
:1010700092E04FF6FF700090208840F4807020804E
:1010800005E00098411E009108B90020FCE6A08A06
:1010900000F001000028F4D04FF6FF70009046F0F9
:1010A00001063E4806700078208205E00098411E47
:1010B000009108B90020E7E6A08A00F002000228AB
:1010C000F4D1208B01902DE0032F09D000BFA08A1E
:1010D00000F004000428FAD1208A28706D1C7F1EBD
:1010E000032F1FD100BFA08A00F004000428FAD10A
:1010F00020884FF6FF310840208072B6208A287081
:101100006D1C208840F400702080208A287062B610
:101110006D1C00BFA08A00F040004028FAD1208A50
:1011200028700027002FCFD100BF208800F4007066
:10113000B0F5007FF9D0208840F4806020802BE05B
:10114000A08840F40070A080A08840F48060A08057
:1011500001201549086046F0010610480670104845
:10116000844202D11148076001E0114807602088DD
:1011700040F48070208000BF208800F48070B0F5BB
:10118000807FF9D000BF208B00F002000228FAD047
:10119000208840F480602080012075E62402002031
:1011A0000054004080000240180200201C02002071
:1011B000200200202DE9FC4104460E4617469846C1
:1011C000089D002001900090A08840F48070A080CD
:1011D000B8F1020F69D14FF6FF70009000233A4634
:1011E00031462046FFF760FCA08840F40060A080F4
:1011F000208840F48070208006E00098411E009115
:1012000010B90020BDE8FC81A08A00F00100002890
:10121000F3D04FF6FF700090401E05406148057006
:101220000078208205E00098411E009108B9002056
:10123000E8E7A08A00F002000228F4D1208B019098
:10124000594884420FD100BF4FF40010FFF78CF8CB
:101250000028F9D000215548FEF7D4FF4FF40010C4
:10126000FEF7C2FF0FE000BF4FF40050FFF77CF81D
:101270000028F9D000214D482838FEF7C3FF4FF46D
:101280000050FEF7B1FF00BFA08A00F00400042860
:10129000FAD1208840F40070208000BF208800F43C
:1012A0000070B0F5007FF9D07AE0B8F1000F4ED1B0
:1012B0004FF6FF700090208840F48070208005E099
:1012C0000098411E009108B900209BE7A08A00F019
:1012D00001000028F4D04FF6FE700540314805703B
:1012E000007820824FF6FF70009005E00098411EC4
:1012F000009108B9002085E7A08A00F002000228CA
:10130000F4D1208B019030782082761C7F1E08E07B
:1013100000BFA08A00F004000428FAD130782082AF
:10132000761C381EA7F10107F2D100BFA08A00F099
:1013300004000428FAD1208840F40070208000BF07
:10134000208800F40070B0F5007FF9D028E0A08874
:1013500040F40070A080A08840F48060A08000204D
:10136000134908604FF6FE7005400E4805700E48A0
:10137000844202D10F48076001E00F4807602088CF
:1013800040F48070208000BF208800F48070B0F5A9
:10139000807FF9D000BF208B00F002000228FAD035
:1013A00001202FE724020020005400406C0002407E
:1013B000180200201C0200202002002000BFFEE7CF
:1013C000704708B54FF4A06000F074F825208DF840
:1013D000000001208DF801008DF802008DF8030057
:1013E000684600F02FF808BD00F01F02012191406F
:1013F0004209920002F1E022C2F80011704710B5D4
:101400004FF4407000F056F800211F2000F05CF807
:101410001F20FFF7E9FF0121202000F055F82020D0
:10142000FFF7E2FF0021212000F04EF82120FFF716
:10143000DBFF0121222000F047F82220FFF7D4FF34
:1014400010BD000070B5002100230F22C47804B342
:10145000154C246804F4E064C4F5E064210AC1F189
:101460000403CA40447804FA03F184781440214309
:1014700009010E4C0678A155047804F01F050124DB
:10148000AC4005786D11AD0005F1E025C5F80041CF
:1014900009E0047804F01F050124AC40044D0678EF
:1014A000761145F8264070BD0CED00E000E400E048
:1014B00080E100E002490143024A116070470000E8
:1014C0000000FA050CED00E010B5002807DA0A0765
:1014D000140E054A00F00F031B1FD45403E00A0743
:1014E000130E024A135410BD18ED00E000E400E0B2
:1014F0007047000029B1064A52690243044B5A6101
:1015000004E0034A52698243014B5A61704700006C
:101510000010024029B1064AD2690243044BDA6145
:1015200004E0034AD2698243014BDA61704700004C
:101530000010024029B1064A12690243044B1A61A5
:1015400004E0034A12698243014B1A6170470000AC
:101550000010024029B1064A92690243044B9A6185
:1015600004E0034A92698243014B9A61704700008C
:101570000010024030B500210022002400232D4D30
:101580006D6805F00C0121B1042905D0082923D18B
:1015900005E0294D056022E0274D05601FE0254D3F
:1015A0006D6805F47012234D6D6805F480340225D2
:1015B00005EB92421CB9214D554305600BE01D4DD2
:1015C0006D6805F400351DB11C4D5543056002E002
:1015D000194D5543056002E0174D056000BF00BF7F
:1015E000144D6D6805F0F0010909154D6B5C056837
:1015F000DD4045600F4D6D6805F4E061090A104D4E
:101600006B5C4568DD4085600A4D6D6805F460518E
:10161000C90A0B4D6B5C4568DD40C560054D6D68C2
:1016200005F44041890B074D6B5CC568B5FBF3F5CC
:10163000056130BD0010024000127A0000093D0033
:101640000302002013020020704710B500F002F8DA
:1016500010BD00000CB500200190009033480068D8
:1016600040F480303149086000BF3048006800F421
:10167000003000900198401C0190009818B9019822
:10168000B0F5A06FF1D12948006800F4003010B126
:101690000120009001E0002000900098012843D133
:1016A0002348006840F0100021490860084600689F
:1016B00020F0030008600846006840F0020008605F
:1016C0001A4840681949486008464068486008461A
:1016D000406840F4806048600846406820F47C1010
:1016E00048600846406840F4E810486008460068D2
:1016F00040F08070086000BF0C48006800F0007087
:101700000028F9D00948406820F0030007494860E4
:101710000846406840F00200486000BF0348406847
:1017200000F00C000828F9D10CBD000000100240A8
:10173000002002407047000010B51348006840F0D8
:1017400001001149086008464068104908400E49E8
:101750004860084600680E4908400B490860084682
:10176000006820F4802008600846406820F4FE00ED
:1017700048604FF41F008860FFF767FF4FF000607C
:101780000449086010BD0000001002400000FFF88E
:10179000FFFFF6FE08ED00E010B540F225510648C7
:1017A00000F060F838B1044800F018F9C4B22146DE
:1017B000014800F018F910BD0038014021B18289BC
:1017C00042F40052828104E082894DF6FF731A4090
:1017D0008281704700B585B0012144F20500FFF712
:1017E000B9FE4FF40070ADF8100018208DF813000A
:1017F00003208DF8120004A91848FEF701FE4FF4EB
:101800008060ADF8100004208DF8130003208DF8DF
:10181000120004A91148FEF7F3FD4FF4E1300090E7
:101820000020ADF80400ADF80600ADF80800ADF8F2
:101830000C000C20ADF80A006946094800F062F877
:10184000FFF7BFFD012240F22551054800F034F8B2
:1018500001210348FFF7B2FF05B000BD00080140B9
:101860000038014070B50246002400230025002006
:1018700040F66A16B14200D100BFC1F3421501F033
:101880001F03012606FA03F3012D02D19689334086
:1018900006E0022D02D1168A334001E0968A3340D9
:1018A0000C12012606FA04F41688344013B10CB168
:1018B000012000E0002070BDF0B5034600240026A2
:1018C0000025002040F66A17B94200D100BF184633
:1018D000C1F3421401F01F06012707FA06F5012C97
:1018E00001D10C3004E0022C01D1103000E01430A2
:1018F0001AB107682F43076002E00768AF4307602B
:10190000F0BD00002DE9F04786B005460E460024E4
:10191000A24600BFA1460027B08900B100BF2F46F4
:101920002C8A4CF6FF700440F08804432C82AC896A
:101930004EF6F3100440B08831890843718908439A
:101940000443AC81AC8A4FF6FF400440B0890443A5
:10195000AC8201A8FFF70EFE1F48874202D1DDF8D6
:1019600010A001E0DDF80CA0A88900F4004040B10F
:101970000AEBCA0000EB0A1031684900B0FBF1F82D
:1019800007E00AEBCA0000EB0A1031688900B0FBDF
:10199000F1F86420B8FBF0F004012009642101FB98
:1019A0001089A88900F4004040B1322000EBC90042
:1019B000B0FBF1F000F00700044308E0322000EB38
:1019C00009106421B0FBF1F000F00F0004432C81FA
:1019D00006B0BDE8F0870000003801400146888865
:1019E000C0F308007047C1F308028280704700BF4F
:1019F000FEE702E008C8121F08C1002AFAD17047AA
:101A00007047002001E001C1121F002AFBD170477E
:101A100010B5FFF7DFFEFFF7F2FCFEF7DBFC034833
:101A2000FFF732F90248FFF72FF910BD00580040C8
:101A30000054004008B5FFF7EBFF0FE0282001231A
:101A40007822074900900748FFF7B4FB28200023BD
:101A50007822054900900348FFF7EAF9EEE7000015
:101A60000100002000540040280200208C1A0008C9
:101A700000000020280200008C010008AC1A0008B9
:101A80002802002030060000021A00081105FB059C
:101A900006080A05FF0F0B0C0D412D01020304047B
:0C1AA000000911060708090204060800EE
:0400000508000131BD
:00000001FF
