:020000040800F2
:10000000000400207F1B0008390900083B09000894
:100010003F090008430900084709000800000000E4
:100020000000000000000000000000004B09000874
:100030004D090008000000004F09000851090008A0
:10004000CB0600089F1B00089F1B00089F1B000891
:100050009F1B00089F1B00089F1B00089F1B000898
:100060009F1B00089F1B00089F1B00089F1B000888
:100070009F1B00089F1B00089F1B00089F1B000878
:100080009F1B00089F1B00089F1B00089F1B000868
:100090009F1B00089F1B00089F1B00089F1B000858
:1000A0009F1B00089F1B00089F1B00089F1B000848
:1000B0009F1B00089F1B00089F1B00089F1B000838
:1000C0009F1B00089F1B00089F1B00089F1B000828
:1000D0009F1B00089F1B00089F1B00089F1B000818
:1000E0009F1B00089F1B00089F1B00089F1B000808
:1000F0009F1B00089F1B00089F1B00089F1B0008F8
:100100009F1B00089F1B00089F1B00089F1B0008E7
:100110009F1B00089F1B00089F1B00089F1B0008D7
:100120009F1B00089F1B00089F1B00089F1B0008C7
:1001300000F002F800F03AF80AA090E8000C8244BF
:100140008344AAF10107DA4501D100F02FF8AFF29C
:10015000090EBAE80F0013F0010F18BFFB1A43F0A5
:1001600001031847E821000008220000103A24BFCC
:1001700078C878C1FAD8520724BF30C830C144BF0C
:1001800004680C607047000000230024002500264E
:10019000103A28BF78C1FBD8520728BF30C148BFEA
:1001A0000B6070471FB51FBD10B510BD01F00FFDEE
:1001B0001146FFF7F7FF00F06CFB01F02DFD03B4D3
:1001C000FFF7F2FF03BC01F035FD0000002904DA5F
:1001D0004A4211B22D22027001E0202202706422F4
:1001E00091FBF2F23032D3B2421C104613706422FB
:1001F00091FBF2F302FB13110A2291FBF2F230326F
:10020000D3B2421C104613700A2291FBF2F302FB98
:10021000131101F13002D3B2421C10461370704723
:1002200008B54020ADF8000003208DF8020014202E
:100230008DF803006946FE4801F074F88020ADF89F
:10024000000003208DF8020014208DF80300694699
:10025000F74801F067F808BD052001E0411EC8B26B
:100260000028FBD1704742F2107000E0401E0028C9
:10027000FCD1704700B58020ED4910310860402066
:100280000860FFF7E9FFEA480830006808B9012074
:1002900000E0002000F0800008B1002000BD8020B8
:1002A000E34914310860FFF7D7FFE14808300068E0
:1002B00000F0800008B10020F0E78020DC49143114
:1002C0000860FFF7C9FF0120E8E700B54020D849E2
:1002D00014310860FFF7C0FF8020D5491431086051
:1002E000FFF7BAFF4020D24910310860FFF7B4FF92
:1002F0008020CF4910310860FFF7AEFF00BD00B588
:100300004020CB4914310860FFF7A6FF8020C84980
:1003100014310860FFF7A0FF4020C5491031086084
:10032000FFF79AFF4020C24914310860FFF794FF9D
:1003300000BD00B54020BE4914310860FFF78CFFB6
:100340008020BB4910310860FFF786FF4020B84984
:1003500010310860FFF780FF4020B5491431086074
:10036000FFF77AFF00BD00B54020B14914310860A5
:10037000FFF772FF8020AE4910310860FFF76CFF75
:100380004020AB4910310860FFF766FFA8480830ED
:10039000006800F0800038B14020A54914310860A1
:1003A000FFF75AFF002000BD4020A149143108602A
:1003B000FFF752FF0120F6E700B5024608231BE0D5
:1003C00040209B4914310860FFF746FF02F080008F
:1003D00020B1802096491031086003E080209449C4
:1003E000143108605006020EFFF736FF4020904996
:1003F00010310860FFF730FF181EA3F10101CBB2E6
:10040000DED140208A491431086000BD00B50823C0
:100410000022802086491031086015E05006020E47
:100420004020834914310860FFF716FF40208049BF
:1004300010310860FFF710FF7D480830006800F0B9
:10044000800008B142F00102181EA3F10101CBB2F5
:10045000E4D14020764914310860104600BD70B5E3
:1004600006460C461546FFF705FF08B9002070BD8B
:100470003046FFF7A1FFFFF776FF18B9FFF725FF1A
:100480000020F4E72046FFF797FFFFF76CFF2846B0
:10049000FFF792FFFFF767FFFFF717FFFFF7E3FE96
:1004A0000120E4E770B504460D46FFF7E3FE08B906
:1004B000002070BD2046FFF77FFFFFF754FF30B9E3
:1004C000FFF703FF01205B4908700020F1E7284691
:1004D000FFF772FFFFF747FFFFF7CCFE611CC8B2C2
:1004E000FFF76AFFFFF73FFFFFF790FF0646FFF7B2
:1004F00020FFFFF7EAFE3046DBE710B500F02AFAEE
:100500004FF4803000F046FA00F083FA4A49087050
:1005100008460078012826D1002000F0C0FA00200B
:1005200000F0CFFA4FF4806000F0C2FA022001F030
:1005300047F8102001F058F84FF4E0114FF48030E4
:1005400000F090FA012000F099FA00BF392000F085
:1005500044FA0028FAD0022000F093FA00BF00F01D
:1005600099FA0828FBD101210C2000F061FB012140
:10057000302000F05DFB0121C02000F059FB01217B
:1005800040F2011000F054FB10BD08B501213C20E1
:1005900000F04EFB4FF40070ADF8000018208DF80D
:1005A000030003208DF802006946244800F0BAFEDB
:1005B0004FF48060ADF8000004208DF80300694618
:1005C0001E4800F0AFFE08BD00B587B001214FF412
:1005D000904000F02DFB0020ADF80400ADF80600BF
:1005E0004FF40070ADF808000020ADF80A0001A932
:1005F000134800F039FC4FF4E13003900020ADF8CF
:100600001000ADF81200ADF81400ADF818000C2081
:10061000ADF8160003A90A4800F0B1FB40F22551DD
:10062000074800F020FD012240F22551044809E06E
:10063000000C0140090000200400002000080140D7
:100640000038014000F033FC0121B14800F023FCE8
:1006500007B000BD08B54FF4E06000F095FD002044
:100660008DF800008DF80100684600F092FD08BD8D
:1006700010B50121C80200F0E8FA4FF4C07000F094
:100680004AFD412000F050FD502000F068FD00F0D0
:1006900071FD00F05AFD10BD01B502E00098401E4A
:1006A000009000980028F9D108BD01B509E00020AC
:1006B00000E0401C4CF250318842FAD30099491EA8
:1006C000009100990029F2D108BD10B5502000F02A
:1006D00040FD00F04FFD10BD10B5044621468C488A
:1006E00000F046FC0120FFF7E0FF10BD00B500223E
:1006F0006B21D020FFF7B3FE07221921D020FFF78E
:10070000AEFE06221A21D020FFF7A9FE18221B21D7
:10071000D020FFF7A4FE01221C21D020FFF79FFE6E
:1007200000BD2DE9F0474421D020FFF7BBFE7949F9
:1007300008704321D020FFF7B5FE7649487008467F
:100740000078497840EA012000B2734908800846E1
:10075000B0F9000001F0A5FC06464FF066326F4B81
:1007600001F018FB044601F06DFC00B26A490880F4
:100770004621D020FFF796FE664988704521D0209B
:10078000FFF790FE6349C87008468078C97840EA50
:10079000012000B2624908800846B0F9000001F06B
:1007A00080FC06464FF066325C4B01F0F3FA0446DB
:1007B00001F048FC00B25A4908804821D020FFF7D8
:1007C00071FE544908714721D020FFF76BFE514953
:1007D000487108460079497940EA012000B2514940
:1007E00008800846B0F9000001F05BFC06464FF0B7
:1007F00066324A4B01F0CEFA044601F023FC00B207
:10080000484908804221D020FFF74CFE41498871B9
:100810004121D020FFF746FE3E49C8710846807945
:10082000C97940EA012000B23F4908800846B0F982
:10083000000043F29031084401F033FC06460022E8
:100840003A4B01F0A7FA04460022394B01F0FAF9BD
:10085000804601F0F7FB00B233490880BDE8F0871D
:1008600070B505462846FFF737FF3A20FFF734FFFB
:10087000002405E02F49085DFFF72EFF601CC4B27D
:10088000042CF7DB2020FFF727FF2020FFF724FFB1
:1008900070BDFFF732FEFFF778FEFFF795FEFFF71A
:1008A000BFFC0A20FFF701FFFFF720FF2EE0FFF754
:1008B00038FF1948B0F900101E48FFF787FC582090
:1008C000FFF7CEFF1648B0F900101A48FFF77EFC7C
:1008D0005920FFF7C5FF1348B0F900101548FFF77E
:1008E00075FC5A20FFF7BCFF0F48B0F90010114803
:1008F000FFF76CFC5420FFF7B3FF0D20FFF7ECFE71
:100900000A20FFF7E9FE6420FFF7CFFECFE70000E3
:1009100000380140280000200A00002066663040B0
:100920000C0000200E00002010000020008071400C
:100930000080414005000020704700BFFEE700BF77
:10094000FEE700BFFEE700BFFEE770477047704755
:1009500070470000DF48006840F00100DD49086092
:1009600008464068DC490840DA49486008460068A3
:10097000DA490840D74908600846006820F480201A
:1009800008600846406820F4FE0048604FF41F00ED
:1009900088607047CF49096821F48031CD4A1160E1
:1009A0001146096821F480211160B0F5803F03D021
:1009B000B0F5802F0ED106E0C649096841F48031B8
:1009C000C44A116007E0C349096841F4A021C14A43
:1009D000116000E000BF00BF704710B50146002263
:1009E000002300204A11012A02D1BA4C236806E0F4
:1009F000022A02D1B74C236A01E0B64C636A01F0C7
:100A00001F02012494401C400CB1012000E0002092
:100A100010BD38B5002000900024002500BF312013
:100A2000FFF7DBFF05460098401C00900098B0F5EA
:100A3000A06F01D0002DF2D03120FFF7CEFF08B11A
:100A4000012400E00024204638BD01460020A14AD0
:100A5000106820F0F80040EAC10010607047A0491B
:100A600008607047024600209A4B586820F47C10BA
:100A700042EA01031843974B58607047984908664B
:100A8000704701460020934A506820F00300084355
:100A9000506070478F48406800F00C007047014676
:100AA00000208C4A506820F0F000084350607047E6
:100AB00001460020874A506820F4E06008435060F7
:100AC000704701460020834A506820F4605040EA95
:100AD000C1005060704729B17E4A527A02437D4B73
:100AE0005A7204E07B4A527A82437A4B5A727047B8
:100AF0007B49D8310860704701460020754A50682C
:100B000020F440400843506070470021714A203271
:100B10001170704A82F82010012802D004280AD1EE
:100B200004E001216B4A2032117005E00521694A79
:100B30002032117000E000BF00BF704769490860B3
:100B400070476449096A0143624A11627047654906
:100B500044390860704730B500210022002400238A
:100B60005C4D6D6805F00C0121B1042905D0082900
:100B700023D105E05C4D056022E05B4D05601FE080
:100B8000544D6D6805F47012524D6D6805F4803453
:100B9000022505EB92421CB9544D554305600BE00C
:100BA0004C4D6D6805F400351DB1504D5543056041
:100BB00002E04D4D5543056002E04B4D056000BF1E
:100BC00000BF444D6D6805F0F0010909484D6B5CAC
:100BD0000568DD4045603F4D6D6805F4E061090A38
:100BE000434D6B5C4568DD4085603A4D6D6805F4AA
:100BF0006051C90A3E4D6B5C4568DD40C560354DAE
:100C00006D6805F44041890B3A4D6B5CC568B5FBD6
:100C1000F3F5056130BD29B12E4A526902432D4BCF
:100C20005A6104E02B4A526982432A4B5A61704749
:100C300029B1284A92690243264B9A6104E0254A69
:100C400092698243234B9A61704729B1214AD26944
:100C50000243204BDA6104E01E4AD26982431D4BF5
:100C6000DA61704729B11B4AD2680243194BDA6036
:100C700004E0184AD2688243164BDA60704729B103
:100C8000144A12690243134B1A6104E0114A1269B3
:100C90008243104B1A61704712494039086070470F
:100CA0000F49C86470470B49C87170470948406ACA
:100CB00040F0807007494862704701460020054AAD
:100CC00092680A400AB1012000E000207047014903
:100CD00088727047001002400000FFF8FFFFF6FE28
:100CE000000042428004424200127A0000093D00A6
:100CF000120000202200002010B50446FB48844268
:100D000009D101218803FFF7ADFF00214FF4804096
:100D1000FFF7A8FF32E0F648844209D101214804D8
:100D2000FFF7ADFF00214FF40030FFF7A8FF25E0EB
:100D3000F048844209D101218804FFF7A0FF002177
:100D40004FF48020FFF79BFF18E0EB48844209D165
:100D50000121C804FFF793FF00214FF40020FFF7A3
:100D60008EFF0BE0E548844208D101210805FFF71A
:100D700086FF00214FF48010FFF781FF10BD2DE9A1
:100D8000F04786B005460E460024A24600BFA146A5
:100D90000027B08900B100BF2F462C8A4CF6FF70A7
:100DA0000440F08804432C82AC894EF6F3100440D2
:100DB000B08831890843718908430443AC81AC8A07
:100DC0004FF6FF400440B0890443AC8201A8FFF70E
:100DD000C2FEC648874202D1DDF810A001E0DDF86E
:100DE0000CA0A88900F4004040B10AEBCA0000EB57
:100DF0000A1031684900B0FBF1F807E00AEBCA00BD
:100E000000EB0A1031688900B0FBF1F86420B8FBF0
:100E1000F0F004012009642101FB1089A88900F485
:100E2000004040B1322000EBC900B0FBF1F000F00F
:100E30000700044308E0322000EB09106421B0FBF6
:100E4000F1F000F00F0004432C8106B0BDE8F087FC
:100E50004FF41651016000218180C18001810C2175
:100E6000418100218181704710B502460020108A1F
:100E70004FF2FF0318400B884C8823438C88234390
:100E8000CC8823431843108210BD0021018041808B
:100E90008180C180704721B1828942F400528281F1
:100EA00004E082894DF6FF731A4082817047F0B5E5
:100EB0000346002400260025002040F66A17B942A8
:100EC00000D100BF1846C1F3421401F01F060127EC
:100ED00007FA06F5012C01D10C3004E0022C01D1F7
:100EE000103000E014301AB107682F43076002E0A9
:100EF0000768AF430760F0BD1AB1838A0B43838252
:100F000002E0838A8B4383827047028A4FF6F07334
:100F10001A400282028A0A430282704782894FF293
:100F2000FF731A40828182890A438281704721B10E
:100F3000828942F00202828104E082894FF6FD73C9
:100F40001A4082817047028A4FF6DF731A4002828C
:100F5000028A0A430282704721B1028A42F4804227
:100F6000028204E0028A4BF6FF731A400282704745
:100F7000C1F308028280704701468888C0F30800E8
:100F80007047818941F0010181817047028BD2B2A3
:100F90000283028B42EA012202837047028B02F431
:100FA0007F420283028B0A430283704721B1828A07
:100FB00042F02002828204E0828A4FF6DF731A40F8
:100FC0008282704721B1828A42F01002828204E05C
:100FD000828A4FF6EF731A408282704721B1828A6B
:100FE00042F00802828204E0828A4FF6F7731A40C8
:100FF0008282704721B1828942F40042828103E0FB
:101000008289C2F30E028281704721B1828A42F442
:101010000062828204E0828A4FF2FF731A40828269
:101020007047828A4FF6FB731A408282828A0A4393
:101030008282704721B1828A42F00202828204E0F9
:10104000828A4FF6FD731A40828270470246002062
:10105000B1F5007F00D100BF13880B400BB1012018
:1010600000E00020704701F40072B2F5007F00D16B
:1010700000BFCA430280704770B5024600240023B7
:101080000025002040F66A16B14200D100BFC1F32E
:10109000421501F01F03012606FA03F3012D02D1C8
:1010A0009689334006E0022D02D1168A334001E0D2
:1010B000968A33400C12012606FA04F4168834404E
:1010C00013B10CB1012000E0002070BD10B500226A
:1010D000002340F66A14A14200D100BF0A12012485
:1010E0009440A3B2DC43048010BD000000380140EE
:1010F0000044004000480040004C004000500040C8
:1011000010B50121C802FFF7BAFD00214FF40060BD
:10111000FFF7B5FD10BD0021194A126822F4C07115
:101120000143174A1160704708B500210091144926
:10113000096821F07F01009100F07F01009A1143BE
:1011400000910F4A0099116008BD01200D49086007
:10115000704700F07F010A4A121F1160704740F08B
:101160008001074A121F116070470548001D006882
:10117000C0B2704700200249091D08607047000096
:10118000042C0040A480054231490143314A1160DA
:10119000704770B5002100230F22C47804B32D4C92
:1011A000246804F4E064C4F5E064210AC1F1040396
:1011B000CA40447804FA03F18478144021430901B9
:1011C000254C0678A155047804F01F050124AC4095
:1011D00005786D11AD0005F1E025C5F8004109E085
:1011E000047804F01F050124AC401C4D06787611EC
:1011F00045F8264070BD1A4A0A400243154B1B1F92
:101200001A60704739B1134A121D12680243114B1C
:101210001B1D1A6006E00F4A121D126882430D4B17
:101220001B1D1A607047042808D14FF0E02109699E
:1012300041F004014FF0E022116107E04FF0E0219E
:10124000096921F004014FF0E022116170470000AC
:101250000000FA050CED00E000E400E080E100E0B1
:1012600080FFFF1F10B50446CC48844208D10121FD
:101270000420FFF7F7FC00210420FFF7F3FC46E011
:10128000C748844208D101210820FFF7EBFC002168
:101290000820FFF7E7FC3AE0C248844208D1012168
:1012A0001020FFF7DFFC00211020FFF7DBFC2EE011
:1012B000BD48844208D101212020FFF7D3FC002142
:1012C0002020FFF7CFFC22E0B848844208D101215A
:1012D0004020FFF7C7FC00214020FFF7C3FC16E0C9
:1012E000B348844208D101218020FFF7BBFC0021D4
:1012F0008020FFF7B7FC0AE0AE48844207D1012105
:101300008015FFF7AFFC0021A015FFF7ABFC10BD67
:1013100010B501210846FFF7A5FC00210120FFF7C9
:10132000A1FC10BD2DE9F041024600250026002059
:1013300000230024002791F803C00CF00F0591F85A
:1013400003C00CF0100CBCF1000F03D091F802C0E8
:101350004CEA050591F800C0BCF1000F31D01468CB
:1013600000202BE04FF0010C0CFA00F3B1F800C0A4
:101370000CEA03069E4220D183004FF00F0C0CFABA
:1013800003F7BC4305FA03FC4CEA040491F803C0DC
:10139000BCF1280F06D14FF0010C0CFA00FCC2F88A
:1013A00014C00AE091F803C0BCF1480F05D14FF01A
:1013B000010C0CFA00FCC2F810C0401C0828D1D364
:1013C0001460B1F800C0BCF1FF0F34DD5468002098
:1013D0002EE000F1080C4FF0010808FA0CF3B1F808
:1013E00000C00CEA03069E4221D183004FF00F0C8F
:1013F0000CFA03F7BC4305FA03FC4CEA040491F829
:1014000003C0BCF1280F05D100F1080C08FA0CF854
:10141000C2F8148091F803C0BCF1480F07D100F165
:10142000080C4FF0010808FA0CF8C2F81080401CB4
:101430000828CED35460BDE8F0814FF6FF710180DB
:10144000022181700421C170704702460020936818
:101450000B400BB1012000E0002070470146886876
:1014600080B2704702460020D3680B400BB10120C8
:1014700000E0002070470146C86880B270470161F3
:101480007047416170470AB1016100E041617047F6
:10149000C16070474FF480320A438261816182618A
:1014A00082698269704702460020434B18684FF6F4
:1014B0008073184040EA021008433F4B18607047A1
:1014C0003E49C8617047F0B50A4600230024002158
:1014D000002500F00046B6F1004F02D1364EF1690A
:1014E00001E0354E7168C0F3034583B200F4401645
:1014F000B6F5401F08D121F070612F4E766826F0B6
:1015000070662D4F7E6012E000F48016B6F5801FE5
:1015100006D1032606FA05F4A14341F0706106E006
:10152000460D360103FA06F6B14341F0706122B16F
:10153000460D360103FA06F6314300F00046B6F1D7
:10154000004F02D11C4EF16101E01B4E7160F0BDF5
:1015500030B500228B071C0F0F2303FA04F2164B41
:1015600008338C1053F824309343134C08348D10F7
:1015700044F8253023468C1053F824308C07240F70
:1015800000FA04F423430C4C08348D1044F8253041
:1015900030BD0A49DC310860704700000008014096
:1015A000000C0140001001400014014000180140EF
:1015B000001C0140002001400000014000002042CA
:1015C00001460020FE4A106800F038000843106011
:1015D0007047FB49096821F00801F94A116011467A
:1015E0000968014311607047F549096821F010014D
:1015F000F34A116011460968014311607047F148D0
:10160000EF494860F04848607047EE48EC49486050
:10161000ED4848607047EA48006940F08000E849BA
:1016200008617047E648006940F08000E4490861BD
:1016300070470420E249C96801F0010109B10120A5
:101640000EE0DF49C96801F0040109B1022007E09A
:10165000DB49C96801F0100109B1032000E0042052
:10166000704700B502460423FFF7E3FF034603E09B
:10167000FFF7DFFF0346521E012B01D1002AF7D1ED
:1016800002B90523184600BD30B5044604254FF4C1
:101690003020FFF7E6FF0546042D17D1C848006942
:1016A00040F00200C649086108464461006940F004
:1016B000400008614FF43020FFF7D3FF0546C048D3
:1016C000006941F6FD710840BD490861284630BDFA
:1016D00010B504244FF43020FFF7C3FF0446042C58
:1016E00016D1B748006940F00400B54908610846C2
:1016F000006940F0400008614FF43020FFF7B1FF6F
:101700000446AF48006941F6FB710840AC490861E6
:10171000204610BD00B502460423FFF78AFF0346AA
:1017200003E0FFF786FF0346521E012B01D1002A7A
:10173000F7D102B90523184600BD10B504244FF4B3
:101740003020FFF7E7FF0446042C16D19C480069BF
:1017500040F004009A4908610846006940F04000E2
:1017600008614FF43020FFF7D5FF04469448006924
:1017700041F6FB71084092490861204610BD0020E7
:101780008F49C96901F0020109B1012000E0002080
:10179000704730B5A5250424FFF7F1FF00B10025FF
:1017A0004FF43020FFF75DFF0446042C3AD1854802
:1017B00083498860844888600846006940F02000BA
:1017C00008610846006940F0400008614FF430208D
:1017D000FFF747FF0446042C1BD17948006941F606
:1017E000DF710840764908610846006940F0100042
:1017F000086176480580E002FFF733FF0446052CB8
:1018000010D06F48006941F6EF7108406C490861DB
:1018100008E0052C06D06A48006941F6EF710840DF
:1018200067490861204630BD78B506460C46042558
:1018300000200090E802FFF714FF0546042D24D194
:101840005F48006940F001005D4908613480E802AA
:10185000FFF707FF0546042D10D1B01C0090200CA7
:1018600000990880E802FFF7FCFE0546544800692D
:1018700041F6FE7108405249086106E0504800698F
:1018800041F6FE7108404E490861284678BD70B5A2
:1018900004460D460426F002FFF7E3FE0646042E3A
:1018A00011D14748006940F0010045490861258091
:1018B000F002FFF7D6FE06464148006941F6FE7188
:1018C00008403F490861304670BD70B505460E4678
:1018D0000424E002FFF7C5FE0446042C17D1394862
:1018E00037498860384888600846006940F0100031
:1018F00008612E80E002FFF7B4FE0446052C06D0F6
:101900002F48006941F6EF7108402D4908612046D3
:1019100070BD2DE9F04304464FF6FF763746B046DA
:10192000B1460425E443E6B2C4F30727C4F30748ED
:101930004FEA1469E802FFF794FE0546042D49D1E9
:1019400020481F498860204888600846006940F0A8
:1019500010000861FF2E06D01C4808300680E802FF
:10196000FFF77FFE0546042D08D1FF2F06D017484C
:101970000A300780E802FFF774FE0546042D0AD1FD
:10198000B8F1FF0F07D011480C30A0F80080E80232
:10199000FFF767FE0546042D0AD1B9F1FF0F07D006
:1019A0000A480E30A0F80090E802FFF75AFE0546FC
:1019B000052D0FD00248006941F6EF71084007E09D
:1019C0000020024023016745AB89EFCD00F8FF1FDF
:1019D000664908612846BDE8F08330B50546042411
:1019E0004FF43020FFF73DFE0446042C41D16048FF
:1019F0005E4988605F4888600846006940F02000C2
:101A000008610846006940F0400008614FF430204A
:101A1000FFF727FE0446042C22D15448006941F602
:101A2000DF710840514908610846006940F0100024
:101A300008611DB100205049088002E0A5204E49F0
:101A400008804FF43020FFF70CFE0446052C10D020
:101A50004648006941F6EF7108404449086108E0D2
:101A6000052C06D04148006941F6DF7108403F4926
:101A70000861204630BDF0B505460E4617460424E1
:101A80003B483A4988603B488860E002FFF7E9FD3F
:101A90000446042C19D13548006940F01000334940
:101AA000086147F0F800304328433349891C088017
:101AB000E002FFF7D6FD0446052C06D02B4800694E
:101AC00041F6EF710840294908612046F0BD2748DA
:101AD000C069800870472548006A70470020234984
:101AE000096801F0200109B1012000E000207047E1
:101AF00029B11E4A126902431C4B1A6104E01B4AB9
:101B000012698243194B1A6170470146002001296E
:101B100008D1164AD26902F001020AB1012008E098
:101B2000002006E0114AD2680A400AB1012000E014
:101B3000002070470D49C860704704200B49C968F0
:101B400001F0010109B101200EE00849C96801F066
:101B5000040109B1022007E00449C96801F010013D
:101B600009B1032000E0042070470000002002407B
:101B700023016745AB89EFCD00F8FF1F70470B4885
:101B800080470B4981F308880A480047FEE7FEE7D3
:101B9000FEE7FEE7FEE7FEE7FEE7FEE7FEE7FEE71D
:101BA00005480649064A074B704700007D1B0008A0
:101BB00098060020310100089800002098060020B7
:101BC00098020020980200207047704770477546C1
:101BD00000F02CF8AE4605006946534620F0070099
:101BE000854618B020B5FFF7DBFFBDE820404FF079
:101BF00000064FF000074FF000084FF0000B21F0F7
:101C00000701AC46ACE8C009ACE8C009ACE8C009C3
:101C1000ACE8C0098D46704710B50446AFF30080AC
:101C20002046BDE81040FEF7CABA000000487047E1
:101C30003400002001491820ABBEFEE72600020058
:101C40007047000010B591EA030F48BF83F00043CE
:101C500000F19A82841A71EB030C05D2121943EB3E
:101C60000C03001B61EB0C01DFF824E14FEA115477
:101C7000A4EB135C1EEA430F18BF9EEA445F73D0C7
:101C800023EA0E03DCF1200E21EA045143F4801311
:101C900032D322FA0CFE10EB0E0023FA0CFE41EBBD
:101CA0000E01CCF1200E03FA0EFE10EB0E0051F1E6
:101CB0000001B1F5801FCCF1200E32D201EB0451AE
:101CC00012FA0EF2BDE8104058BF7047401C38BFF2
:101CD0005FEA420218BF7047002814BF20F00100DD
:101CE00041F100014FEA410313F5001F38BF70476F
:101CF000A1F1C04100F03ABA012A43EB0302ACF172
:101D0000200CDCF11F0E32BF4FF0000E23FA0CF353
:101D100010EB030041EB0451B4EB115FD0D0A1EB09
:101D2000045101F5801149085FEA300001EB0451CC
:101D30000ED350F1000038BF12FA0EFE08D1BDE8F4
:101D40001040C9E7401C38BF5FEA4202CAD1C3E76E
:101D5000BDE810404FEA410313F5001F38BF70473C
:101D6000A1F1C04100F002BA9EEA445F08D011EA36
:101D70005E0FBDE8104004BF01F000410020704735
:101D8000BDE8104070B500F0A3F900BF64FBBE3E93
:101D90000000E0FF2DE9C04130B4DFF8A0C23CEA0A
:101DA000111418BF3CEA131400F0EC8081EA03051B
:101DB0001CEA111444EAD57418BF1CEA131500F08C
:101DC000C780A4EB05044FF0004545EAC12145EA70
:101DD000C32341EA505143EA525304F17F749942BC
:101DE00004F500344FEAC0204FEAC22208BF9042F7
:101DF00000F09C804FEA13650FF24016765D4FEAC3
:101E0000134506FB05F7C7F1807706FB07F74FEA96
:101E1000D737A7FB03687642C8F58038A7FB06CE04
:101E200038BFA8F1010807FB08E64FF0000EA6FB3B
:101E3000028CE6FB03CEDCF1000CCEF1004E38BF85
:101E4000AEF1010EA6FB0C584FF000074FF0000555
:101E5000E6FB0E87A1FB08C6A0FB07CE16EB0E061D
:101E600045F10005E1FB076515F1E04E7EBFA4F5E5
:101E700080345FEA46066D4116F1800745F10005A2
:101E80004FEA17274FEA066647EA0567A6F1DE46DE
:101E9000B6F1805F4FEA15251FD9384624F0010CB2
:101EA00005EBC471BCF1FE6F01EB0C1102D8F0BC64
:101EB000BDE8008124425CBF01F5801E9EEAC47F1C
:101EC00002D4F0BCBDE80081244238D4F0BCA1F1BA
:101ED000C041BDE8004100F049B94FEAD22242EAD0
:101EE00043524FEAD323A7FB02864FEAD02040EAB1
:101EF000415007FB03661EEA0E0F4FEAD12105FB96
:101F0000026658BFA6EB0056B6EB00564FEA520EDB
:101F10004EEAC37E18EB0E0E56EB530EBDD518EBF2
:101F200002085E417F1C55F10005B6E74FF48015AD
:101F30004FF000074FF000064FF00008ADE7F0BC8F
:101F40004FF0000001F1C04101F00041BDE8008107
:101F500011EA0C1F0CEA131500D00CE013EA0C1F59
:101F600000F025804FF00000F0BC81EA030101F091
:101F70000041BDE80081F0BCBDE8004181EA0301F9
:101F800000F0F4B8F0BCBDE8004170B500F0A0F876
:101F9000097EFC3E00F007B881EA03014FF0000023
:101FA00001F00041704781EA030100F0DFB8F0BCA6
:101FB000BDE800414FF0000021497047FFFDFBF9EB
:101FC000F7F5F4F2F0EEEDEBE9E8E6E4E3E1E0DE6C
:101FD000DDDBDAD8D7D5D4D3D1D0CFCDCCCBCAC8DE
:101FE000C7C6C5C4C2C1C0BFBEBDBCBBBAB9B8B705
:101FF000B6B5B4B3B2B1B0AFAEADACABAAA9A8A8F8
:10200000A7A6A5A4A3A3A2A1A09F9F9E9D9C9C9BC5
:102010009A99999897979695959493939291919070
:102020008F8F8E8E8D8C8C8B8B8A89898888878701
:102030008685858484838382828181800000FF0776
:102040000000F87F4FEA41034FEA5353A3F5806342
:10205000D3F11E03C8BFD3F1210C0CDD4FF00042B9
:1020600042EAC12242EA505232FA03FC8CEAE17C95
:10207000ACEBE1707047102BC4BF0020704703F534
:10208000787CBCF1FF3F04D06FF0004282EA21006F
:10209000704770B500F01CF849922480002070470A
:1020A000F2E710F0004248BF4042B0FA80F310FA65
:1020B00003F10AD0C3F11D0303F580634FEA4150D9
:1020C00002EB035202EBD12170474FF00000704742
:1020D0000EF1020E2EF0030E5EF8046B364205D4AC
:1020E000012A43EB030515F5001F12D8012841EB27
:1020F000010C1CF5001F0CD80ED14FEAD17C15F550
:10210000001F0CEB4C0C0CF1020C08BF4CEBD37C09
:1021100004E04FF0080C01E04FEAD37C0CEB4C05D7
:1021200026FA05F606F00706B6F1040C06D20EEB09
:10213000860CBDE870404CF0010C6047DFE80CF005
:10214000090B02024FF000414FF00000A1F5002101
:1021500070BD19461046012851EB010418BFD4F593
:10216000001484BF002001F0004170BD0808A0F5F4
:1021700000114FEA3101704710B591EA030F48BFD3
:1021800083F000433FF566AD841A71EB030C07D270
:1021900012198CF0004C43EB0C03001B61EB0C019B
:1021A000DFF8A4E14FEA1154A4EB135C1EEA430FDD
:1021B00018BF9EEA445F00F0B08023EA6E035242EB
:1021C00021EA0451C3EB6E0338BF5B1EDCF1200E25
:1021D00025D322FA0CFE10EB0E0043FA0CFE41EB65
:1021E0000E01CCF1200E03FA0EFE10EB0E0051F1A1
:1021F0000001CCF1200E29D412FA0EF201EB0451A9
:10220000BDE8104058BF7047401C1CBFB2F1004FE2
:10221000704700280CBF491C20F00100704712EBEA
:10222000020E43EB030218BF4FF0010E4EEA4202CA
:10223000ACF1200CDCF11E0E54D943FA0CFE10EB6D
:102240000E0051F1FF31CCF11E0ED5D50EF1010E6D
:1022500012FA0EFE404141EB010101EB445C5FEAE2
:102260005C5C10D910EBDE7001EB045138BFBEF19D
:10227000004FBDE8104018BF704700280CBF491C34
:1022800020F00100704730D24FEAD42C11F5001134
:1022900024F400641BD0B1FA81F20B3AA41AA41EF4
:1022A000D2F12003914030FA03F31943904001EB3F
:1022B000CC71002C01EB0451BDE81040A8BF704761
:1022C00001F1C0414FF0000001F000417047B0FA49
:1022D00080F310FA03F100D110BDE41A173C480551
:1022E000C90AE4E701EB045110BD491001EB0451A8
:1022F000BDE810404FEA300002E04FF000017047A7
:102300004A0008BF0042F8D0B2F5001F28BF70474E
:1023100001F000414FF0000070479EEA445F07D093
:1023200011EA5E0FBDE8104004BF00210020704795
:10233000BDE8104070B5FFF7CBFE00BF40DFF63EB2
:1023400083F00041104670470000E0FF6C23000856
:1023500000000020280000006C0100089423000801
:10236000280000207006000088010008000000001E
:10237000000000000000000000000000000000005D
:102380000000010203040102030406070809020415
:04239000060800003B
:0400000508000131BD
:00000001FF
