:020000040800F2
:10000000280700204D0200085F2400084B19000853
:100010005D24000837040008713A00080000000061
:100020000000000000000000000000009D26000805
:100030002105000800000000812400080D280008A8
:1000400067020008670200086702000867020008EC
:1000500067020008670200086702000867020008DC
:1000600067020008670200086702000867020008CC
:1000700067020008670200086702000867020008BC
:1000800067020008670200086702000867020008AC
:10009000670200086702000867020008670200089C
:1000A000670200086702000867020008670200088C
:1000B000670200086702000867020008670200087C
:1000C000670200086702000867020008670200086C
:1000D000670200086702000867020008670200085C
:1000E000670200086702000867020008670200084C
:1000F000670200086702000867020008670200083C
:10010000670200086702000867020008670200082B
:10011000670200086702000867020008670200081B
:10012000670200086702000867020008670200080B
:1001300067020008670200086702000867020008FB
:1001400067020008670200086702000867020008EB
:1001500067020008670200086702000867020008DB
:1001600067020008670200086702000867020008CB
:10017000670200086702000867020008000000002C
:1001800067020008670200086702000867020008AB
:10019000670200086702000867020008670200089B
:1001A00067020008670200086702000800F002F812
:1001B00000F03CF80AA090E8000C82448344AAF1C5
:1001C0000107DA4501D100F031F8AFF2090EBAE8C3
:1001D0000F0013F0010F18BFFB1A43F0010318477B
:1001E0002865000048650000103A24BF78C878C12F
:1001F000FAD8520724BF30C830C144BF04680C602D
:10020000704700000023002400250026103A28BF74
:1002100078C1FBD8520728BF30C148BF0B60704778
:100220001FB504F0A8F81FBD10B510BD00F064F8AC
:100230001146FFF7F5FF03F019FD00F082F803B453
:10024000FFF7F2FF03BC00F083F800000948804785
:1002500009480047FEE7FEE7FEE7FEE7FEE7FEE7A8
:10026000FEE7FEE7FEE7FEE704480549054A064BC0
:100270007047000011280008AD0100082801002087
:1002800028070020280300202803002010B5431C65
:1002900002E010F8011B71B18107FAD14FF0013271
:1002A00002C88C1A8C4314EAC211F9D0C01A0A068B
:1002B00003D0C01E10BDC01A10BD0A0401D0801E9C
:1002C00010BD0902FCD0401E10BD7047704770473A
:1002D00010B500F009F8006810BD10B5044600F034
:1002E00003F8046010BD000000487047C4000020FF
:1002F00000487047C40000207546FFF7F9FFAE467E
:1003000005006946534620F00700854618B020B521
:10031000FFF7AAFFBDE820404FF000064FF00007AE
:100320004FF000084FF0000B21F00701AC46ACE89D
:10033000C009ACE8C009ACE8C009ACE8C0098D460A
:1003400070470446AFF300802046FFF778FF0000B7
:1003500001491820ABBEFEE726000200704701F0FD
:1003600015BB2DE9F0410D460146002004464E190B
:1003700008E00702301B401E80B200F007F8641C42
:100380003844E4B2AC42F4D3BDE8F08110B5044681
:1003900001F0A4FB200AA02101EB4000C0B201F053
:1003A0006DFB01F0DBFBE0B201F068FB01F0D6FB76
:1003B00001F094FBA12001F061FB01F0CFFB0020D4
:1003C00001F028FB044601F0A9FB204610BD2DE9F1
:1003D000F04116460D460746002409E0E00025FAE4
:1003E00000F0C1B2381980B200F006F8641CE4B223
:1003F000B442F3D3BDE8F08170B50D46044601F078
:100400006DFB200AA02101EB4000C0B201F036FBD9
:1004100001F0A4FBE0B201F031FB01F09FFB2846A4
:1004200001F02CFB01F09AFB01F078FBBDE8704075
:100430000A2003F0B1BBFEE7FEB51BA000F072F886
:10044000002510241DA08DE831004FF6E0763346DC
:100450001F221E210A2002F023F921A08DE831007D
:1004600033461F2232210A2002F01AF9182022A155
:10047000CDE90010012433461F22029446210A20B0
:1004800002F00EF9202022A1CDE9001033461F22F0
:10049000029464210A2002F003F9BDE8FE404FF403
:1004A000966003F079BB0000B2E2CAD4363AD6D0E7
:1004B000CEC4CFD4CABEB2E2CAD40000313658315D
:1004C000363AC8ABB6AFB5E7D7D3BCBCCAF5D3D0C4
:1004D000CFDEB9ABCBBEBBB6D3ADC4FA00000000D3
:1004E00031365831363A57656C636F6D65C8ABB6B7
:1004F000AFB5E7D7D300000032345832343AC9EEF2
:10050000DBDACAD0D6D0CEC4B2E2CAD40000000032
:1005100033325833323AD7D6CCE5B2E2CAD40000EF
:10052000704700002DE9FE4380464FF6FF752846D0
:1005300001F0EAFB164C1F260096002122881423A6
:10054000084601F08FFC009663882288A3F114000E
:1005500081B2002001F086FC0E480126102705809C
:10056000CDF80080CDE901761F232A460221002024
:1005700000F056FB08A0CDE90007029660881F2313
:10058000123881B22A46002000F04AFBBDE8FE8303
:100590005C00002028000020687474703A2F2F77C8
:1005A00077772E6C636477696B692E636F6D0000DB
:1005B0002DE9F0479846DDE9085491460E46074676
:1005C00001F0DAFB23462A464146484601F0D4FBB7
:1005D00033463A4621462846BDE8F04701F0CCBBF9
:1005E000FEB524A0FFF79EFF0C2527A0CDE900054E
:1005F00000244FF6E0773B461F221E2102940A207A
:1006000002F04EF801262BA08DE861003B461F2228
:100610002D210A2002F044F831A0CDE900053B4627
:100620001F223C2102940A2002F03AF8102534A03F
:10063000CDE900053B461F22502102940A2002F01A
:100640002FF83AA08DE861003B461F2264210A2062
:1006500002F026F840A0CDE900053B461F22782194
:1006600002940A2002F01CF8BDE8FE404FF49660A8
:1006700003F092BAB2E2CAD4353AD3A2CEC4CFD4F0
:10068000CABEB2E2CAD40000365831323A6162635F
:100690006465666768696A6B6C6D6E6F70717273A2
:1006A0007475767778797A30313233343536373835
:1006B00039000000365831323A41424344454647FA
:1006C00048494A4B4C4D4E4F505152535455565732
:1006D00058595A3031323334353637383900000002
:1006E000365831323A7E21402324255E262A282995
:1006F0005F2B7B7D3A3C3E3F2F7C2D2B2E00000054
:10070000385831363A6162636465666768696A6B56
:100710006C6D6E6F707172737475767778797A30EC
:1007200031323334353637383900000038583136F5
:100730003A4142434445464748494A4B4C4D4E4F47
:10074000505152535455565758595A303132333408
:100750003536373839000000385831363A7E214076
:100760002324255E262A28295F2B7B7D3A3C3E3FA9
:100770002F7C2D2B2E0000002DE9FF4F87B0002786
:10078000DDE91423BDF82840B846A14208D90D463A
:1007900021460446BDF82400ADF82850ADF82440A9
:1007A000BDF828509CB2A54207D9ADF828401446A0
:1007B000BDF824202B46ADF82440BDF82840A142C6
:1007C00008D90D4621460446BDF82400ADF828504E
:1007D000ADF824401FFA83F90E46494521D1BDF8F2
:1007E0002410ADF80400814201D2084602E001D98C
:1007F000ADF8041091B2814201D2084605E0BDF87F
:100800000420914201D9ADF804103C493346BDF8AB
:10081000042009880091194601F024FB0BB0BDE8C3
:10082000F08FBDF824300546581BBDF828100690FF
:10083000881B92B20590D01A0290A9EB0100A2EB9E
:10084000050AA9EB060B0490494501D1039102E08A
:10085000491E88B2039034461FE098FBFBF10598CF
:10086000294497FBF0F01FFA81FCADF804C028443E
:10087000069980B20F44D044604503D901466046D2
:10088000ADF804101D492346BDF8042009880091E5
:10089000194601F0E7FA641CA4B203988442DCD93B
:1008A000BDF82800271A02984743A61B06FB0AF644
:1008B00021E00498BDF8241097FBF0F0084496FB63
:1008C000FBF129441FFA81FC029980B2ADF804C003
:1008D0000F445644604503D901466046ADF8041004
:1008E00006492346BDF8042009880091194601F005
:1008F000B9FA641CA4B24C45DBD98FE7280000206C
:100900002DE9FF4F83B0054682463E2089464FF0D1
:1009100000084FF0800B01903049109A08EB081046
:1009200011F81030127893423CD101EB4000009056
:10093000417810984078814234D109F10F0083B298
:1009400005F10F0082B24946284601F0CDFB002692
:10095000009800248719119890B1214905980880C2
:10096000B9782BFA04F0014203D04946284601F039
:100970004FFA6D1CADB2A5EB0A00102827D009E094
:10098000B9782BFA04F0014201D0059800E00698EE
:1009900001F052FD641CE4B2082CDCD3761CF6B2E4
:1009A000202ED5D308F1010001991FFA80F888455F
:1009B000B2D30C494888401E83B2088807B0401E55
:1009C000BDE8F04F82B20021084601F08DBB09F16D
:1009D000010055461FFA80F9E0E70000E44D0008E9
:1009E000280000205C0000202DE9FF4F83B0054661
:1009F0008246072001900020894680464FF0800BF8
:100A000000EB800101EB48102F49109A11F81030CB
:100A1000127893423CD101EB40000090417810984D
:100A20004078814234D109F1170083B205F11700F3
:100A300082B24946284601F057FB00260098002460
:100A40008719119890B1214905980880B9782BFA37
:100A500004F0014203D04946284601F0D9F96D1C43
:100A6000ADB2A5EB0A00182827D009E0B9782BFA17
:100A700004F0014201D0059800E0069801F0DCFC8A
:100A8000641CE4B2082CDCD3761CF6B2482ED5D315
:100A900008F1010080B2019980468842B0D30C4928
:100AA0004888401E83B2088807B0401EBDE8F04F5A
:100AB00082B20021084601F017BB09F1010055463A
:100AC0001FFA80F9E0E70000205600082800002007
:100AD0005C0000202DE9FF4F83B0054682460420CC
:100AE00089464FF000084FF0800B01903049109A72
:100AF00008EB881011F81030127893423CD101EBCA
:100B000040000090417810984078814234D109F13A
:100B10001F0083B205F11F0082B24946284601F04A
:100B2000E3FA0026009800248719119890B1214912
:100B300005980880B9782BFA04F0014203D04946A1
:100B4000284601F065F96D1CADB2A5EB0A0020281E
:100B500027D009E0B9782BFA04F0014201D00598BA
:100B600000E0069801F068FC641CE4B2082CDCD3B9
:100B7000761CF6B2802ED5D308F1010001991FFA38
:100B800080F88845B2D30C494888401E83B2088853
:100B900007B0401EBDE8F04F82B20021084601F0C8
:100BA000A3BA09F1010055461FFA80F9E0E70000F9
:100BB00026580008280000205C00002010B51446CC
:100BC00001F08EFA2046BDE8104001F035BC00006F
:100BD00070B5154601F1270293B200F1270292B2D7
:100BE00001F082FA00244FF4C86605EB440115F8C1
:100BF0001400497840EA012001F01EFC641CB44254
:100C0000F3DB064841880088491E401EBDE870405D
:100C10008BB282B20021084601F066BA5C00002067
:100C20002DE9FE431F46DDE90A46904689462046E7
:100C30000C9DFFF72BFB0A4980B240420988CDE9A1
:100C4000004601EBC00000EBD070C0F34F003B4604
:100C500042464946029501F023FDBDE8FE830000AF
:100C60005C0000202DE9F84FDFF8A091002209F187
:100C7000040A0AF1040B4FF00F080BF1040E0126D1
:100C80000B6896403340B34271D14C68022C01D0BE
:100C9000122C11D1D40800EB84073D6A5407E40EEE
:100CA00008FA04FC25EA0C05D1F810C00CFA04FC83
:100CB0004CEA050CC7F820C007685400032591F8DA
:100CC00004C0A5400CF0030CAF430CFA04FC4CEA42
:100CD000070CC0F800C04F68012F05D0022F03D0C9
:100CE000112F01D0122F11D18768D1F80CC0AF435A
:100CF0000CFA04FC4CEA070CC0F808C04768B7437C
:100D00000E79C6F3001696403E434660C668AE4371
:100D10008D68A5403543C5604C68E4006FD53C4CF8
:100D2000256845F480452560246822F0030504F415
:100D300080440094374C2E19D6F808789407250F74
:100D400008FA05F4A743344CA04201D100242EE058
:100D5000324CA04201D1012429E0314CA04201D102
:100D6000022424E02F4CA04202D103241FE046E0DD
:100D70002D4CA04201D1042419E02C4CA04201D1F9
:100D8000052414E02A4CA04201D106240FE0294C8E
:100D9000A04201D107240AE0274CA04201D1082437
:100DA00005E0264CA04201D1092400E00A24AC4011
:100DB0003C43C6F80848D9F800404D464E689C436D
:100DC000F60300D51C432C60DAF8004055464E6807
:100DD0009C43B60300D51C432C60DBF800405D4605
:100DE0004E689C43F60200D51C432C60DEF80040A0
:100DF00075464E689C43B60200D51C432C60521CBD
:100E0000102AFFF43CAFBDE8F88F0000003C014021
:100E1000443802400030014000000240000402401B
:100E200000080240000C0240001002400014024082
:100E300000180240001C0240002002400024024032
:100E40000069084000D0012070470AB181617047F5
:100E50000904FBE7014800687047000020000020FB
:100E600002480168491C0160704700002000002012
:100E70000B4810B5016841F400710160016841F44C
:100E800080610160016841F480710160052000F01B
:100E90003FF80F2000F006F800F015F8002010BD14
:100EA000003C024010B5044600F08CF94FF47A7112
:100EB000B0FBF1F000F035FD00222146501E00F09D
:100EC00007F8002010BD08B50020009008BD000004
:100ED000F0B40E4B1B68C3F30223C3F10704042CC8
:100EE00000D904241D1D072D01D2002300E0DB1EC4
:100EF000012606FA04F56D1E0D409D409E40761EAB
:100F0000164045EA0601F0BC01F0AABA0CED00E07B
:100F1000064A00F0070110684FF6FF03184040EA48
:100F20000120034908431060704700000CED00E009
:100F30000000FA052DE9F8431D48016841F0805191
:100F400001600068012700F080500090380490FA9A
:100F5000A0F0DFF86080B0FA80F048F82070FFF76A
:100F600079FF04464FF47A75134E04E0FFF772FFE1
:100F7000001BA84213D87068C003F7D54FF40030A7
:100F800090FAA0F0B0FA80F048F82070FFF762FF06
:100F9000044607E0FFF75EFF001BA84202D90320CA
:100FA000BDE8F88370688003F4D50020F8E70000FE
:100FB0004038024000000E42007000402DE9F05F12
:100FC000DFF8F8A104460F46DAF80000DFF8F081F8
:100FD00000F00F02C8B27A49814641F2883608F122
:100FE0000808BA4261D202468AF80020DAF8000006
:100FF00000F00F00B8427DD12078800707D5D8F8DF
:101000000020A36822F0F0021A43C8F800202078DC
:10101000C0072DD0606801281AD002281BD00328F1
:1010200019D009688907002964DAD8F80010474602
:1010300021F003010143C8F80010FFF70BFF05463C
:10104000606801280FD0022818D003281CD027E0A0
:1010500009688903E7E709688901E4E7FFF7FAFE11
:10106000401BB04258D83868C0F381000128F5D140
:1010700088E0FFF7EFFE401BB0424DD83868C0F360
:1010800081000228F5D17DE03868FFF7E3FE401BC0
:10109000B042F9D940E0FFF7DDFE401BB0423BD83B
:1010A000386810F00C0FF6D16CE02078800707D577
:1010B000D8F80020A36822F0F0021A43C8F80020F4
:1010C0002078C0074CD06068012828D0022829D099
:1010D000032827D009688907002949DAD8F80020B1
:1010E00022F003020243C8F80020FFF7B3FE0546D2
:1010F000606800E03CE001281DD0022829D00328C8
:1011000038D0B3464646306810F00C0F28D0FFF7B1
:10111000A1FE411B5945F6D90320BDE8F09F09689F
:101120008903D9E709688901D6E7FFF793FE411BD8
:10113000594502D9F0E7B34646463068C0F381000E
:101140000128F2D10CE0FFF785FE411B594502D979
:10115000E2E7B34646463068C0F381000228F2D188
:101160008AF80090DAF8000000F00F00B84209D0C9
:101170000120D2E744462068FFF76CFE401BB042D6
:10118000F9D9C9E72078400707D5D8F80010E268F8
:1011900021F4E0511143C8F800102078000708D569
:1011A000D8F80010226921F4604141EAC201C8F870
:1011B00000100F20FFF776FE0020AEE7003C024053
:1011C0000038024010B500F017F808490968F0220D
:1011D00092FAA2F201F0F001B2FA82F2D140044A8E
:1011E000515CC8400349086010BD00000838024047
:1011F000C06600080C00002030B51948006810F0E7
:101200000C01184812D0184C04290ED008290DD111
:10121000134A121F1168136801F03F015D0247F67F
:10122000C07304D5B4FBF1F003E0204630BDB0FB41
:10123000F1F01168194093FAA3F3B3FA83F3D9409C
:10124000484311684FF4403292FAA2F201F440315F
:10125000B2FA82F2D140491C4900B0FBF1F030BD36
:10126000083802400024F40040787D012DE9F84F51
:1012700004460078DFF8FCA2BF4DC0074FF000061F
:1012800048D0DAF800105046C1F38101012908D096
:101290000068C0F3810002280AD1281D00684002BE
:1012A00006D52868800335D56068002873D031E002
:1012B000DFF8C49209F1020989F80060FFF7CAFD5E
:1012C000074641F2883804E0FFF7C4FDC11B4145E1
:1012D0007AD828688003F7D4207989F800006068FC
:1012E00060B1FFF7B7FD074604E0FFF7B3FDC11B90
:1012F0004145EDD828688003F7D50BE0FFF7AAFD3C
:10130000074604E0FFF7A6FDC11B4145E0D8286869
:101310008003F7D42078DFF86492800744D5DAF8A8
:101320000010504611F00C0F4FF0F80809D000687B
:10133000C0F3810002280BD18E48001F00684002D4
:1013400006D42868800714D5E068012823D110E06E
:10135000E068D0B10120C9F80000FFF77BFD074627
:1013600004E0FFF777FDC01B6428B1D82868800728
:10137000F7D5286898FAA8F22169B2FA82F220F02B
:10138000F8009140084328600EE0C9F80060FFF7BC
:1013900061FD074605E0EAE0FFF75CFDC01B64283D
:1013A00012D828688007F7D42078000725D5DFF801
:1013B000C4817348616908F16C0881B10121016041
:1013C000FFF748FD074605E07EE0FFF743FDC01B41
:1013D000642879D8D8F800008007F6D50DE00660BB
:1013E000FFF738FD074604E0FFF734FDC01B642813
:1013F0006AD8D8F800008007F6D42078400753D583
:101400005C483830016841F0805101600068DFF8C5
:10141000748100F080500090D8F8001041F4807181
:10142000C8F80010FFF716FD074604E0FFF712FDAD
:10143000C01B642848D8D8F80000C005F6D5DFF8EE
:1014400034B10BF1680B8BF80060FFF703FD074622
:1014500041F2883804E0FFF7FDFCC11B41457ED80E
:10146000DBF800008007F6D4207A8BF80000A06833
:1014700068B1FFF7EFFC074604E0FFF7EBFCC11B88
:1014800041456CD8DBF800008007F6D50CE0FFF78B
:10149000E1FC074604E0FFF7DDFCC11B41455ED8D7
:1014A000DBF800008007F6D4A069E8B3DAF8001092
:1014B000C1F3810102295AD0022806D0C9F8606020
:1014C000FFF7C8FC04464DE049E04F46C9F86060AC
:1014D000FFF7C0FC064604E0FFF7BCFC801B642855
:1014E0003DD828688001F7D4D4E90701084347F6BE
:1014F000C07191FAA1F1626AB1FA81F18A40A16AE0
:101500004FF0FF3303EB51014FF4403393FAA3F351
:10151000B3FA83F399400A4310434FF0706292FA92
:10152000A2F2B2FA82F200E01FE0E16A91400843C1
:101530001049091F086001203866FFF78BFC04463C
:1015400004E0FFF787FC001B642808D828688001A6
:10155000F7D50AE0FFF77EFC001B642802D90320C0
:10156000BDE8F88F28688001F4D40020F8E7012056
:10157000F6E7000008380240003802400000474209
:10158000800E47420070004070B5040004D094F80B
:101590005100002510B106E0012070BD84F85050C4
:1015A000204600F033F8022084F8510020680168DA
:1015B00021F040010160D4E901010843D4E903129C
:1015C0001143084361690843218B01F4007108430A
:1015D000E1690843216A0843A16A08432168086059
:1015E000A069042101EA1040616A0843216848604B
:1015F0002168E06A08612068C16921F40061C16165
:101600006565012084F85100002070BD124800B5C6
:10161000016887B041F020010160006800F02000FF
:1016200005900D481430016841F480110160006894
:10163000012100F4801005904FF4607000900220AA
:10164000CDE9010103900520049069460348FFF7A6
:1016500009FB07B000BD0000303802400014024012
:101660002DE9F843044690F85100DDF82080012868
:1016700001D022287ED169B162B15BB194F85000EB
:10168000012877D0012784F8507094F85100012880
:1016900003D005E00120BDE8F883322084F8510032
:1016A00000266665A263A387E3872163A386E3869A
:1016B000A664E664A06A4FF40055A84209D12068E8
:1016C000016821F4005101602068016841F4005173
:1016D000016020680168490603D4016841F04001B7
:1016E0000160E0684FF48271B0F5006F606807D068
:1016F000002867D088426ED1E08E012862D06AE06F
:1017000020B188420CD1E08E012809D1206B2168DC
:101710000088C860206B801C2063E08E401EE0863D
:10172000E08E80B9A06AA84244D12068016841F4E3
:10173000805101603EE02068C068A16B0880A06B0A
:10174000801CA0639EE0434600220221204600F058
:1017500045FF002874D1206B21680088C860206B89
:10176000801C2063E08E401E0004000CE08609D13E
:10177000A06A00E0C7E0A84204D12068016841F4F3
:1017800080510160434600220121204600F026FFDF
:1017900000286FD12068C068A16B0880A06B801CF6
:1017A000A063E08F401EE087E08E0028CBD1606808
:1017B00000286AD1434600220121204600F00EFF96
:1017C000F0BBB8E7206B411C216321680078C8603A
:1017D000E08E401EE086E08E98B9A06AA84204D14F
:1017E0002068016841F480510160434600220121D4
:1017F000204600F0F3FE18BB2068C068A16B08709B
:1018000040E0434600220221204600F0E7FEB8B93E
:10181000206B411C216321680078C860E08E401E67
:101820000004000CE08607D1A06AA84204D1206819
:10183000016841F48051016000224346012100E02B
:1018400018E0204600F0CAFEA0B92068C168A06B6D
:10185000421CA2630170E08F401EE087E08E0028EA
:10186000CFD1606888B9434600220121204600F0AC
:10187000B5FE08B103200EE72068C168A06B421CCA
:10188000A2630170E08F401EE087A06AA84210D1D9
:10189000434600220121204600F0A0FE18B1606DF1
:1018A00040F002000FE02068C068ADF80000BDF80D
:1018B0000000434601228021204600F08FFE20B127
:1018C000606D40F020006065D4E784F851702068B6
:1018D0008168A26AC1F30011AA4210D179B1616D89
:1018E00041F002016165016821F400510160206846
:1018F000016841F40051016084F85060CAE684F840
:1019000050600020C7E60220C5E64FF0E021042821
:10191000086903D020F004000861704740F004001B
:10192000FAE710B5401EB0F1807F01D3012010BD51
:101930004FF0E02460610F21601700F091FD00205E
:10194000A06107202061002010BDFEE770B50D4C9E
:101950000025C4F890520C48016821F440610160F0
:10196000016841F480610160C4F89452022004F5DA
:10197000247402F01FF901202060022002F01AF9FD
:10198000256070BD00804342001C02400E4810B527
:10199000016886B041F0800101600068012400F018
:1019A000800005903020CDE900040220CDE90240FE
:1019B00069460648FFF756F90548C0F89442C0F852
:1019C000904206B010BD000030380240001C0240BA
:1019D0000080434270B50D4C0026C4F890620C485C
:1019E000016821F440610160016841F48061016097
:1019F0000125C4F89452022004F5247402F0DAF8A8
:101A00002560022002F0D6F8266070BD00804342B7
:101A1000001C02402DE9F047814616480024016869
:101A200021F44061016001680160134E254627469C
:101A30004FF00108C6F89072022002F0BBF8C6F819
:101A400090826006040ED6F8140208B1641CE4B259
:101A5000012002F0AFF86D1CEDB2082DEAD3B9F108
:101A6000000F04D0FFF772FF2046BDE8F087FFF7B4
:101A7000B1FFF9E7001C0240008043422DE9F0412C
:101A800005461448016821F440610160016841F491
:101A900080610160104E0027C6F890723C464FF0FE
:101AA0000108E809C6F894026806050E022002F053
:101AB00081F8C6F89082022002F07CF8C6F8907295
:101AC000022002F077F8641CE4B2082CE9D3BDE8E8
:101AD000F0810000001C02400080434270B50D48B8
:101AE000016821F440610160016841F48061016096
:101AF000094C0120C4F89402C4F89002042004F5B3
:101B0000247402F057F800256560042002F052F8B2
:101B1000256070BD001C02400080434270B50D4836
:101B2000016821F440610160016841F48061016055
:101B3000094C0020C4F89002C4F89402042004F573
:101B4000247402F037F801252560042002F032F8F1
:101B5000656070BD001C02400080434270B51248B1
:101B60000024016821F440610160016801600F4DAB
:101B70000126C5F89462304602F01CF8C5F8906260
:101B8000012002F017F807E0641CE4B2FA2C03D934
:101B9000FFF7C4FF012070BDD5F814020028F3D16F
:101BA000C5F8900270BD0000001C02400080434256
:101BB00070B51B4886B00025016841F00101016045
:101BC000016801F001010591016841F00401016023
:101BD000016801F004010591016841F08001016094
:101BE0000068032400F08000059002200126CDE962
:101BF0000204CDE9006569460A48FFF733F870032F
:101C000003948DE8610069460748FFF72BF80C2024
:101C1000009069460548FFF725F806B070BD000042
:101C2000303802400000024000080240001C024020
:101C30002DE9F0470126304C7703DFF8C080DFF84C
:101C4000C090304D01281DD02078A0B10821284631
:101C5000FFF7F6F8C0B104212846FFF7F1F898B174
:101C600039464046FFF7ECF870B101214846FFF7CE
:101C7000E7F8012808D008212846FFF7E1F80128F5
:101C800026D037E02670E1E70A2001F085FF00202A
:101C9000207008212846FFF7D3F880B10421284698
:101CA000FFF7CEF870B139464046FFF7C9F858B192
:101CB00001214846FFF7C4F8012807D01AE00120A7
:101CC000BDE8F0870220FBE70320F9E70420F7E7EF
:101CD00004212846FFF7B4F801280BD139464046C5
:101CE000FFF7AEF8012805D101214846FFF7A8F813
:101CF00000B926700020E3E75800002000080240E9
:101D000000000240001C02402DE9F047134E8146BE
:101D100000217088401E83B23088401E82B208467F
:101D200000F0E2F90E4F0020C7F8AC024FF00108B6
:101D3000C7F89482054609E0002403E0484600F015
:101D40007BFB641C3088A042F8D86D1C7088A842C8
:101D5000F2D8C7F8AC82BDE8F08700005C00002034
:101D60000080414238B5034C2488009400F07AF892
:101D700038BD0000280000202DE9FE4F0026A2EB10
:101D8000000882465F1A701E35468946B8F1000F7A
:101D900002DD4FF0010102E003D14FF0000101919B
:101DA00002E0C8F100080190002F02DD4FF00100B1
:101DB00002E003D14FF00000009002E0C7F10007FD
:101DC00000904046B84501DD044600E03C46601CFA
:101DD0004FF0000B029015E01FFA89F11FFA8AF00C
:101DE00000F016F846443D44A64202DD0199361B38
:101DF0008A44A54202DD00992D1B89440BF10100A4
:101E00001FFA80FB02998B45E6DDBDE8FE8F0000DE
:101E100010B500F065F903480088BDE8104000F0F7
:101E20000BBB0000280000202DE9F0411C461546A0
:101E30000E4607460B46FFF79FFF3A4623463146BC
:101E40001046FFF799FF23462A4619463846FFF702
:101E500093FF2A4623463146BDE8F0411046FFF77E
:101E60008BBF00002DE9F041141A641CA6B25C1A65
:101E7000641CA7B2DDF8188000F036F900250AE0EE
:101E8000002404E0404600F0D7FA641CA4B2B44237
:101E9000F8D36D1CADB2BD42F2D30648418800882C
:101EA000491EBDE8F041401E8BB282B200210846B7
:101EB00000F01AB95C0000200C4800B5016887B03A
:101EC00041F0080101600068694600F008000590D3
:101ED0004FF4C35000900120019002900320039022
:101EE0000348FEF7BFFE07B000BD000030380240D7
:101EF000000C024010B500F04FFBFFF7DDFF00F0D3
:101F0000DBF8F72000F02AFAA92000F017FA512098
:101F100000F014FA2C2000F011FA822000F00EFAE2
:101F2000C02000F01BFA112000F008FA092000F090
:101F300005FAC12000F012FA412000F0FFF9C52097
:101F400000F00CFA002000F0F9F90A2000F0F6F990
:101F5000802000F0F3F9B12000F000FAB02000F08A
:101F6000EDF9112000F0EAF9B42000F0F7F90220B1
:101F700000F0E4F9B62000F0F1F9022000F0DEF9FB
:101F8000422000F0DBF9B72000F0E8F9C62000F0AD
:101F9000D5F9BE2000F0E2F9002000F0CFF90420CE
:101FA00000F0CCF9E92000F0D9F9002000F0C6F9E2
:101FB000362000F0D3F9682000F0C0F93A2000F094
:101FC000CDF9662000F0BAF9E02000F0C7F9002052
:101FD00000F0B4F9072000F0B1F9102000F0AEF9DC
:101FE000092000F0ABF9172000F0A8F90B2000F051
:101FF000A5F9412000F0A2F9892000F09FF94B20BB
:1020000000F09CF90A2000F099F90C2000F096F9F4
:102010000E2000F093F9182000F090F91B2000F03A
:102020008DF90F2000F08AF9E12000F097F90020E7
:1020300000F084F9172000F081F91A2000F07EF9F1
:10204000042000F07BF90E2000F078F9062000F063
:1020500075F92F2000F072F9452000F06FF9432048
:1020600000F06CF9022000F069F90A2000F066F92E
:10207000092000F063F9322000F060F9362000F00A
:102080005DF90F2000F05AF9112000F067F978206F
:1020900001F082FD292000F061F9002000F07EF9B6
:1020A00004490120C1F89802BDE810404FF6FF70C6
:1020B000FFF72ABE0080414210B5084C0020C4F84A
:1020C000B002642004F52C7401F066FD012020604C
:1020D000BDE81040322001F05FBD000000804142A9
:1020E0000B460246AFF300802DE9F041DFF8508047
:1020F00007461C4615460E4698F80A0000F02EF9D1
:10210000380A00F01BF9F8B200F018F9280A00F0BC
:1021100015F9E8B200F012F998F80C0000F01EF979
:10212000300A00F00BF9F0B200F008F9200A00F0D4
:1021300005F9E0B200F002F9BDE8F04100F01EB987
:102140005C0000202DE9FF4F81B00EAE824696E87C
:102150003100203800F0FF080298DFF8E0B020449A
:10216000401E83B20AEB5400BBF80010401E0091E1
:1021700082B250460299FFF7B7FF4FF000067DBBD1
:102180002F4908EB480001EB800901F2744000EB95
:10219000081817E00C2C03D018F8065000270CE0A4
:1021A00019F80650FAE7E80701D0039800E0049810
:1021B00000F042F96D087F1CFFB2B7EB540FF2D369
:1021C000761CF6B2A642E5D327E00C2C09D01D48B8
:1021D00000EB08100025875D029800EB060915E06A
:1021E00019E0174808EB480100EB8100F2E703987B
:1021F000ABF80000F80706D00AEB05001FFA89F1DA
:1022000080B2FFF705FE7F086D1CEDB2B5EB540FF1
:10221000EDD3761CF6B2A642D7D30098ABF80000F7
:1022200009484188008805B0491EBDE8F04F401EAE
:102230008BB282B200210846FFF756BF280000206B
:1022400080430008F44700085C0000202DE9FF4FA0
:1022500083B00027DDF840801D4681463C46BA46E3
:102260004FEA5806DFF864B02AE0281B401EC1B2CE
:102270000A2001F07FFD0599B1FBF0F00A21B0FBC7
:10228000F1F201FB120027B9691E8C4201DA40B15C
:1022900001273030C0B28DE8010506FB049080B202
:1022A00005E0202206FB04908DE8040580B2084971
:1022B000BBF800300A880499FFF744FF641CE4B2BD
:1022C000AC42D2D307B0BDE8F08F00002A00002056
:1022D000280000202DE9FE4F1C4616460F460546F5
:1022E000DFF84C90DFF84CA0DFF84CB0DDF8308020
:1022F00017E0B9F80020521EAA4217DBB9F8021005
:10230000491EB94212DB8DE84101BAF80030BBF832
:10231000002039462846FFF715FF05EB560085B229
:10232000641C2078A0F120015E29E2D9BDE8FE8F6F
:102330005C0000202A0000202800002070B5064C18
:102340000021C4F8AC120125C4F8945204F5257498
:1023500000F094F9A56170BD0080414210B5064CB3
:102360000021C4F8AC12C4F8941204F5257400F0EE
:1023700085F90120A06110BD008041420148007A2A
:10238000FFF7ECBF5C00002010B50C46FFF7E6FF3E
:10239000E0B2BDE81040FFF7D1BF000012492A2289
:1023A0004FF4A0734A812B228A812C220A814FF498
:1023B000F07258B101280DD002280FD0032811D196
:1023C0000A804B80A8213620FFF7DEBF0B804A80B1
:1023D0000821F8E70A804B806821F4E70B804A80E7
:1023E000C821F0E7704700005C000020104810B5DD
:1023F000016886B041F0020101600068012100F02F
:10240000020005900320CDE90210CDE90001094C3E
:1024100069462046FEF726FC012211462046FEF7BB
:1024200014FD012202212046FEF70FFD06B010BD6B
:10243000303802400004024010B50446F82000EA9B
:102440001420FFF77BFFFC2000EAD400FFF776FFA3
:10245000E006BDE81040000EFFF770BFFEE77047D2
:102460000907090E002806DA00F00F0000F1E0204D
:1024700080F8141D704700F1E02080F800147047C8
:1024800070470000FEB51BA0FEF74CF81E211E4A47
:102490000846FEF79DFB012510241CA08DE83100A5
:1024A0004FF6E07633461F224B212A2000F0F8F841
:1024B000154A1E215A20FEF78BFB14A08DE831002F
:1024C00033461F224B21662000F0EAF80E4A1E21F7
:1024D0009620FEF77DFB0DA08DE8310033461F22CC
:1024E0004B21A22000F0DCF8BDE8FE404FF49660DE
:1024F00001F052BBB2E2CAD4373ACDBCC6ACCFD49D
:10250000CABEB2E2CAD40000305A000851510000DD
:102510002DE9F043194887B003AE0FC886E80F00D5
:1025200000244FF0010810274FF6E0794FF47A7538
:102530002046FFF733FF12A0FDF7F4FF56F82410F2
:102540004B468DE882011F221E21142000F0A8F8BE
:10255000104A32211E20FEF73BFB284601F01CFBEF
:10256000284601F019FB641CE4B2042CE0D30020DF
:10257000FFF714FF07B0BDE8F0830000B066000865
:10258000B2E2CAD4383AC6C1C4BBD0FDD7AAB2E2BF
:10259000CAD40000305A000810B50F4C0D484FF453
:1025A000007120604FF4827060600020A060E060E5
:1025B0002061C4E9050120626062A0620720E06238
:1025C0002046FEF7E1FF2068016841F0400101600C
:1025D00010BD0000005001406C0000202DE9F047C4
:1025E0001D4690460F460446FEF734FC06465FEA59
:1025F00008004FF000084FF4005A4FF0010926D0B0
:1026000034E0681C23D025B1FEF724FC801BA842CF
:102610001DD92068416821F0E0014160206801680F
:1026200021F040010160A06A504509D1206801688D
:1026300021F4005101602068016841F400510160FB
:1026400084F8519084F850800320BDE8F08720681A
:10265000806837EA0000D4D10DE0681C06D0002D58
:10266000D7D0FEF7F7FB801BA842D2D8206880683D
:1026700037EA0000F1D00020E7E7000001B582B0A2
:102680004FF47A700090012301AA02A90248FEF7D4
:10269000E7FF9DF804000EBD6C00002070470000AD
:1026A0002DE9FF4F83B08846DDE910540646824687
:1026B0004FF00009DFF8CCB0129F1DE0B9F1000F18
:1026C00020D0BBF80010091BB14218DBBBF8020098
:1026D000011B414513DB4FF00009202C46D0CDE90A
:1026E0000057DDE90523182C4146304647D0FEF758
:1026F00007F9301986B2AD1C28780028DED107B062
:10270000BDE8F08FBBF80020A2EB5402B242F6DB2A
:10271000BBF802100A1B41464245F0DB802802D973
:102720004FF00109E8E70D280DD0102C12D9102127
:102730008DE88300DDE9052341463046FFF702FDC1
:102740000836B6B210E008EB04001FFA80F85646CF
:102750006D1C09E08DE89100DDE905233046FFF7A7
:10276000F1FC06EB540086B26D1CC5E7CDE90057BD
:10277000DDE9052341463046FEF7ACF9B9E7FEF73F
:1027800033F9B6E75C00002070B51E4C92B000250E
:10279000266846F080562660246804F08054119420
:1027A000194C266846F44046266024680DF1240C36
:1027B00004F44044119401240094019402240694EA
:1027C0008CE80D006605CDE907616846FEF74EFD11
:1027D00000B1FEE7FEF7AEFB00B1FEE70CA90F204B
:1027E00081E831004FF4A0500F904FF480501090CA
:1027F00005210CA8FEF7E2FB002800D0FEE712B08E
:1028000070BD00004038024000700040FEF728BB59
:102810001048016841F4700101600F48016841F0FF
:10282000010101600C4A00210832116002680B4B63
:102830001A400260031D0A4A1A60026822F48022CC
:10284000026005480C300160024958068039086072
:102850007047000088ED00E000380240FFFFF6FE00
:10286000103000242DE9FF4F81B00D46DDE91087BF
:10287000464906464FF47840DDF838B0DDF8489018
:1028800008809246012442A31022A021282000940F
:10289000FFF720FD3FA31022A02178200094FFF72E
:1028A00019FD3DA31022B42128200094FFF712FD4A
:1028B0003AA31022B42178200094FFF70BFD38A32F
:1028C0001022C82128200094FFF704FD35A3102210
:1028D000C82178200094FFF7FDFC33A31022DC21EF
:1028E00028200094FFF7F6FC30A31022DC2178208A
:1028F0000094FFF7EFFC2EA31022F0212820009473
:10290000FFF7E8FC102404233246A0214020009465
:10291000FFF79CFC04232A46A02190200094FFF797
:1029200095FC04235246B42140200094FFF78EFC0E
:1029300004230094B4219020049AFFF787FC042319
:102940005A46C82140200094FFF780FC00940423DD
:10295000C82190200F9AFFF779FC04234246DC211E
:1029600040200094FFF772FC04233A46DC219020BB
:102970000094FFF76BFC10480094032301884A463B
:102980006020FFF763FC05B0BDE8F08F2800002051
:1029900078313A0079313A0078323A0079323A00A7
:1029A00078333A0079333A0078343A0079343A008F
:1029B0006661632069733A005C0000202DE9F04FE6
:1029C000F74E1F202DED0C8B89B04FF6FF770024BA
:1029D00025463080F34807803846FFF795F94FF4D5
:1029E0007848A6F800803846FFF78EF90027378030
:1029F0000126EDA3102228210A200096FFF76AFC89
:102A0000F1A3102238210A200096FFF763FCF7A3F8
:102A1000102248210A200096FFF75CFCFBA310223D
:102A200058210A200096FFF755FC1421424608461B
:102A300000F002FBFC4807759FEDFC0A80ED060ADA
:102A40009FEDFBCB9FEDFCDB9FEDFDBBB146FE4E4A
:102A500080464FF0900BA0F1040AD8F804104746C6
:102A600001208847387DB9EB901F45D120F0400008
:102A7000387505A83A8A20F8242000EB8400641CED
:102A80000025798AE4B2B8464180012C06D0022C98
:102A900011D0032C1ED0042C2ED13CE014214FF673
:102AA000FF72084600F0C8FA30884FF478421438B4
:102AB00080B214211EE030884FF6FF72143880B2C5
:102AC000142100F0B9FA70884FF47842143881B2BA
:102AD00014200FE070884FF6FF72143881B2142072
:102AE00000F0AAFA70884FF47842143881B2308826
:102AF000143880B200F0A0FA0A2001F04DF86D1CE5
:102B0000ADB2B5F57A7FA8D900F0D4FA09B0BDEC22
:102B10000C8BBDE8F08FBDF81400BDF81810411AF9
:102B200000D54942BDF81600BDF81A20801A00D51C
:102B3000404249434043084401F05DF941EC100B29
:102B400000F097FF51EC100B01F028F984B2BDF8AA
:102B50001C00BDF82010411A00D54942BDF81E00E6
:102B6000BDF82220801A00D5404249434043084422
:102B700001F041F941EC100B00F07BFF51EC100B20
:102B800001F00CF900EE104A87B2F8EE400A00EEB0
:102B9000107AB8EE401A80EE810A10EE100A01F0A9
:102BA00079FBB0EE4C9AF0EE6C9A41EC180B53ECBA
:102BB000192B01F033F95BD3B0EE4DAAF0EE6DAAFC
:102BC00053EC1A2B51EC180B01F062FA50D3ECB312
:102BD000E7B3BDF81400BDF81C10411A00D54942F6
:102BE000BDF81600BDF81E20801A00D540424943AA
:102BF0004043084401F0FFF841EC100B00F039FFAE
:102C000051EC100B01F0CAF884B2BDF81800BDF801
:102C10002010411A00D54942BDF81A00BDF8222003
:102C2000801A00D5404249434043084401F0E3F88C
:102C300041EC100B00F01DFF51EC100B01F0AEF851
:102C400000EE104A80B2F8EE400A00E010E000EE1C
:102C5000100AB8EE401A80EE810A10EE100A01F058
:102C600019FB41EC180B53EC192B01F0D7F824D2C7
:102C700070880024143881B230884FF6FF721438FF
:102C800080B200F0D9F914214FF47842084600F0E0
:102C9000D3F953EC1B2B51EC180B01F0FBF801F0AE
:102CA0007DF880B2BDF82210BDF82030BDF81E209E
:102CB000CDE90310CDE90123D6E053EC1A2B51ECFA
:102CC000180B01F0E5F9D3D3BDF81800BDF81C10BE
:102CD000411A00D54942BDF81A00BDF81E20801ADD
:102CE00000D5404249434043084401F084F841EC98
:102CF000100B00F0BEFE51EC100B01F04FF884B247
:102D0000BDF81400BDF82010411A00D54942BDF8A5
:102D10001600BDF82220801A00D5404249434043A6
:102D2000084401F068F841EC100B00F0A2FE51ECF1
:102D3000100B01F033F800EE104A80B2F8EE400AB2
:102D400000EE100AB8EE401A80EE810A10EE100A6A
:102D500001F0A0FA41EC180B53EC192B01F05EF8CE
:102D600006D353EC1A2B51EC180B01F091F96DD2EC
:102D700070880024143881B230884FF6FF721438FE
:102D800080B200F059F914214FF47842084600F05F
:102D900053F953EC1B2B51EC180B01F07BF856E068
:102DA000280000202A000020506C656173652075A2
:102DB000736520746865207374796C757320636C17
:102DC00069636B207468650063726F7373206F6E44
:102DD000207468652073637265656E2E5468652083
:102DE00063726F73732077696C6C0000616C77613C
:102DF0007973206D6F766520756E74696C207468C8
:102E0000652073637265656E2000000061646A75F9
:102E100073746D656E7420697320636F6D706C657B
:102E20007465642E000000003000002000000000E7
:102E3000666666666666EE3FCDCCCCCCCCCCF03F09
:102E400000000000000059405C0000201AE000F083
:102E5000A5FF80B2BDF82220BDF82030BDF81E10BD
:102E6000CDE90320CDE90113BDF81C000090BDF8A9
:102E70001A30BDF81820BDF81610BDF81400FFF781
:102E8000F1FCEAE5BDF81800BDF81410F6EE001AE2
:102E9000421A00EE102A32880844B8EEC01AA2F195
:102EA000280300EE103A4746B8EEC00AC0EE010A09
:102EB00000EE100AB8EE401A00EE102AB8EE400AF2
:102EC000C8ED060A00EEC10AFDEEE00A20EE210A76
:102ED000BDEEC00A10EE100AA8F82000BDF81E00D2
:102EE000BDF81630C11A00EE101A71881844B8EEF9
:102EF000C01AA1F1280400EE104AB8EEC02A82EEF2
:102F0000010A01EE100AB8EE412A01EE101AB8EEDD
:102F1000411A87ED070A00EE421A21EE211ABDEE92
:102F2000C11A11EE100A788410EE900A002800DA17
:102F30004042022808DCBDEEC00A10EE100A00284C
:102F400000DA404202282BDD143A143990B20024F2
:102F500089B24FF6FF7200F06FF814214FF47842F7
:102F6000084600F069F81BA310221A212820CDF88A
:102F70000090FFF7AFF997F8240048B1002087F8D8
:102F8000240038B18AF800B0D0218AF8011064E535
:102F90000120F4E7D0218AF800108AF801B05CE53E
:102FA00011491F204FF6FF7408802046FEF7ACFE43
:102FB0000EA310226E212320CDF80090FFF78AF98E
:102FC0004FF47A7000F0E8FD00F0E0F92046FEF7DB
:102FD0009BFE9BE55450204E6565642072656164DC
:102FE0006A7573742100000028000020546F756317
:102FF000682053637265656E2041646A757374203E
:103000004F4B210070B506460A480C4602803046F8
:10301000FEF7FEFE751CA8B22146FEF7F9FE641C01
:10302000A1B23046FEF7F4FEA1B2A8B2BDE87040EE
:10303000FEF7EEBE280000202DE9F843DFF870907F
:1030400004460D30A9F8002082B2A4F10C000D4610
:1030500080B20B46FEF790FE05F10D0083B21938E1
:1030600081B222461046FEF787FE6E1C04F101086D
:10307000B1B21FFA88F0FEF7CBFEB1B2661EB0B255
:10308000FEF7C6FE6F1EB9B21FFA88F0FEF7C0FE4B
:10309000B9B2B0B2FEF7BCFE002000900623B9F82A
:1030A00000202946204600F09FFDBDE8F88300007F
:1030B0002800002010B535202DED028BFDF766F9B4
:1030C0000A2803D00020BDEC028B10BD042128206B
:1030D000FDF747F900EE100A9FED178A174CB8EE7E
:1030E000C00A04212C20C0EE080AC4ED060AFDF730
:1030F00038F900EE100A02213020B8EEC00AC0EE06
:10310000080AC4ED070AFDF72CF9208402213220B9
:10311000FDF727F960843420FDF738F99023211F4B
:1031200084F82400D02210B10B704A7001E00A70BC
:103130004B700120C7E7000020BCBE4C30000020CF
:1031400030B5294887B00024016841F08001016052
:10315000016801F080010591016841F4807101600E
:10316000016801F480710591016841F0400101603E
:1031700000681E4D00F040000590402000900120A6
:10318000019002900320039069462846FDF76AFDEE
:103190004FF48471009169461548FDF763FDE8140A
:1031A000CDE9000469462846FDF75CFD0820009043
:1031B00069461048FDF756FD0F49881E00F094F847
:1031C000FDF7CDF8FFF776FF10B1002007B030BD56
:1031D0004FF6FF70FEF798FDFFF7F0FB00F0D6F812
:1031E000FFF768FF0120F1E730380240001C024081
:1031F0000020024000180240420000202DE9F05F4C
:1032000000251E4F2C462E46C7F89852DFF87080D6
:10321000C8F88C52C8F8A05207F5267700F04EF98E
:10322000062000F0C7FC3E60012000F0C3FC4FF018
:103230000109C7F80090484600F0BCFC3E60B24669
:103240004E46DFF840B04FF6FF79A7F5267709EA3A
:103250004404C7F898A2012000F0ACFCC7F89862BB
:10326000DBF80C0208B1641CA4B26D1CEDB2102D89
:10327000EDD32009C8F8A062BDE8F09F008043426A
:103280000000444200004342FEB5064600246D465D
:103290003046FFF7B3FF25F81400641CA4B2052CD8
:1032A000F6D300214C1CA0B20BE035F8113035F8F4
:1032B0001020934203D925F8112025F81030401C26
:1032C00080B20528F1D3A1B20429EBD3002101205B
:1032D00035F81020401C114480B289B20428F7D37D
:1032E0000320B1FBF0F0FEBD2DE9F041074F06468B
:1032F0000D463878FFF7C8FF04467878FFF7C4FF1B
:10330000348028800120BDE8F08100002C000020DE
:1033100070B586B00C460546694604A8FFF7E4FF81
:1033200000282FD001A903A8FFF7DEFF002829D02D
:10333000BDF80C30BDF81020934203D803F13200E1
:10334000824205D39A421FD802F1320083421BD237
:10335000BDF80410BDF80000814203D801F1320627
:10336000B04204D388420FD8323081420CD2D018F8
:1033700040082880BDF80000BDF80410084440084B
:103380002080012006B070BD0020FBE710B51B4C6B
:1033900004222DED028B282094ED060A9FED188A59
:1033A00020EE080ABDEEC00A10EE101AFDF70FF865
:1033B00094ED070A04222C2020EE080ABDEEC00A74
:1033C00010EE101AFDF703F8B4F920100222302095
:1033D000FCF7FDFFB4F9221002223220FCF7F7FFC0
:1033E00094F824103420FDF707F8BDEC028B0A2175
:1033F000BDE810403520FCF7FFBF00003000002082
:1034000020BCBE4C2B4910B5D1F82C122A4C31B13E
:10341000207D010642D520F08000207545E00200A5
:10342000254800F1120100F1100002D0FFF770FFF3
:103430002AE0FFF76DFF38B3B4F9200094ED061AC7
:1034400000EE100A208A00EE900AB8EEC00AF8EEEC
:10345000600A01EE200ABCEEC00A10EE100A2082BB
:10346000B4F9220094ED071A00EE100A608A00EE0B
:10347000900AB8EEC00AF8EE600A01EE200ABCEE2F
:10348000C00A10EE100A6082207D00060DD4C02014
:103490002075208AA081608AE08106E00020A0815A
:1034A000E0814FF6FF7020826082207D00F0800076
:1034B00010BD000000804342300000202DE9F0479D
:1034C00000240E4E0E4F0546A0464FF00109280677
:1034D00001D5484600E04046C6F88C026806050E55
:1034E000C7F89882012000F065FBC7F89892641C29
:1034F000E4B2082CEBD3BDE8F087000000004442A2
:10350000008043422DE9F843002429A0FDF70AF882
:103510002D4E4FF6FF77009770883288143883B2AB
:1035200014210020FEF79EFC284DA046CDF8008017
:1035300004EBC400718800EB041000EB51013288E9
:103540001E2300EB520035F814205038323900F0B9
:103550004BFB641CE4B2052CE8D340F2DC58404637
:1035600000F01AFB009770883288143883B2142157
:103570000020FEF777FC00240127009704EBC4002D
:10358000718800EB041000EB510132881E2300EB20
:10359000520035F814205038323900F025FB641CF5
:1035A000E4B2052CE9D34046BDE8F84300F0F4BA94
:1035B000B2E2CAD4333A475549BBADD4B2CCEEB32C
:1035C000E4B2E2CAD40000005C0000200000002049
:1035D0002DE9FE434FF6FF702E4C009000216388CA
:1035E00022880846FEF73EFC10262BA0CDE90006F7
:1035F00001254FF6E07843461F221E210295142034
:10360000FFF74EF84FF44879484600F0C5FA4FF4FA
:10361000784700970021638822880846FEF722FC3D
:103620001FA0CDE9000643461F221E21029514204B
:10363000FFF736F8484600F0AFFA4FF4FC60009010
:103640000021638822880846FEF70CFC16A0CDE90D
:10365000000643461F221E2102951420FFF720F882
:10366000484600F099FA1F200090002163882288C4
:103670000846FEF7F7FB0EA0CDE9000643463A46A2
:103680001E2102951420FFF70BF84846BDE8FE43C3
:1036900000F082BA5C000020424C20546573740034
:1036A0005245442000000000475245454E2000008E
:1036B000424C5545200000002DE9F84300242EA07F
:1036C000FCF730FF324F4FF6FF78CDF80080788856
:1036D0003A88143883B214210020FEF7C3FB2D4D25
:1036E0002D4E35F8140030807988C4EB041000EBBF
:1036F0005101A1F1140293B23A88503900EB520003
:10370000A0F11402503892B289B280B2FEF78CFB5D
:10371000641CE4B2052CE4D340F2DC59484600F0C6
:103720003BFACDF8008078883A88143883B21421A7
:103730000020FEF797FB002435F8140030807988CC
:10374000C4EB041000EB5101A1F1140293B23A88CA
:10375000503900EB5200A0F11402503892B289B2F5
:1037600080B2FEF7FFFA641CE4B2052CE4D34846AD
:10377000BDE8F84300F010BAB2E2CAD4323A475575
:1037800049BED8D0CECCEEB3E4B2E2CAD400000039
:103790005C00002000000020280000202DE9FC47EC
:1037A000002437A0FCF7BEFE3C4F4FF6FF78CDF863
:1037B000008078883A88143883B214210020FEF7FC
:1037C00051FB374D374E04EB840335F8140030803D
:1037D0007988C4EB041000EB5102A2F1140081B20D
:1037E0003888493A400800EB8300A0F1150C1FFA15
:1037F0008CF3CDE9003193B2A0F13302503892B28C
:1038000080B2FCF7D5FE641CE4B2052CDBD340F299
:10381000DC59484600F0C0F9CDF8008078883A8835
:10382000143883B214210020FEF71CFB002404EBA3
:10383000840335F8140030807988C4EB041000EB61
:103840005102A2F1140081B23888493A400800EBD5
:103850008300A0F115039BB2CDE9003193B2A0F132
:103860003302503892B280B2FCF786FF641CE4B297
:10387000052CDCD34846BDE8FC4700F08DB90000BC
:10388000B2E2CAD4343A47554920547269616E672E
:103890006C65CCEEB3E4B2E2CAD400005C00002058
:1038A0000000002028000020002408B526462546F8
:1038B000FFF746FCFEF77CF9FEF798FD5EA0FCF7EB
:1038C00031FEDFF894914FF0010ACDF800A0B9F86D
:1038D000000062A3183880B210220021FEF7FAFC23
:1038E0005F4F4FF47840122338800090B9F8000001
:1038F000A0F11E018AB2343880B20221FEF7B2FA7A
:103900000120FEF795F9DFF85C8183460020D8F8A6
:103910000410884798F8140000064ED5B8F8100037
:10392000B9F800304A4698424AD2B8F81210B2F8B4
:1039300002C0614544D2A3F11802C84690421DDD81
:1039400010291BD23CA0FCF7EDFDCDF800A0B8F883
:10395000000042A3183880B210220021FEF7BAFC02
:103960003D800095B8F800001223A0F11E018AB234
:10397000343880B20221FEF775FA21E0A3F13C024F
:10398000904221DD1E3290421EDA14291CD20520FD
:10399000B6FBF0F100FB1165DFF8CC80343B92B24E
:1039A00038F81500009098B212230221FEF75AFA57
:1039B00038F81550761C3D80B6B20A2000F0ECF8BD
:1039C000BBF1010F04D027E03A88FFF71BFBF7E7B4
:1039D0004FF6FF70FEF798F9FEF7F0FFFFF7D6FC01
:1039E00015A0FCF79FFDCDF800A0B9F80000C8466F
:1039F000183880B219A310220021FEF76BFC3D801D
:103A00000095B8F800001223A0F11E018AB23438E4
:103A100080B20221FEF726FA641CA4B21E2C7FF4A9
:103A20006FAF12490024D1F8840218B10020C1F808
:103A3000840265E70120FAE7B2E2CAD4393A546F4A
:103A4000756368B2E2CAD428B0B44B455930BCFCA7
:103A5000D0A3D7BC292020005C0000205253540082
:103A6000280000203000002000000020008040429C
:103A7000FEE700B52DED048BB0EE409AF0EE609AB3
:103A800083B051EC190B00F039FB41EC180B18EE28
:103A9000100A18EE901A8DED008B002818BF012037
:103AA000084320F00040C0F17F6000F1E040C00F0B
:103AB00014D019EE101A19EE900A8DED009B002912
:103AC00018BF0121084320F00040C0F17F6000F1E1
:103AD000E040C00F04BF0120FCF7FFFBB0EE480A36
:103AE00003B0F0EE680ABDEC048B00BD2DE9F05F79
:103AF00015461C46DDF828B00E46074601EB0408C3
:103B000000EB050A1FFA88F11FFA8AF05A46FDF702
:103B100055F81FFA88F1A7EB05081FFA88F05A46F6
:103B2000FDF74CF8A6EB04091FFA89F11FFA8AF099
:103B30005A46FDF743F81FFA89F11FFA88F05A46F2
:103B4000FDF73CF806EB050907EB04081FFA89F1BD
:103B50001FFA88F05A46FDF731F83C1B1FFA89F12D
:103B6000A0B25A46FDF72AF8751BA9B21FFA88F0D1
:103B70005A46FDF723F8A9B2A0B25A46BDE8F05F55
:103B8000FDF71CB810B504460420FDF7BEFE014841
:103B9000046010BD2400002070B5054600244FF4D9
:103BA0007A7603E0304600F005F8641CAC42F9D3A5
:103BB00070BD000070B54FF0E02500216C69094A26
:103BC000AB6912685043AA699A42FCD002D2A3EBB7
:103BD000020302E0A4EB0206334419441346814277
:103BE000F1D370BD240000202DE9F84F89461E4610
:103BF000904682460024714203220A9802EB410556
:103C0000C8B930E0274608E03B46224649465046C0
:103C1000CDF80080FFF76AFF7F1CB742F4DD002D6E
:103C200003DA05EB8405AD1D04E0A01B05EB800560
:103C30000A35761E641CB442E4DDBDE8F88F3346D5
:103C4000224649465046CDF80080FFF74FFF002D31
:103C500003DA05EB8405AD1D04E0A01B05EB800530
:103C60000A35761E641CB442E9DDE6E7FDF700F98B
:103C70000823022219214FF4B470FEF785FDB42009
:103C8000FFF780FFFEF736F900F014F8FFF7A0FC0D
:103C9000FFF712FDFFF736FCFFF780FDFCF7A0FCF5
:103CA000FCF7CAFBFEF7EEFBFEF732FCFFF7FCFD6C
:103CB000EAE70000FEB51AA0FCF734FC0125102449
:103CC0001DA08DE831001F23DE0232461E21002098
:103CD000FCF7A6FF14A08DE831001F2332463C21DB
:103CE0000020FCF79DFF17A08DE831001F234FF443
:103CF000FC625A210020FCF793FF18A08DE83100E8
:103D00001F231A4678210020FCF78AFF40F2DC547A
:103D10002046FFF741FF2046BDE8FE40FFF73CBFCD
:103D2000C8ABB6AFB5E7D7D3D7DBBACFB2E2CAD408
:103D3000B3CCD0F200000000C8ABB6AFB5E7D7D324
:103D400000000000332E352720494C4939343838DB
:103D5000203332305834383000000000507A784038
:103D600051447465636820323031382D30382D303D
:103D7000360000000346012000E05843491EC9B246
:103D8000FBD27047491058BFC1F140415B1058BF8A
:103D9000C3F140438B42EFF3008070474FEA115369
:103DA000A3F58063D3F11E03A8BFD3F1200C08DB79
:103DB0004FF0004242EAC12252EA505232FA03F076
:103DC000704709420BD4102BC4BF0020704703F585
:103DD000787CBCF1FF3F05D04FF0FF3070474FF0CB
:103DE0000000704770B500F0FFF800BF49922480D2
:103DF00000207047F0E7B0FA80F310FA03F10AD020
:103E0000C3F11D0303F580634FEA41504FEA0352AB
:103E100002EBD12170474FF00000704751EA030CCC
:103E200017D41CF5801F58BFBCF5801F00F1068019
:103E3000994218BF704708BF9042704707D711F5E5
:103E4000801F58BF13F5801F19D4994270478942CB
:103E500070471CF5801F08D5BCF5801FF7D58B4235
:103E600018BF704708BF824270474FF4001C1CEB1C
:103E7000410F38BF1CEB430F01D28B42704770B526
:103E800000F0B2F8922449004FF000514FF08053F7
:103E9000FFF778BFDFF848C170B51CEA111E1EBFDE
:103EA0001CEA13159EEA0C0F95EA0C0F00F06F80C8
:103EB00081EA030423EA4C134EEAD47E21EA4C1132
:103EC00041F4801143F48013AE44A1FB024CA0FBEB
:103ED0000365AEF17F7E361955EB0C05A1FB034C53
:103EE0004CF10003A0FB021C16EB0C06654153F1DC
:103EF0000003094218BF46F0010613F4007F0BD1FE
:103F00004FEA03314FEA0530340341EA155140EAE4
:103F100016506FF003020AE04FEAC3214FEAC520B2
:103F2000F40241EA555140EA56506FF0020202EBAA
:103F30002E4201EB025585EACE710AD05FEA440CAD
:103F400018BF24F0004450F1000041F1000120EAC4
:103F5000D47040F2FE7C624500D270BDA84214BF0E
:103F60004FF080444FF04044002E08BF0024BEF1C3
:103F7000806FA8BFA1F1C041BDE8704080F282808F
:103F80004FF0000001F1C04101F0004170479EEA8E
:103F90000C0F0CEA131518BF95EA0C0F06D04FF062
:103FA000000081EA030E0EF0004170BD00F01CF825
:103FB0008900013E00F007B800F009B84FEA430C51
:103FC0005FEA5C5C08D081EA030100F05BB84FEA6D
:103FD000410C5FEA5C5CF6D14FF00000014970478C
:103FE0000000FF070000F87F0EF1020E2EF0030E16
:103FF0005EF8046B364205D4012A43EB030515F540
:10400000001F12D8012841EB010C1CF5001F0CD831
:104010000ED14FEAD17C15F5001F0CEB4C0C0CF1C6
:10402000020C08BF4CEBD37C04E04FF0080C01E01D
:104030004FEAD37C0CEB4C0526FA05F606F0070692
:10404000B6F1040C06D20EEB860CBDE870404CF0C5
:10405000010C6047DFE80CF0090B02024FF0004151
:104060004FF00000A1F5002170BD1946104601284F
:1040700051EB010418BFD4F5001484BF002001F0F7
:10408000004170BD0808A0F500114FEA31017047EA
:1040900053EA010C17D41CF5801F58BFBCF5801FD4
:1040A00000F106808B4218BF704708BF82427047FC
:1040B00007D713F5801F58BF11F5801F19D48B4205
:1040C00070479B4270471CF5801F08D5BCF5801FC8
:1040D000F7D5994218BF704708BF904270474FF418
:1040E000001C1CEB430F38BF1CEB410F01D299425F
:1040F00070470FB40CBC03BCFFF7C1BE2DE9F04103
:1041000001F5801CBCF5001FC0F2A9804FEA115CCC
:1041100021EA0C510CF1FD0C41F480115FEA5C0CBA
:104120000CF5C07C01D34000494130A4890241EA2A
:10413000905187028E0E0A0CA45D04FB04F602FB6C
:1041400006F6C6F14046A4FB0662F60D46EA422694
:1041500006FB06F4A4FB01235242C3F1404338BFDF
:104160005B1EA6FB02420024E6FB0324D20B42EABC
:104170004446A6FB0623A1FB02E2A3FB07E4E3FB04
:1041800061426442C2F1404E38BFAEF1010EA6FB5F
:1041900004234FF00002E6FB0E32A2FB034634007C
:1041A000E2FB6264A1FB06E6A4FB07E8E4FB6168AE
:1041B0007642C8F1405838BFA8F10108A2FB06E4D6
:1041C000A3FB08E5E2FB6854A1FB05E6A7FB04E8B6
:1041D000E1FB648618F1200556F10006A809A8F154
:1041E0001B08B10908F03F08B8F10A0F40EA8660E1
:1041F0001CD901EB0C51BDE8F08100BFFCF5EEE8E5
:10420000E2DDD8D3CFCBC7C3C0BDB9B6B4B1AEAC75
:10421000A9A7A5A3A19F9D9B9A9896959392908FED
:104220008D8C8B898887868584838281A0FB00683A
:1042300000FB01F208EB4208B8EB872807D53418D9
:1042400058EB0104D5D5401C51F10001D1E7341AD7
:1042500078EB0104CDD4401E71F10001C9E75FEA9B
:104260004C0C5FEA9C5C0DD105D34FF0000001F0CF
:104270000041BDE8F081BDE8F04170B5FFF7B4FE44
:104280006DDBFFBEBDE8F0414FF000000049704714
:104290000000F87F43004FEAD30C4FEA3C0C434048
:1042A0001FBF40070CF1605113F0FE4F70471CF028
:1042B000006F03D100200CF0004170470CF0004368
:1042C00043EA507010B540EACC0000F00EF800BF91
:1042D000000000924FEA0001FFF7D4BE4FF000410A
:1042E0004FF00000A1F5002170470EF1020E2EF0F4
:1042F000030E5EF8044B244204D44FEA4102B2F1AB
:104300007F4F11D84FEA4003B3F17F4F0CD80ED145
:104310004FEAD07CB2F17F4F0CEB4C0C0CF1020C4D
:1043200008BF4CEBD17C04E04FF0080C01E04FEAF1
:10433000D17C0CEB4C0324FA03F404F00704B4F131
:10434000040C06D20EEB840CBDE810404CF0010CBE
:104350006047DFE80CF0070802024FF00040A0F5CC
:10436000800010BD0846420018BFD2F1807288BF9D
:1043700000F0004010BD4FF04070E1EE100A7047B1
:104380000000000000000000000000000000040425
:10439000040404040004000000140A0A00000000E1
:1043A00000000000000014143F140A3F0A0A000035
:1043B00000041E1505060C14150F0400000012154C
:1043C0000D0A142C2A1200000000040A0A1E1515FA
:1043D0000936000000020201000000000000000099
:1043E000002010080808080808102000000204082F
:1043F000080808080804020000000004150E0E1545
:104400000400000000000404041F04040400000071
:104410000000000000000000000202010000000097
:10442000001F00000000000000000000000000006D
:104430000002000000100808080404020202010043
:1044400000000E1111111111110E000000000406E0
:1044500004040404040E000000000E1111080402FC
:10446000011F000000000E11100C1010110E0000B2
:104470000000080C0A0A091E0818000000001F01AD
:10448000010F1010110E000000000E09010F111194
:10449000110E000000001F090804040404040000B9
:1044A00000000E11110E1111110E000000000E116E
:1044B00011111E10120E0000000000000400000088
:1044C00000040000000000000004000000040400DC
:1044D0000020100804020408102000000000000062
:1044E0001F00001F00000000000204081020100838
:1044F0000402000000000E11110804040004000072
:1045000000000E111915151D011E00000000040405
:104510000C0A0A1E1233000000000F12120E1212B3
:10452000120F000000001E1101010101110E000018
:1045300000000F1212121212120F000000001F12C0
:104540000A0E0A02121F000000001F120A0E0A02C1
:104550000207000000001C1201013911120C0000BA
:1045600000003312121E12121233000000001F044A
:1045700004040404041F000000003E0808080808A2
:1045800008090700000037120A060A0A123700005D
:104590000000070202020202223F000000001B1B73
:1045A0001B1B15151515000000003B1216161A1AD4
:1045B0001217000000000E1111111111110E000050
:1045C00000000F12120E02020207000000000E117E
:1045D00011111117190E180000000F12120E0A12F5
:1045E0001237000000001E1101060810110F000014
:1045F00000001F1504040404040E00000000331220
:1046000012121212120C000000003312120A0A0CCD
:104610000404000000001515150E0A0A0A0A00001D
:1046200000001B0A0A04040A0A1B000000001B0AFF
:104630000A040404040E000000001F090804040218
:10464000121F0000001C04040404040404041C00E1
:10465000000202020404080808100000000E080806
:104660000808080808080E0000040A0000000000FE
:104670000000000000000000000000000000003FFB
:104680000004000000000000000000000000000026
:10469000000C121C123C000000000302020E121259
:1046A000120E000000000000001C1202021C00009C
:1046B00000001810101C1212123C00000000000034
:1046C000000C121E021C000000003804041E04042A
:1046D000041E000000000000003C120C021E221C00
:1046E00000000302020E1212123700000000040044
:1046F00000060404040E000000000800000C080876
:104700000808080700000302023A0A0E12370000E8
:104710000000070404040404041F0000000000005B
:10472000000F15151515000000000000000F1212F3
:104730001237000000000000000C1212120C0000E2
:1047400000000000000F1212120E0207000000000D
:10475000001C1212121C103800000000001B060280
:104760000207000000000000001E020C101E0000E6
:1047700000000004040E04040418000000000000FF
:10478000001B1212123C0000000000000037120A49
:104790000C040000000000000015150E0A0A0000BD
:1047A00000000000001B0A040A1B000000000000BB
:1047B0000037120A0C04040300000000001E080465
:1047C000041E00000018080808040808080818005B
:1047D000080808080808080808080808000604046B
:1047E0000408040404040600022518000000000068
:1047F00000000000000000000000000000000000B9
:104800000000000000000008080808080808000070
:104810001818000000486C2412000000000000007E
:10482000000000000000002424247F1212127F12D6
:10483000121200000000081C2A2A0A0C1828282A34
:104840002A1C080800000022251515152A58545462
:10485000542200000000000C1212120A76252911C1
:10486000916E000000060604030000000000000036
:104870000000000000402010100808080808081078
:10488000102040000002040808101010101010083A
:10489000080402000000000008086B1C1C6B0808DC
:1048A0000000000000000000080808087F08080851
:1048B00008000000000000000000000000000000F0
:1048C000060604030000000000000000FE000000D7
:1048D00000000000000000000000000000000000D8
:1048E0000606000000008040402020101008080448
:1048F00004020200000000182442424242424242A6
:1049000024180000000000080E080808080808081D
:10491000083E00000000003C4242422020100804F3
:10492000427E00000000003C4242201820404042ED
:10493000221C0000000000203028242422227E2097
:10494000207800000000007E0202021A2640404249
:10495000221C0000000000382402021A26424242B3
:10496000241800000000007E222210100808080809
:10497000080800000000003C424242241824424241
:10498000423C00000000001824424242645840406B
:10499000241C0000000000000000181800000000A7
:1049A00018180000000000000000000800000000CF
:1049B0000008080400000040201008040204081049
:1049C000204000000000000000007F0000007F0089
:1049D0000000000000000002040810204020100821
:1049E000040200000000003C42424640201010003B
:1049F000181800000000001C225A555555552D422C
:104A0000221C00000000000808181414243C224254
:104A100042E700000000001F2222221E22424242E2
:104A2000221F00000000007C4242010101010142FE
:104A3000221C00000000001F224242424242424229
:104A4000221F00000000003F4212121E12120242FA
:104A5000423F00000000003F4212121E12120202EA
:104A6000020700000000003C222201010171212206
:104A7000221C0000000000E7424242427E424242C5
:104A800042E700000000003E08080808080808087F
:104A9000083E00000000007C1010101010101010D4
:104AA0001010110F0000007722120A0E0A121222B3
:104AB0002277000000000007020202020202020246
:104AC000427F000000000077363636362A2A2A2A2E
:104AD0002A6B0000000000E346464A4A52525262E6
:104AE000624700000000001C224141414141414118
:104AF000221C00000000003F424242423E020202ED
:104B0000020700000000001C2241414141414D5379
:104B1000321C60000000003F4242423E121222223C
:104B200042C700000000007C4242020418204042BC
:104B3000423E00000000007F4908080808080808F5
:104B4000081C0000000000E742424242424242424A
:104B5000423C0000000000E74242222424141418C2
:104B6000080800000000006B4949494955553622A4
:104B700022220000000000E74224241818182424F0
:104B800042E70000000000772222141408080808F9
:104B9000081C00000000007E2120101008040442C0
:104BA000423F0000007808080808080808080808BC
:104BB0000808780000000202040408080810102009
:104BC00020204040001E1010101010101010101067
:104BD00010101E000038440000000000000000001B
:104BE00000000000000000000000000000000000C5
:104BF000000000FF000608000000000000000000A8
:104C000000000000000000000000003C4278444228
:104C100042FC0000000000030202021A2642424247
:104C2000261A0000000000000000003844020202C2
:104C30004438000000000060404040784442424256
:104C400064D80000000000000000003C427E020228
:104C5000423C0000000000F08808087E08080808B0
:104C6000083E0000000000000000007C22221C0220
:104C70003C42423C000000030202023A46424242E9
:104C800042E700000000000C0C00000E08080808B5
:104C9000083E0000000000303000003820202020B6
:104CA0002020221E0000000302020272120A1612C5
:104CB000227700000000000E08080808080808080D
:104CC000083E0000000000000000007F92929292D7
:104CD00092B70000000000000000003B4642424244
:104CE00042E70000000000000000003C4242424257
:104CF000423C0000000000000000001B264242422F
:104D0000221E0207000000000000007844424242D8
:104D1000447840E000000000000000774C040404E8
:104D2000041F0000000000000000007C42023C4024
:104D3000423E0000000000000008083E0808080885
:104D400008300000000000000000006342424242C0
:104D500062DC000000000000000000E74224241490
:104D60000808000000000000000000EB494955550C
:104D7000222200000000000000000076241818180D
:104D8000246E000000000000000000E7422424140C
:104D900018080807000000000000007E2210080824
:104DA000447E000000C02020202020102020202051
:104DB0002020C00010101010101010101010101033
:104DC0001010101000060808080808100808080845
:104DD000080806000C32C2000000000000000000BD
:104DE00000000000C9EE000027FC140414A4811088
:104DF00042084040104017FC2040E0E0215022488B
:104E00002C4620400040DBDA110411241124112427
:104E10001124FD24112411241124112411241D24F2
:104E2000E124422402040404CAD00200010000006C
:104E30007FFC0100010001003FF821082108210842
:104E400021082128211001000100C8AB000000004A
:104E5000018002400430180860061FF901000100BB
:104E600001003FF80100010001007FFEB6AF000025
:104E7000000000203E20007C002200227F22102221
:104E8000102212221222224223423D82009CB5E7C8
:104E90000000010001001FF0610C410441047FFC8F
:104EA0004104410441047FFC01000102010201FCB4
:104EB000D7D3000000003FF8001000600080010020
:104EC00000807FFE004000400020002000201840AD
:104ED0000780BCBC10201020102013FEFC201020E6
:104EE000102015FC18843088D04810501020105025
:104EF00051882606CAF501000120011001107FFC2F
:104F00000380054005400920111021084104810259
:104F1000010001000100D3D002000200FFFE0400E6
:104F200004000FF0081018102FF0481088100FF030
:104F30000810081008500820CFDE00007BF84A084F
:104F4000520853F8620852084BF84A444A486A30FB
:104F500052204210428843064200B9AB00800480D0
:104F600004800840084010202010420882060400F7
:104F70000440082010203FF010100000CBBE0000BD
:104F80003FF8000800087FE8000800081F88108824
:104F90001088108810881F88108800280010BBB661
:104FA00000800080FC8004FC050449082A4014406D
:104FB000104028A024A04510811002080404080213
:104FC000D3AD00002080133C122402240224F224DA
:104FD0001224122412B4132812201020282047FE75
:104FE0000000C4FA0900090011FC32045448995029
:104FF000114812441444114010800200510451120F
:1050000090120FF0B4BF00000020102013FE2020EB
:1050100026244A247A241224222423FC7C200022E1
:1050200004227822003CC9AB0000000004000FF00D
:10503000102020207FFC20842084208420843FF8BE
:105040002000200220021FFECCEE000000002040C5
:1050500023FE204079FC220423FC220423FC2204AA
:1050600023FC3A0465FA01980204B3E4000001004D
:1050700001007FFE02200410040808043FFC0442E3
:1050800004400440044208421042607EBED8000042
:105090000000207E3E804880488048FE48827F8213
:1050A00008820C8214FA12842280218040FED0CE25
:1050B000000000007F842208223022C02202220445
:1050C0007FC8223022C2220222042208223040401D
:1050D000BBAD000000007FFE00000FF011101110AA
:1050E000111051125FF25112511251124FF240023F
:1050F0007FFCD4B2000000007FFE47E24812481255
:1051000047E24FF250125012511251124292447221
:10511000580A3FFCCDBC000000003FFE440247F2AD
:105120004C225362408243625E1A418240624302D3
:1051300040C240223FFCC6AC00000040204020405E
:1051400020403FFE2000200020003FE020102010E3
:105150002010201040104010CFD4000000003FFC71
:10516000200420043FFC200420041FF82444144899
:10517000144814480C5004407FFECABE00000000D2
:105180003FFC0000000000007FFE008008900888BF
:10519000108810842084208240820780B2CB0000D7
:1051A000002008207FFE002000783F88110808902A
:1051B00009207FFE018003400D30310C4002B5A56F
:1051C00000000010081004203FF8210421043FFCD7
:1051D000210421043FF801007FFE010001000100CD
:1051E000D6D000000100010001003FFC2104210491
:1051F00021042104210421043FFC010001000100DD
:105200000100D3A20000000008207FFE0820092032
:1052100001003FF82108210821081FF40140022065
:105220000C10700ECEC400000100010000803F7C15
:1052300008100810041004200220024001800180A0
:1052400002601C18E006D7DB00000000102011FEF1
:105250002202220249FC5800300013FE252879243E
:1052600001240D24722202A2BACF000000000180A6
:1052700002400430180860061FF800001FF82004E0
:1052800020042004200420041FF8C1C100000100F4
:1052900001007FFE00003FF820083FF83FF840067D
:1052A00047C24824082008221022603EB6C80000E9
:1052B000000000803FFE44105FFC4410441043F0A7
:1052C00040005FF84408423041C04360BC1EB2E277
:1052D0000000000067C2145205520552C552255203
:1052E0000552055215521752228222424442483E2C
:1052F000CAD4000000002014101417FE0012001081
:10530000601013F0109010901090149214EA1F0A7D
:105310000006B3CC0000000019FE72021202120255
:105320007DFC18001BFE3420502053FE102010205E
:10533000102013FED0F20000000000803FFE40006D
:1053400047FC4208413040C05FFE4042404240447A
:10535000404840404440B5F70000000023FE1222C0
:1053600002FA0222E22212FE1272128A128A128AB1
:1053700016BA1A421202040EB9E20000010001043A
:1053800011080908091009207FFE04400440044068
:105390000440084208421042607CB0E60000000071
:1053A00048FE4900490049007EFE4182414479445B
:1053B000452845284510452846440382C8A80000D2
:1053C0001000100013FC7D041104190418843488A3
:1053D0005048505010201050108813041402CBF97C
:1053E000000000003F7C204020403E40227E2244BE
:1053F000224422443E842084208440844104420488
:10540000C6C100003FF8200820083FF824102220E1
:105410002FF8222022203FFC2220422044208420FA
:105420000820C4BB04407FFC04401FF010101FF094
:1054300010101FF00400FFFE11103FF8D11611509C
:1054400011200100D0FD2080108010FE0100FE0020
:1054500021FC20243C2424A024A024BC24A024A09B
:105460004560553E8A00D7AA202020202020FDFC40
:105470004020504093FEFC40108011FC1C04F0883A
:105480005050102010101010BFAA00007FFC082000
:105490000820082008200820FFFE082008200820F7
:1054A00008201020102020204020D4B4000027FE27
:1054B0001420144085FC450445FC150415FC2524E6
:1054C000E42024A829242A2230A00040D2BA008057
:1054D000204017FE11208120423C42441664129461
:1054E0002348E24822302220225022880306BEA709
:1054F0000FE0082008200FE0082008200FE000003F
:105500007EFC428442847EFC428442847EFC42844F
:10551000CDF800007FFC40044004421452944A54E9
:10552000442444244A544A5452946104400440148C
:105530004008D5BE1020082008207E20003E042010
:105540004420442025FC290429040F04F1044104CB
:1055500001FC0104B0B410401020102013FEFA0228
:10556000144410401BFE3088D088110810D0102041
:10557000105050882304BCFC201020103B7C2114C8
:1055800041FE7A14A27C2710F97C251025FE2210FA
:105590002A10350028FE0000D0A310401020102053
:1055A00011FEFC00108831043A0254885088905053
:1055B00010501020105010881306D7BC0140412015
:1055C000212023FE022016201BFC1220222023FC77
:1055D000E2202220222023FE22000200B4A5202067
:1055E0002020782049FC91247D24552455247DFCDD
:1055F000552454207C28542457FE45028C00C3FEB9
:105600001110111017FC1110FC0013F8120817F8F4
:105610001A0833F8D04017FC10A0111052082406C5
:10562000C9EE0000000000001000000800080C7F18
:10563000FC04401001C8A002186042301832231840
:1056400012C30014030004030C047FF0080F800849
:105650000B4078136018332018631818831C190343
:1056600008180300000300000000DBDA000000005F
:10567000000004100C04180C04108C04108C04108E
:105680008C04108C04D08C3F108C04108C04108C73
:1056900004108C04108C04108C04108C05F08C0EFB
:1056A000208C78208C20408C00808C01000C020023
:1056B0000C000000CAD00000000000000030000014
:1056C000180000180800001C1FFFE0001800001858
:1056D0002007FFF0041820041820041820041820C4
:1056E000041820041820041820041820041820048A
:1056F00018E0041840001800001800000000D6D080
:105700000000000000000000000000000018000081
:1057100018000018000018003FFFFE30180630186F
:10572000063018063018063018063FFFFE301806FF
:1057300000180000180000180000180000180000F1
:105740000000000000000000CEC4000000000000C7
:10575000000000003800001C00000600FFFFFF06EC
:1057600000300600300300600300600180C000C10B
:105770008000E300003600001C0000770003C1E059
:105780001E003C6000070000000000000000000058
:105790000000B2E200000000000000000000000075
:1057A00040000321FF33398333118333019B33C11D
:1057B0009B33719B33199B33019B33019B33119BAB
:1057C0003319B333303033306C0330C60363830393
:1057D0002E01BE000000000000000000CAD400003E
:1057E000000000000000000000004000D83000CEA3
:1057F0001800C21C00C001FFFF0000C0F800C01864
:1058000000C019FFC01818401818601918601B183C
:10581000611E18311C1FB139F01910000F00000073
:10582000000000000000D7D60000000000060000C5
:10583000000300000000C0000001C0C0000107C05C
:105840000001FF00021FFE0007F01C0007C07000EF
:105850000F00E0000E03F0001C0FF0003C0F700082
:105860003C00E0001800C0000000C0000000C000C4
:105870000000600000002000000037000001FF0071
:10588000007FF80007F830001F80300000803000F3
:1058900000C03000006060000018E000000FC00091
:1058A0000006000000000000CCE500000000000041
:1058B0000000000000C0000000E0002001B80070FF
:1058C0003FF80061FFC000C3030001C60600038C5F
:1058D000060003080C0006080C000E18183F1E10E6
:1058E0001BF31F903F0700803C1C0190707C0190CF
:1058F00060FE01A0C3F801A00FD803A00818036040
:1059000000180340001803C00018038000180300AB
:105910000018000000180000001000000030000017
:1059200000300000000000000000B2E200000000B3
:10593000000000000000000000000000020C100841
:10594000071FF80403BFF00201BC300303EC30036F
:10595000015C600300D8600300D860038098620394
:1059600061B8430771B14306313243063376C3064B
:105970003A64C7063EECC0063E78C0063C3040069E
:105980007C70000678E060067BFFF006F7C000063A
:10599000E400000640000006000000060000007C55
:1059A00000008FF000007C0000000000CAD400005E
:1059B0000000000000000000000000003F000000A8
:1059C0007F8000000180000000C0000000C00000D7
:1059D00000CE038000CFFFC000DD41800FFE000736
:1059E000FFFC000C00F000180FC03E19FF40F3113F
:1059F000BC6083307FE003B1FE200333802003705E
:105A00000030036000100360001807C0000C07C0DE
:105A100000040780000201000003000000010000F4
:105A20000000000000000000000000000000000076
:105A3000FFFFFFFFFFFFFFFFFFFFFFFFFFFFFFFF76
:105A4000FFFFFFFFFFFFFFFFFFFFFFFFFFFFBEF7AF
:105A5000FFFFDEFF38C6928C8E6B6E6B107C96ADAE
:105A60003CE7FFFFFFFFFFFFFFFFFFFFFFFFFFFF21
:105A7000FFFFFFFFFFFFFFFFFFFFFFFFFFFFFFFF36
:105A8000FFFFFFFFFFFFFFFFFFFFFFFFFFFFFFFF26
:105A9000FFFFFFFFFFFFFFFFFFFFFFFFFFFF5DEFC8
:105AA000159D4F636C420A328829461925194521F4
:105AB000E8318E6B38C6FFFFFFFFFFFFFFFFFFFFE0
:105AC000FFFFFFFFFFFFFFFFFFFFFFFFFFFFFFFFE6
:105AD000FFFFFFFFFFFFFFFFFFFFFFFFFFFFFFFFD6
