:020000040800F2
:10000000E0060020953500080F0E0008110E0008CC
:10001000150E0008190E00081D0E00080000000053
:10002000000000000000000000000000210E000899
:10003000230E000800000000250E0008270E00080F
:10004000AF350008AF350008AF350008AF35000800
:10005000AF350008AF350008AF350008AF350008F0
:10006000AF350008AF350008AF350008AF350008E0
:10007000AF350008AF350008AF350008AF350008D0
:10008000AF350008AF350008AF350008AF350008C0
:10009000AF350008AF350008AF350008AF350008B0
:1000A000AF350008AF350008AF350008AF350008A0
:1000B000AF350008AF350008AF350008AF35000890
:1000C000AF350008AF350008AF350008AF35000880
:1000D000AF350008AF350008AF350008AF35000870
:1000E000AF350008AF350008AF350008AF35000860
:1000F000AF350008AF350008AF350008AF35000850
:10010000AF350008AF350008AF350008AF3500083F
:10011000AF350008AF350008AF350008AF3500082F
:10012000AF350008AF350008AF350008AF3500081F
:1001300000F002F800F03AF80AA090E8000C8244BF
:100140008344AAF10107DA4501D100F02FF8AFF29C
:10015000090EBAE80F0013F0010F18BFFB1A43F0A5
:1001600001031847F06B0000106C0000103A24BF28
:1001700078C878C1FAD8520724BF30C830C144BF0C
:1001800004680C607047000000230024002500264E
:10019000103A28BF78C1FBD8520728BF30C148BFEA
:1001A0000B6070471FB51FBD10B510BD03F08CFE6E
:1001B0001146FFF7F7FF00F00DFE03F0AAFE03B4AF
:1001C000FFF7F2FF03BC03F0ADFE000070B505467B
:1001D0000E4614463146284601F03AFE204601F00C
:1001E000FCFD70BD2DE9F05F04460D4616461F4626
:1001F000301B401C1FFA80FA781B401C1FFA80FB42
:100200003B4632462946204601F0F8FD4FF00008F3
:100210000FE04FF0000906E00A9801F0DEFD09F159
:1002200001001FFA80F9D145F6DB08F101001FFA41
:1002300080F8D845EDDBFE484088401E83B2FC487C
:100240000088401E82B20021084601F0D7FDBDE8BB
:10025000F09F2DE9FF4F85B081468A46002004902B
:1002600003900798A0EB09050898A0EB0A06CDF8C3
:100270000890CDF804A0002D01DD012705E00DB99F
:10028000002702E04FF0FF376D42002E02DD4FF0F5
:10029000010806E016B94FF0000802E04FF0FF3801
:1002A0007642B54201DD2C4600E034464FF0000BAB
:1002B00021E0019A91B2029A90B201F0D3FD049824
:1002C000284404900398304403900498A04205DD2C
:1002D0000498001B04900298384402900398A042AE
:1002E00005DD0398001B03900198404401900BF139
:1002F00001001FFA80FB601C8345DADD09B0BDE810
:10030000F08F2DE9F04104460D4616461F462B4658
:10031000324629462046FFF79CFF3B4622462946A7
:100320002046FFF796FF3B46324639462046FFF708
:1003300090FF3B46324629463046FFF78AFFBDE82C
:10034000F081F8B504460D4616461F46B9480088A8
:100350003B463246294600902046FFF743FFF8BD52
:100360002DE9F04104460D4616461F46DDF818807B
:10037000EA1991B2A21990B24246FFF727FFEA1993
:1003800091B2A21B90B24246FFF720FFEA1B91B246
:10039000A21990B24246FFF719FFEA1B91B2A21BC5
:1003A00090B24246FFF712FFAA1991B2E21990B239
:1003B0004246FFF70BFFAA1991B2E21B90B24246E8
:1003C000FFF704FFAA1B91B2E21990B24246FFF771
:1003D000FDFEAA1B91B2E21B90B24246FFF7F6FE69
:1003E000BDE8F0812DE9FF4F81B08246174698465F
:1003F000DDF838B0002445464FEA4800C0F1030656
:10040000BBF1000F1FD01BE0A14608E04B4622467F
:10041000009750460299FFF7A3FF09F10109A9458A
:10042000F4DD002E04DA042000FB0460861D06E0E3
:10043000601B042101FB006000F10A066D1E641CB4
:10044000AC42E1DD18E015E02B462246009750460D
:100450000299FFF785FF002E04DA042000FB0460F8
:10046000861D06E0601B042101FB006000F10A0606
:100470006D1E641CAC42E7DD05B0BDE8F08F2DE9D0
:10048000F04704460D4616461F46DDE908893B46FF
:10049000324629462046FFF7DCFE4B4642463946A7
:1004A0003046FFF7D6FE2B46224649464046FFF728
:1004B000D0FEBDE8F08702880B8803800A80704771
:1004C0002DE9FF4F85B000260027BDF81800BDF8C4
:1004D0002010884207DD08A906A8FFF7ECFF07A94E
:1004E00005A8FFF7E8FFBDF82000BDF84C108842D2
:1004F00007DD08A913A8FFF7DEFF07A912A8FFF779
:10050000DAFFBDF81800BDF82010884207DD08A901
:1005100006A8FFF7D0FF07A905A8FFF7CCFFBDF895
:100520001800BDF84C10884238D1BDF81400039073
:100530000490BDF81C00BDF81010884203DABDF825
:100540001C00049008E0BDF81C00BDF80C108842A7
:1005500002DDBDF81C000390BDF84800BDF8101086
:10056000884203DABDF84800049008E0BDF848006E
:10057000BDF80C10884202DDBDF8480003902D48FC
:1005800000880090BDF81830BDF80C201946BDF861
:100590001000FFF727FE09B0BDE8F08FBDF81C0082
:1005A000BDF81410A0EB010BBDF82000BDF8181029
:1005B000401A0290BDF84800BDF81410451ABDF865
:1005C0004C00BDF81810A0EB0109BDF84800BDF8BB
:1005D0001C10A0EB010ABDF84C00BDF82010401A19
:1005E0000190BDF82000BDF84C10884202D1BDF842
:1005F000208004E0BDF82000401E1FFA80F8BDF8FE
:1006000018402CE0029896FBF0F0BDF81410084456
:1006100080B2049097FBF9F0BDF81410084480B242
:1006200003905E442F44BDF81000BDF80C1003E0A9
:100630006C0000201E000020884203DD03A904A8EE
:10064000FFF739FFFE48008823460090BDF80C20D4
:100650002146BDF81000FFF7C5FD601C84B244457B
:10066000D0DDBDF82000201A00FB0AF6BDF8180006
:10067000201A00FB05F727E0019896FBF0F0BDF883
:100680001C10084480B2049097FBF9F0BDF81410D8
:10069000084480B2039056442F44BDF81000BDF8C2
:1006A0000C10884203DD03A904A8FFF704FFE44807
:1006B000008823460090BDF80C202146BDF81000AC
:1006C000FFF790FD601C84B2BDF84C008442D3DD7E
:1006D00000BF60E72DE9FF4F83B081468A4693460D
:1006E000DDE91064D64800880290A6F12000C6B269
:1006F00004EBD47009EB6000401E82B20AEB0400E8
:10070000401E83B251464846019401F077FB12988F
:1007100050BB002525E00C2C07D106EB4600C9494B
:1007200001EB800010F8058004E0C74800EB0610DC
:1007300010F8058000270DE008F0010018B15846B8
:1007400001F04BFB02E0069801F047FB4FEA680816
:10075000781CC7B204EBD471B7EB610FECDB681CFB
:10076000C5B2A542D7DB2DE0002529E00C2C07D12E
:1007700006EB4600B34901EB800010F8058004E069
:10078000B14800EB061010F80580002711E0AC48D6
:10079000A0F800B008F0010038B10AEB050291B2F0
:1007A00009EB070290B201F05DFB4FEA6808781C84
:1007B000C7B204EBD471B7EB610FE8DB681CC5B2BC
:1007C000A542D3DB9E4902980880A0484088401E7D
:1007D00083B29E480088401E82B20021084601F084
:1007E0000DFB07B0BDE8F08F2DE9FE4306460F462E
:1007F00015461C46DDF828801DE094480088401E00
:10080000B04204DB91484088401EB84201DABDE89E
:10081000FE8320788DE821018D480388884802886E
:1008200039463046FFF756FF284605EBD07106EBF8
:1008300061018EB2641C20787E2802DC207820289A
:10084000DBDA00BFE3E710B50246012000E05043C9
:100850000B1EA1F10104E1B2F9D110BD2DE9FF4F4A
:1008600083B0074691461E46109C4FF0000A0025B3
:1008700043E0701B401EC1B20A20FFF7E4FFB9FB42
:10088000F0F00A21B0FBF1F201FB1208BAF1000FFF
:100890001BD1701EA84218DDB8F1000F13D1002043
:1008A0002021A346CDE90014029004EBDB7149102E
:1008B00001FB057188B266490B8861490A88049971
:1008C000FFF708FF17E04FF0010A002108F13000A0
:1008D000C0B2A346CDE90141009004EBDB714910A1
:1008E00001FB057188B25A490B8855490A88049959
:1008F000FFF7F0FE00BF681CC5B2B542B9DB07B018
:10090000BDE8F08F2DE9FC5F0546884691469A4682
:10091000DDF830B000953E20019000245FE004EB4C
:1009200004104C4911F810009BF80010884253D174
:1009300004EB0410474901EB400040789BF801109C
:10094000884249D108F10F0083B205F10F0082B24D
:100950004146284601F052FA00263BE0002734E0E9
:100960000D9890B904EB04103A4901EB4000801C4B
:10097000805D80213941084018B1484601F02DFAC8
:1009800021E0504601F029FA1DE02D48A0F8009022
:1009900004EB04102F4901EB4000801C805D802196
:1009A0003941084018B14146284601F05BFA681CFD
:1009B00085B20098281A102805D1009D08F1010081
:1009C0001FFA80F803E0781CC7B2082FC8DB00BF0D
:1009D000701CC6B2202EC1DB00BF601C84B201981F
:1009E00084429CDB19484088401E83B21748008827
:1009F000401E82B20021084601F000FABDE8FC9FCB
:100A00002DE9FC5F0546884691469A46DDF830B0F0
:100A1000009507200190002476E004EB840000EBB1
:100A200044100D4911F810009BF80010884268D15D
:100A300004EB840000EB4410074901EB40000DE09B
:100A40001E00002062490008D64D00086C000020FE
:100A500020000020C6530008025C000840789BF884
:100A6000011088424DD108F1170083B205F117003B
:100A700082B24146284601F0C1F900263FE0002736
:100A800038E00D98A0B904EB840000EB4410CD4988
:100A900001EB4000801C805D80213941084018B185
:100AA000484601F09AF923E0504601F096F91FE01C
:100AB000C548A0F8009004EB840000EB4410C14945
:100AC00001EB4000801C805D80213941084018B155
:100AD0004146284601F0C6F9681C85B20098281ADC
:100AE000182805D1009D08F101001FFA80F803E0E5
:100AF000781CC7B2082FC4DB00BF701CC6B2482EDA
:100B0000BDDB00BF601C84B20198844285DBAF4826
:100B10004088401E83B2AD480088401E82B200214A
:100B2000084601F06BF9BDE8FC9F2DE9FC5F054626
:100B3000884691469A46DDF830B000950420019031
:100B400000245FE004EB8410A14911F810009BF829
:100B50000010884253D104EB84109D4901EB400002
:100B600040789BF80110884249D108F11F0083B2F8
:100B700005F11F0082B24146284601F03FF90026E8
:100B80003BE0002734E00D9890B904EB84109049C5
:100B900001EB4000801C805D80213941084018B184
:100BA000484601F01AF921E0504601F016F91DE01F
:100BB0008548A0F8009004EB8410854901EB4000C3
:100BC000801C805D80213941084018B1414628468B
:100BD00001F048F9681C85B20098281A202805D130
:100BE000009D08F101001FFA80F803E0781CC7B2ED
:100BF000082FC8DB00BF701CC6B2802EC1DB00BF4F
:100C0000601C84B2019884429CDB70484088401E7E
:100C100083B26E480088401E82B20021084601F06F
:100C2000EDF8BDE8FC9F2DE9FF4F83B006468846EE
:100C30009146DDE91147109DB2464FF0000B71E07F
:100C4000BBF1000F40D104EBD471604A1288A2EBD3
:100C50006101B14204DB5D494988091B414502DA63
:100C600007B0BDE8F08F2878802802DD4FF0010B37
:100C700058E028780D2806D108EB04001FFA80F808
:100C800056466D1C1EE0102C0DDD102128788DE8D5
:100C900083004A4641463046069BFFF71BFD06F19E
:100CA000080086B20EE028788DE891004A46414659
:100CB0003046069BFFF70EFD204604EBD07106EB95
:100CC00061018EB26D1C2DE040480088001BB042CF
:100CD00004DB3E484088001B404500DAC0E74FF087
:100CE000000B202C08D1CDE900574A46414630463A
:100CF000069BFFF71AFF12E0182C08D1CDE9005728
:100D00004A4641463046069BFFF77AFE07E0CDE9AA
:100D100000574A4641463046069BFFF7F3FDAD1C9F
:100D2000301986B2287800288AD100BF98E72DE9CB
:100D3000FE4F0E4617469846DDE90D9A0C9C20465C
:100D400003F08CF885B221490988A1EBC50000EBBE
:100D5000D071C1F34F0B43463A46314658468DE8B1
:100D60001006FFF760FFBDE8FE8F2DE9F04706464D
:100D70000F46154607F1270083B206F1270082B21D
:100D80003946304601F03AF800240AE015F814908C
:100D900005EB440090F8018049EA082001F01DF8B5
:100DA000641CB4F5C86FF1DB08484088401E83B26C
:100DB00006480088401E82B20021084601F01EF855
:100DC000BDE8F087025C00081E0000206C000020D7
:100DD000085E000800F097F8482002F0E9FF01F0F3
:100DE000F2F813E000F04BF900F087F900F0F3F9A6
:100DF00000F0B5FA00F0E0FB00F087FB00F0CAFC61
:100E000000F005FD00F022FE00F056FEEAE7704714
:100E100000BFFEE700BFFEE700BFFEE700BFFEE742
:100E200070477047704770470CB5002001900090E4
:100E30006C48006840F480306A49086000BF694827
:100E4000006800F4003000900198401C0190009868
:100E500018B90198B0F5A06FF1D16248006800F4AC
:100E6000003010B10120009001E0002000900098B7
:100E7000012843D15C48006840F010005A490860DE
:100E80000846006820F0030008600846006840F04B
:100E9000020008605348406852494860084640686C
:100EA00048600846406840F48060486008464068F2
:100EB00020F47C1048600846406840F4E810486020
:100EC0000846006840F08070086000BF4548006830
:100ED00000F000700028F9D04248406820F003007C
:100EE000404948600846406840F00200486000BF42
:100EF0003C48406800F00C000828F9D10CBD10B542
:100F0000FFF792FF10BD10B53648006840F00100B1
:100F1000344908600846406834490840314948600F
:100F200008460068324908402E49086008460068B3
:100F300020F4802008600846406820F4FE004860E5
:100F40004FF41F008860FFF7DAFF4FF00060294977
:100F5000086010BD10B5002100200022214B5B6805
:100F600003F00C0121B1042906D0082928D107E09B
:100F7000214B224C236027E01F4B204C236023E0B1
:100F8000184B5B6803F47010164B5B6803F48032F7
:100F9000022303EB904022B9194B4343174C2360C3
:100FA0000DE0104B5B6803F4003323B1144B434353
:100FB000124C236003E0104B4343104C236003E0CA
:100FC0000D4B0E4C236000BF00BF064B5B68C3F3A4
:100FD00003130C4CE15C094B1B68CB40074C2360AE
:100FE00010BD000000100240002002400000FFF889
:100FF000FFFFF6FE08ED00E000127A00000000207E
:1010000000093D00040000203EB504464FF6FF7085
:1010100000F034FF1F200090FE48028814230021B6
:101020000846FFF7DFF81F200090FA48438802883F
:101030004088143881B20020FFF7D4F84FF6FF70D3
:10104000F5490880012010211F234FF6FF72CDE9DA
:101050000041029002210020FFF769FE01201021CB
:10106000EEA2CDE900210290EA484088123881B210
:101070001F234FF6FF720020FFF759FE3EBD0EB54D
:10108000ECA0FFF7C1FF01201021F0A21F23CDE942
:1010900000210290DA021E210020FFF748FE012005
:1010A0001021E6A21F23CDE900210290DA023C21A3
:1010B0000020FFF73CFE01201021E7A21F23CDE90D
:1010C000002102904FF4FC625A210020FFF72FFE0E
:1010D00001201021E6A21F23CDE9002102901A462B
:1010E00078210020FFF723FE40F2DC5002F07AFE68
:1010F00040F2DC5002F076FE0EBD0EB54FF6FF70EA
:101100000090C4484388028800210846FFF76AF827
:1011100001201021DCA24FF6E073CDE900210290FE
:101120001F221E211420FFF77EFD4FF4487002F0AD
:1011300059FE4FF478400090B64843880288002159
:101140000846FFF74FF801201021D1A24FF6E073B7
:10115000CDE9002102901F221E211420FFF763FD1C
:101160004FF4487002F03EFE4FF4FC600090A94836
:101170004388028800210846FFF734F80120102137
:10118000C5A24FF6E073CDE9002102901F221E2177
:101190001420FFF748FD4FF4487002F023FE1F2093
:1011A00000909C484388028800210846FFF71AF8FF
:1011B00001201021BAA24FF6E073CDE90021029080
:1011C0004FF478421E211420FFF72DFD4FF4487094
:1011D00002F008FE0EBD2DE9F8430024B2A0FFF78F
:1011E00013FF4FF6FF7000908A484088143883B28E
:1011F0008848028814210020FEF7F4FF00BF48E071
:10120000AF4830F8140084490880DFF808C2BCF801
:10121000025005EBD57C4FEA6C0CACF1500CC4EBE2
:101220000419CC440CF13C0C1FFA8CF3DFF8E4C138
:10123000BCF8006006EBD67C4FEA6C0CACF1500CAD
:10124000C4EB0419CC440CF13C0C1FFA8CF2DFF80F
:10125000C4C1BCF8027007EBD77C4FEA6C0CACF150
:10126000500CC4EB0419CC441FFA8CF1DFF8A4C174
:10127000BCF8008008EBD87C4FEA6C0CACF1500C49
:10128000C4EB0419CC441FFA8CF0FFF73AF8601C49
:10129000C4B2052CB4DB40F2DC5002F0A3FD4FF6E3
:1012A000FF7000905B484088143883B25948028828
:1012B00014210020FEF796FF002448E0804830F813
:1012C000140055490880DFF84CC1BCF8026006EBF9
:1012D000D67C4FEA6C0CACF1500CC4EB0419CC4436
:1012E0000CF13C0C1FFA8CF3DFF828C1BCF800703D
:1012F00007EBD77C4FEA6C0CACF1500CC4EB041933
:10130000CC440CF13C0C1FFA8CF2DFF808C1BCF89D
:10131000028008EBD87C4FEA6C0CACF1500CC4EBAB
:101320000419CC441FFA8CF1DFF8E8C0BCF8005077
:1013300005EBD57C4FEA6C0CACF1500CC4EB0419F6
:10134000CC441FFA8CF0FEF7FCFF601CC4B2052CE5
:10135000B4DB40F2DC5002F045FDBDE8F883F8B59F
:10136000002458A0FFF750FE4FF6FF700090294868
:101370004088143883B22748028814210020FEF7E1
:1013800031FF00BF1FE00020224B00905D8805EB7D
:10139000D5735B10323B04EBC40707EB0417D91974
:1013A0001C4B1E8806EBD6735B10503B04EBC40746
:1013B00007EB0417D819424B33F814201E23FFF70C
:1013C00011F8601CC4B2052CDDDB40F2DC5002F0E9
:1013D00009FD4FF6FF7000900E484088143883B224
:1013E0000C48028814210020FEF7FCFE002484E053
:1013F0000120084B00905D8805EBD5735B10323BF4
:1014000004EBC40707EB0417D919024B1E8806EB3F
:10141000D67363E06C0000201E00002068747470B6
:101420003A2F2F7777772E6C636477696B692E6319
:101430006F6D0000C8ABB6AFB5E7D7D3D7DBBACF77
:10144000B2E2CAD4B3CCD0F200000000C8ABB6AF51
:10145000B5E7D7D300000000332E352220494C4990
:1014600039343838203332305834383000000000F6
:10147000507A784051447465636820323031382D99
:1014800030382D3036000000424C20546573740013
:101490005245442000000000475245454E200000C0
:1014A000424C554520000000B2E2CAD4323A4755BA
:1014B00049BED8D0CECCEEB3E4B2E2CAD40000002C
:1014C00014000020B2E2CAD4333A475549BBADD428
:1014D000B2CCEEB3E4B2E2CAD40000005B10503BE1
:1014E00004EBC40707EB0417D819E84B33F81420B2
:1014F0001E23FEF777FF601CC4B2052CFFF678AF01
:1015000040F2DC5002F06EFCF8BD0EB5E0A0FFF733
:101510007BFD00200C21E3A24FF6E073CDE9002112
:1015200002901F221E210A20FFF77DFB01200C21C3
:10153000E7A24FF6E073CDE9002102901F222D2192
:101540000A20FFF770FB00200C21ECA24FF6E0739D
:10155000CDE9002102901F223C210A20FFF763FB06
:1015600000201021EDA24FF6E073CDE9002102909A
:101570001F2250210A20FFF756FB01201021F2A262
:101580004FF6E073CDE9002102901F2264210A206A
:10159000FFF749FB00201021F6A24FF6E073CDE9DA
:1015A000002102901F2278210A20FFF73CFB4FF414
:1015B000966002F017FC0EBD2DE9FC5F0024F5A03B
:1015C000FFF722FD4FF6FF700090F948408814386D
:1015D00083B2F748028814210020FEF703FE00BF03
:1015E0005DE0AA4830F81400F2490880F0484588C8
:1015F00005EBD57040101438C4EB0411084481B2D7
:10160000EB48068806EBD6704010153804EB8402D0
:1016100000EB820080B2DFF898C3CDE90001BCF88E
:10162000027007EBD77C4FEA6C0CACF1490CC4EBB1
:10163000041BDC441FFA8CF3DFF874C3BCF8008091
:1016400008EBD87C4FEA6C0CACF1330C04EB840B48
:101650000CEB8B0C1FFA8CF2DFF854C3BCF8029031
:1016600009EBD97C4FEA6C0CACF1140CC4EB041BF5
:10167000DC441FFA8CF1DFF838C3BCF800A00AEB99
:10168000DA7C4FEA6C0CACF1500C04EB840B0CEBE5
:101690008B0C1FFA8CF0FEF7F2FE601CC4B2052C16
:1016A0009FDB40F2DC5002F09DFB4FF6FF70009094
:1016B000BF484088143883B2BD48028814210020F6
:1016C000FEF790FD00245DE0704830F81400B94941
:1016D0000880B748458805EBD57040101438C4EB36
:1016E0000411084481B2B248068806EBD670401057
:1016F000153804EB840200EB820080B2DFF8B0C240
:10170000CDE90001BCF8027007EBD77C4FEA6C0C06
:10171000ACF1490CC4EB041BDC441FFA8CF3DFF87A
:1017200090C2BCF8008008EBD87C4FEA6C0CACF19E
:10173000330C04EB840B0CEB8B0C1FFA8CF2DFF8F0
:1017400070C2BCF8029009EBD97C4FEA6C0CACF18A
:10175000140CC4EB041BDC441FFA8CF1DFF850C2FC
:10176000BCF800A00AEBDA7C4FEA6C0CACF1500C30
:1017700004EB840B0CEB8B0C1FFA8CF0FEF7A0FE35
:10178000601CC4B2052C9FDB40F2DC5002F02AFB47
:10179000BDE8FC9F0EB588A0FFF736FC00201021A5
:1017A0008AA24FF6E073CDE9002102901F221E218C
:1017B0000A20FFF738FA002010218DA24FF6E073BF
:1017C000CDE9002102901F2232210A20FFF72BFAD7
:1017D000012018218CA24FF6E073CDE90021029080
:1017E0001F2246210A20FFF71EFA012020218CA289
:1017F0004FF6E073CDE9002102901F2264210A20F8
:10180000FFF711FA4FF4966002F0ECFA0EBD0EB538
:1018100087A0FFF7F9FB8B4A1E210846FFF7A5FAC0
:101820000120102188A24FF6E073CDE9002102903B
:101830001F224B212A20FFF7F6F9824A1E215A2047
:10184000FFF793FA012010217FA24FF6E073CDE954
:10185000002102901F224B216620FFF7E4F9794A0C
:101860001E219620FFF781FA0120102176A24FF663
:10187000E073CDE9002102901F224B21A220FFF747
:10188000D2F94FF4966002F0ADFA0EBD14000020BC
:10189000B2E2CAD4353AD3A2CEC4CFD4CABEB2E2E1
:1018A000CAD40000365831323A61626364656667B3
:1018B00068696A6B6C6D6E6F707172737475767730
:1018C00078797A30313233343536373839000000A0
:1018D000365831323A4142434445464748494A4BDB
:1018E0004C4D4E4F505152535455565758595A30EB
:1018F000313233343536373839000000365831321A
:101900003A7E21402324255E262A28295F2B7B7DD1
:101910003A3C3E3F2F7C2D2B2E00000038583136AC
:101920003A6162636465666768696A6B6C6D6E6F65
:10193000707172737475767778797A3031323334A6
:101940003536373839000000385831363A4142438D
:101950004445464748494A4B4C4D4E4F50515253CF
:101960005455565758595A30313233343536373842
:1019700039000000385831363A7E21402324255E54
:10198000262A28295F2B7B7D3A3C3E3F2F7C2D2B3E
:101990002E000000B2E2CAD4343A475549205472AE
:1019A00069616E676C65CCEEB3E4B2E2CAD4000044
:1019B0006C0000201E000020B2E2CAD4363AD6D015
:1019C000CEC4CFD4CABEB2E2CAD400003136583138
:1019D000363AC8ABB6AFB5E7D7D3BCBCCAF5D3D09F
:1019E000CFDEB9ABCBBEBBB6D3ADC4FA00000000AE
:1019F00031365831363A57656C636F6D65C8ABB692
:101A0000AFB5E7D7D300000032345832343AC9EECC
:101A1000DBDACAD0D6D0CEC4B2E2CAD4000000000D
:101A200033325833323AD7D6CCE5B2E2CAD40000CA
:101A3000B2E2CAD4373ACDBCC6ACCFD4CABEB2E249
:101A4000CAD40000106000085151000010B588B0E1
:101A500000248E4B0FCBCDE90623CDE9040100BF56
:101A600023E0204600F06BFA89A0FFF7CDFA0121B0
:101A7000102204A850F824004FF6E073CDE90121AC
:101A800000901F221E211420FFF7CDF8854A322135
:101A90001E20FFF76AF94FF47A7002F0A3F94FF4B1
:101AA0007A7002F09FF9601CC4B2042CD9DB0020CC
:101AB00000F045FA08B010BD08B500250026002743
:101AC00001F099FB00F00CF901F03EFD76A0FFF764
:101AD0009BFA01207C4900900988183988B27BA3C1
:101AE00010220021FEF780FE4FF4784078490880EC
:101AF0007549009009881E398AB2734909883439BA
:101B000088B212230221FEF76DFBBEE000F002F95D
:101B1000044670484168002088476E48007D00F008
:101B20008000002879D06B48008A6749098888427C
:101B300076DA6848408A64494988884270DA65489C
:101B4000018A614800881838814222DD6148408A54
:101B500010281EDA54A0FFF757FA01205A490090C6
:101B60000988183988B259A310220021FEF73CFEDB
:101B70005748078000885449009009881E398AB266
:101B800051490988343988B212230221FEF72AFB11
:101B900046E05048018A4C4800883C38814234DD98
:101BA0004C48018A484800881E3881422DDA49484D
:101BB000408A142829DA052096FBF0F100FB116019
:101BC000454931F810804049CDF8008009881E3918
:101BD0008AB23D490988343988B212230221FEF7BE
:101BE00001FB3046711C8EB2052190FBF1F201FB26
:101BF0001200394931F81000354908800846078835
:101C00000A2002F0EFF80BE007E0324A518A108A0E
:101C10002F4A128800F0C1FC02E00A2002F0E2F82C
:101C2000012C25D14FF6FF7000F028F900F082FE5C
:101C300000F049FD1CA0FFF7E7F9012022490090C0
:101C40000988183988B221A310220021FEF7CCFDA3
:101C50001F48078000881C49009009881E398AB2F5
:101C600019490988343988B212230221FEF7BAFAD9
:101C7000681C85B21E2D08D100251848006808B9D7
:101C8000012000E00020154908603FE7906C000843
:101C9000B2E2CAD4383AC6C1C4BBD0FDD7AAB2E2B8
:101CA000CAD4000010600008B2E2CAD4393A546FB6
:101CB000756368B2E2CAD428B0B44B455930BCFC55
:101CC000D0A3D7BC292020006C0000205253540020
:101CD0001E000020240000201400002094812142D6
:101CE00008B50121442001F0FFFF1820ADF80000E5
:101CF00048208DF8030069461C4801F039FD012099
:101D0000ADF8000028208DF803006946184801F05E
:101D10002FFD08BD10B51021144801F0BCFD50B1D5
:101D20000821124801F0B7FD28B10121104801F047
:101D3000B2FD012818D10A2002F054F810210B48F6
:101D400001F0A9FD08B9012010BD0821074801F0E4
:101D5000A2FD08B90220F7E70121054801F09BFD2B
:101D6000012801D10320EFE70020EDE70018014032
:101D70000008014010B504464FF40060FE490860B9
:101D800040100860204601F08FFA4FF40060FA49D5
:101D9000091F086010BD10B504464FF40060F649F5
:101DA00008604010091F0860204601F07DFA4FF4DA
:101DB0000060F149091F086010BD70B505460C466A
:101DC0002846FFF7D7FFE0B2FFF7E5FF70BD10B57B
:101DD000EA49087AFFF7CEFF10BD10B50446F82196
:101DE00001EA2420FFF7D7FFFC2101EAE400FFF716
:101DF000D2FFE106080EFFF7CEFF10BD2DE9F0413E
:101E000004460D4616461F46DC49887AFFF7B2FFA6
:101E10002012FFF7C0FFE0B2FFF7BDFF3012FFF75F
:101E2000BAFFF0B2FFF7B7FFD449087BFFF7A2FF74
:101E30002812FFF7B0FFE8B2FFF7ADFF3812FFF747
:101E4000AAFFF8B2FFF7A7FFFFF7C1FFBDE8F081D7
:101E500070B504460D462B46224629462046FFF71C
:101E6000CDFF70BD70B504460D4629462046FFF7EC
:101E7000EFFFC3480088FFF7B0FF70BD70B506469E
:101E8000BE484088401E83B2BC480088401E82B2D3
:101E900000210846FFF7B2FF4FF40060B649086022
:101EA0004010091F086000240AE0002503E03046C6
:101EB000FFF793FF6D1CB1480088A842F7D8641C57
:101EC000AE484088A042F0D84FF40060AA49091FEC
:101ED000086070BD08B50121082001F005FF4FF42E
:101EE0003E40ADF8000003208DF8020010208DF870
:101EF00003006946A048143801F03AFC4FF48040D2
:101F0000ADF8000048208DF8030003208DF8020092
:101F100069469948143801F02BFC08BD10B54FF400
:101F2000805095490860642001F05CFF4FF48050B8
:101F30009149091F0860322001F054FF10BD10B50F
:101F400004462A208D4948812B2088812C20088135
:101F500034B1012C10D0022C1AD0032C30D123E044
:101F60004FF4A070854908804FF4F0704880082134
:101F70003620FFF722FF24E04FF4F0707F490880FD
:101F80004FF4A070488068213620FFF716FF18E054
:101F90004FF4A070794908804FF4F0704880C82150
:101FA0003620FFF70AFF0CE04FF4F0707349088009
:101FB0004FF4A0704880A8213620FFF7FEFE00E015
:101FC00000BF00BF10BD10B5FFF784FFFFF7A6FFED
:101FD000F720FFF7CFFEA920FFF7DDFE5120FFF726
:101FE000DAFE2C20FFF7D7FE8220FFF7D4FEC020B8
:101FF000FFF7C0FE1120FFF7CEFE0920FFF7CBFE52
:10200000C120FFF7B7FE4120FFF7C5FEC520FFF74F
:10201000B1FE0020FFF7BFFE0A20FFF7BCFE8020C4
:10202000FFF7B9FEB120FFF7A5FEB020FFF7B3FE22
:102030001120FFF7B0FEB420FFF79CFE0220FFF74F
:10204000AAFEB620FFF796FE0220FFF7A4FE42206C
:10205000FFF7A1FEB720FFF78DFEC620FFF79BFE1E
:10206000BE20FFF787FE0020FFF795FE0420FFF754
:1020700092FEE920FFF77EFE0020FFF78CFE36205F
:10208000FFF778FE6820FFF786FE3A20FFF772FE22
:102090006620FFF780FEE020FFF76CFE0020FFF7D0
:1020A0007AFE0720FFF777FE1020FFF774FE092065
:1020B000FFF771FE1720FFF76EFE0B20FFF76BFE98
:1020C0004120FFF768FE8920FFF765FE4B20FFF7F0
:1020D00062FE0A20FFF75FFE0C20FFF75CFE0E2079
:1020E000FFF759FE1820FFF756FE1B20FFF753FE9F
:1020F0000F20FFF750FEE120FFF73CFE0020FFF726
:102100004AFE1720FFF747FE1A20FFF744FE04207F
:10211000FFF741FE0E20FFF73EFE0620FFF73BFED5
:102120002F20FFF738FE4520FFF735FE4320FFF74D
:1021300032FE0220FFF72FFE0A20FFF72CFE0920B7
:10214000FFF729FE3220FFF726FE3620FFF723FE99
:102150000F20FFF720FE1120FFF70CFE782001F082
:1021600041FE2920FFF706FE0020FFF7E8FE0120D0
:102170000449086008E00000140C01406C000020D5
:102180001E000020A48121424FF6FF70FFF776FE6B
:1021900010BD10B501F0A8F810BD70B504460026BA
:1021A00001F0B9F82546E11704EB11610912A022EC
:1021B00002EB4101C8B201F060F901F0EDF8E1175E
:1021C00004EB11610912A4EB0121C8B201F055F929
:1021D00001F0E2F801F09FF8A12001F04EF901F0C2
:1021E000DBF8002001F077F9064601F0B4F830463C
:1021F00070BD70B504460E4601F08DF82546E11716
:1022000004EB11610912A02202EB4101C8B201F0F6
:1022100034F901F0C1F8E11704EB11610912A4EBE4
:102220000121C8B201F029F901F0B6F8304601F0F9
:1022300024F901F0B1F801F08EF80A2001F0D2FD86
:1022400070BD2DE9F04105460E461746002409E011
:10225000E20026FA02F2D1B22A1990B2FFF7C9FFC2
:10226000601CC4B2BC42F3DBBDE8F0812DE9F04153
:1022700007460C460026002509E036023919491B9D
:10228000491E88B2FFF789FF0644681CC5B2A54203
:10229000F3DB3046BDE8F08110B5FF20FFF77DFF8E
:1022A0000446552C01D1002010BD5521FF20FFF719
:1022B000A0FFFF20FFF771FF0446552C01D100203D
:1022C000F2E70120F0E770B506460C46154608E037
:1022D0003046721C96B2FFF760FF04F8010B681ECF
:1022E00085B2002DF4D170BD70B505460C4616467A
:1022F00006E021782846FFF77CFF681C85B2641C45
:10230000301EA6F101018EB2F3D170BD002100BFD5
:1023100015E000F080021AB10122FE4B1A6002E0C3
:102320000022FC4B1A604206100E0022F94B0C3BB7
:102330001A600122F84BC3F880214A1CD1B2082947
:10234000E7DB704770B50646002500240020F14900
:102350000C390860F049C1F88C01EE492831086059
:102360003046FFF7D3FF062001F058FD0020EA4970
:10237000C1F88001012001F051FD0120E5490C392F
:1023800008600020E449C1F8800100BF13E04FF667
:10239000FF7000EA44040020DE490C390860012087
:1023A000DD49C1F88001DB488438006808B1601C51
:1023B00084B2681CC5B2102DE9DB24110120D54977
:1023C00028310860204670BD2DE9FE438046002775
:1023D000002406E04046FFF7B5FF2DF81400601C0E
:1023E00084B2052CF6DB002416E0601C85B20FE0F9
:1023F0003DF814003DF81510884207DD3DF81460E3
:102400003DF815002DF814002DF81560681C85B2F4
:10241000052DEDDB601C84B2042CE6DB00270124D3
:1024200005E03DF81400384487B2601C84B2042CE7
:10243000F7DB032097FBF0F086B23046BDE8FE8361
:102440002DE9F04104460D46B4480078FFF7BCFF83
:102450000646B3480078FFF7B7FF074626802F806F
:102460000120BDE8F0817FB504460D4602A903A80E
:10247000FFF7E6FF064616B9002004B070BD6946B6
:1024800001A8FFF7DDFF06460EB90020F5E7BDF80D
:102490000400BDF80C10884206DCBDF80C10BDF835
:1024A0000400323081420CDBBDF80C00BDF8041092
:1024B000884236DCBDF80410BDF80C003230814291
:1024C0002FDABDF80000BDF80810884206DCBDF820
:1024D0000810BDF80000323081420CDBBDF8080066
:1024E000BDF8001088421CDCBDF80010BDF80800E3
:1024F0003230814215DABDF80C10BDF8042088187E
:1025000000EBD071C1F34F012180BDF80810BDF878
:102510000020881800EBD071C1F34F012980012001
:10252000ABE70020A9E7F8B504460D4616467D48FE
:10253000068004F10D018AB2193988B22B4629466A
:10254000FDF787FE05F10D0083B2193881B22246EE
:102550002046FDF77EFE6A1C91B2621C90B2FFF726
:1025600081FC6A1C91B2621E90B2FFF77BFC6A1E6E
:1025700091B2621C90B2FFF775FC6A1E91B2621EA6
:1025800090B2FFF76FFC0020062300906548028898
:1025900029462046FDF726FFF8BD70B504460D46D6
:1025A00016466048068029462046FFF75BFC611C02
:1025B00088B22946FFF756FC681C81B22046FFF717
:1025C00051FC6A1C91B2621C90B2FFF74BFC70BDCB
:1025D0002DE9F04104464F4864380068002853D183
:1025E00024B15149881EFFF73EFF3CE04E49881E4A
:1025F000FFF739FFB8B34C491239B1F9200002F0A6
:1026000043F8074648491239088A02F055F88046CF
:10261000454812388169404602F062F8064639465C
:1026200001F0D2FE054602F00FF83F491239088248
:10263000B1F9220002F028F807463B491239488ACE
:1026400002F03AF8804638481238C169404602F034
:1026500047F80646394601F0B7FE054601F0F4FF9B
:1026600031491239488230481238007D00F080002C
:1026700010BBC0202C49123908750846008A888191
:102680000846408AC88117E027481238007D00F0CC
:10269000800040B124481238007D20F0800022499B
:1026A0001239087508E000201F4912398881C88155
:1026B0004FF6FF70088248821B481238007D00F0F8
:1026C0008000BDE8F08170B5174912398869174953
:1026D00002F006F8054601F09BFF0446042221465D
:1026E0002820FFF7AEFD10491239C8690F4901F0E3
:1026F000F7FF054601F08CFF0446042221462C20FA
:10270000FFF79FFD08481238B0F920100222302050
:102710000EE000008C012242000022424C0000200A
:102720004D0000201E0000203600002020BCBE4CC2
:10273000FFF787FDF748B0F9221002223220FFF799
:1027400080FDF44890F824103420FFF752FD0A244D
:1027500021463520FFF74DFD70BD70B53520FFF7E0
:102760001CFD04460A2C42D104212820FFF77EFDDF
:102770000446204601F088FF0546E74901F086FE41
:10278000E449886104212C20FFF770FD04462046AF
:1027900001F07AFF0546E04901F078FEDD49C861A5
:1027A00002213020FFF762FD00B2DA4908840221DD
:1027B0003220FFF75BFD00B2D64948843420FFF792
:1027C000ECFCD44981F82400084690F8240030B18C
:1027D0009020D2490870D020D149087005E0D0205F
:1027E000CE4908709020CE490870012070BD0020AD
:1027F000FCE72DE9F84F04460D4617461E46DDE975
:102800000CABDDE90A894FF47840C6490880012005
:10281000C5A31022A02100902820FDF7E5FF01208C
:10282000C2A31022A02100907820FDF7DDFF012037
:10283000BFA31022B42100902820FDF7D5FF01206E
:10284000BCA31022B42100907820FDF7CDFF012019
:10285000B9A31022C82100902820FDF7C5FF012050
:10286000B6A31022C82100907820FDF7BDFF0120FB
:10287000B3A31022DC2100902820FDF7B5FF012032
:10288000B0A31022DC2100907820FDF7ADFF0120DD
:10289000ADA31022F02100902820FDF7A5FF102005
:1028A00004232246A02100904020FDF7D7FF1020EE
:1028B00004232A46A02100909020FDF7CFFF10208E
:1028C00004233A46B42100904020FDF7C7FF1020B2
:1028D00004233246B42100909020FDF7BFFF102062
:1028E00004234246C82100904020FDF7B7FF102086
:1028F00004234A46C82100909020FDF7AFFF102026
:1029000004235246DC2100904020FDF7A7FF102051
:1029100004235A46DC2100909020FDF79FFF1020F1
:1029200000908B480188032360200E9AFDF796FFE4
:10293000BDE8F88F00B595B0002010900A90109077
:102940001F20784908804FF6FF7082490880FFF702
:1029500095FA4FF47840734908804FF6FF70FFF7FF
:102960008DFA00206F49088001207BA310222821C6
:1029700000900A20FDF738FF01207FA310223821A4
:1029800000900A20FDF730FF012084A31022482187
:1029900000900A20FDF728FF012088A3102258216B
:1029A00000900A20FDF720FF4FF4784214210846DA
:1029B000FFF7B9FD002057490875886153E2554873
:1029C000406809900120099988475248007D00F02D
:1029D000C00040287AD100200A904E48007D20F0A7
:1029E00040004C4908750846018A11AA109822F83F
:1029F00020104848418A109802EB800041801098CE
:102A0000401CC0B210901098012806D0022815D0A2
:102A1000032829D0042810D141E04FF6FF72142179
:102A20000846FFF780FD4A480088143880B24FF40A
:102A3000784214210990FFF776FDC7E344480088E7
:102A4000143880B24FF6FF7214210990FFF76BFD26
:102A50003F484088143880B24FF4784201460990CC
:102A60001420FFF760FDB1E339484088143880B284
:102A70004FF6FF72014609901420FFF754FD3448C9
:102A80004088143880B2099031480088143880B2E8
:102A90004FF4784208900999FFF745FD96E3BDF899
:102AA0004400BDF84810401A0990002801DB09983D
:102AB00001E0099840420D90BDF8461011A8C08869
:102AC000081A0990002802DB099802E07FE30998C0
:102AD00040420C900D9840430D900C9840430C9050
:102AE000DDE90C100844059001F083FACDE90601F8
:102AF00001F01FFACDE9080101F04EFA80B20F9003
:102B0000BDF84C00BDF85010401A0990002863DB56
:102B1000099863E02400002020BCBE4C4C0000203B
:102B20004D0000201E00002078313A0079313A0033
:102B300078323A0079323A0078333A0079333A0001
:102B400078343A0079343A006661632069733A0058
:102B50006C00002020000020506C656173652075BA
:102B6000736520746865207374796C757320636C69
:102B700069636B207468650063726F7373206F6E96
:102B8000207468652073637265656E2E54686520D5
:102B900063726F73732077696C6C0000616C77618E
:102BA0007973206D6F766520756E74696C2074681A
:102BB000652073637265656E2000000061646A754C
:102BC00073746D656E7420697320636F6D706C65CE
:102BD0007465642E00000000099840420D9011A811
:102BE0004189C089081A0990002801DB099801E091
:102BF000099840420C900D9840430D900C9840432A
:102C00000C90DDE90C100844059001F0F2F9CDE9D3
:102C1000060101F08EF9CDE9080101F0BDF980B29D
:102C20000E900E9801F048FD09900F9801F044FDB8
:102C30000890099901F02AFC0B900B9801F098FB81
:102C40004FF06632FE4BCDE9080101F0E5F90DD3F6
:102C50000B9801F08DFBFB4AFB4BCDE9080101F01D
:102C60006BFA03D30F9808B10E98E8BB00201090C0
:102C7000F6484088143880B20990F4480088143827
:102C800080B24FF6FF7208900999FFF74CFC4FF4A1
:102C9000784214210846FFF746FCED490B9801F0F5
:102CA0001FFD089001F0D0FC80B211A90990C989DC
:102CB000BDF8502011AB5B89CDE90132CDE903109D
:102CC000BDF84C00009011A8C0880890BDF84800DD
:102CD0000790BDF846000690BDF84400059006A98F
:102CE0000EC9FFF786FD81E2FFE7BDF84400BDF89D
:102CF0004C10401A0990002801DB099801E009985E
:102D000040420D90BDF8461011A84089081A09905C
:102D1000002801DB099801E0099840420C900D98C9
:102D200040430D900C9840430C90DDE90C10084492
:102D3000059001F05EF9CDE9060101F0FAF8CDE960
:102D4000080101F029F980B20F90BDF84800BDF8E4
:102D50005010401A0990002801DB099801E00998F9
:102D600040420D9011A8C188C089081A0990002816
:102D700001DB099801E0099840420C900D9840430E
:102D80000D900C9840430C90DDE90C100844059020
:102D900001F02FF9CDE9060101F0CBF8CDE90801EA
:102DA00001F0FAF880B20E900E9801F085FC0990BF
:102DB0000F9801F081FC0890099901F067FB0B90D6
:102DC0000B9801F0D5FA4FF066329D4BCDE9080122
:102DD00001F022F909D30B9801F0CAFA994A9A4BEB
:102DE000CDE9080101F0A8F93ED2002010909748E3
:102DF0004088143880B2099094480088143880B212
:102E00004FF6FF7208900999FFF78DFB4FF4784257
:102E100014210846FFF787FB8D490B9801F060FCF1
:102E2000089001F011FC80B20146099011A8C289F6
:102E3000BDF8500011AB5B89CDE90130CDE903212C
:102E4000BDF84C00009011A8C0880890BDF848005B
:102E50000790BDF846000690BDF84400059006A90D
:102E60000EC9FFF7C6FCC1E1BDF84800BDF84C1023
:102E7000401A0990002801DB099801E009984042B6
:102E80000D9011A8C1884089081A0990002801DB1B
:102E9000099801E0099840420C900D9840430D902C
:102EA0000C9840430C90DDE90C100844059001F0AB
:102EB000A0F8CDE9060101F03CF8CDE9080101F0E8
:102EC0006BF880B20F90BDF84400BDF85010401A66
:102ED0000990002801DB099801E0099840420D9013
:102EE000BDF8461011A8C089081A0990002801DB16
:102EF000099801E0099840420C900D9840430D90CC
:102F00000C9840430C90DDE90C100844059001F04A
:102F100070F8CDE9060101F00CF8CDE9080101F0E7
:102F20003BF880B20E900E9801F0C6FB09900F9806
:102F300001F0C2FB0890099901F0A8FA0B900B98D8
:102F400001F016FA4FF066323D4BCDE9080101F071
:102F500063F809D30B9801F00BFA3A4A3A4BCDE9E2
:102F6000080101F0E9F83ED200201090374840886F
:102F7000143880B2099035480088143880B24FF672
:102F8000FF7208900999FFF7CEFA4FF478421421A6
:102F90000846FFF7C8FA2E490B9801F0A1FB0890EC
:102FA00001F052FB80B20246099011A8C089BDF819
:102FB000501011AB5B89CDE90131CDE90302BDF8B9
:102FC0004C00009011A8C0880890BDF848000790F8
:102FD000BDF846000690BDF84400059006A90EC94C
:102FE000FFF707FC02E1BDF84800BDF84410401AA5
:102FF000079001F049FB0990144800882838079091
:1030000001F042FB0890099901F040FA11498861EA
:10301000BDF84800BDF844100844049001F034FBAA
:1030200005900C48806901460490059801F058FB12
:10303000079006480088059001F03EFB06900BE0E3
:103040006666EE3FCDCCCCCCCCCCF03F6C00002003
:103050000000C84224000020079901F00DFC4FF049
:103060008041089001F012FA099001F0D1FA00B203
:103070007C49088411A84089BDF84610401A079081
:1030800001F002FB0990784840882838079001F049
:10309000FBFA0890099901F0F9F97249C86111A881
:1030A0004089BDF846100844049001F0EDFA0590FF
:1030B0006C48C06901460490059801F011FB079027
:1030C00069484088059001F0F7FA0690079901F0E9
:1030D000D3FB4FF08041089001F0D8F9099001F03E
:1030E00097FA00B25F49488408468069079001F06A
:1030F0008FFA0890002801DB089801E00898404208
:1031000002280DDC5748C069079001F081FA099048
:10311000002801DB099801E00998404202283ADDC5
:103120000020109050484088143880B209904E48D2
:103130000088143880B24FF6FF7208900999FFF7A3
:10314000F2F94FF4784214210846FFF7ECF9012018
:1031500046A310221A2100902820FDF745FB414884
:1031600090F8240008B9012000E000203D4981F8D2
:103170002400084690F8240030B19020404908709F
:10318000D0204049087005E0D0203D4908709020CB
:103190003C4908702AE01F203B4908804FF6FF7029
:1031A000FEF76CFE012039A310226E21009023202F
:1031B000FDF71AFB4FF47A7000F014FEFFF783FA64
:1031C0004FF6FF70FEF75AFE15B000BD00BF0A2093
:1031D00000F008FE0A98401C80B20A900A98B0F5E8
:1031E0007A7F02DDFFF7B9FA02E000BFFFF7E7BB25
:1031F00000BF00BFE8E708B50121112000F074FD11
:1032000042F20900ADF8000010208DF80300032001
:103210008DF802006946234800F0AAFA40F2044003
:10322000ADF8000048208DF8030069461D4800F005
:103230009FFA0C491231881EFFF702F9FEF7A9FF29
:10324000FFF78BFA08B1002008BD4FF6FF70FEF7BC
:1032500015FEFFF76FFBFFF736FAFFF77EFA012046
:10326000F2E70000240000206C0000205450204EA3
:1032700065656420726561646A757374210000007D
:103280004C0000204D0000201E000020546F75638C
:10329000682053637265656E2041646A757374209B
:1032A0004F4B2100001001400021082117E000F0E1
:1032B000800222B14FF400420A4B1A6004E04FF43E
:1032C0000042084B1B1D1A604FF40052054B1B1D9A
:1032D0001A601B1F1A604206100E4A1ED1B2002946
:1032E000E5DC7047100C014008B50121082000F012
:1032F000FBFCC020ADF8000010208DF80300032077
:103300008DF8020069468D4800F032FAC0218B48E2
:1033100000F0DBFA08BD10B58848006820F0704066
:10332000864908600846006840F040500860012067
:10333000834908608349C1F89801042000F06EFDBC
:1033400000207F490860042000F068FD00207D49CE
:10335000C1F8980110BD10B57848006820F07040A1
:10336000764908600846006840F040500860002038
:103370007349091F08607349C1F89C01042000F0DB
:103380004DFD01206E49091F08606E49C1F89C017E
:10339000042000F043FD10BD10B50024674800680C
:1033A00020F07040654908600846006840F0004021
:1033B000086001206249086000F030FD0120614989
:1033C000C1F8980100F02AFD07E0601CC4B2FA2C95
:1033D00003DDFFF7C0FF012010BD594880380068A9
:1033E0000028F2D15649091F086000BFF4E710B564
:1033F00000205349091F08605048006820F07040C1
:103400004E4908600846006840F0405008600020BF
:103410004C49C1F89C01022000F000FD0120484900
:10342000091F0860022000F0F9FC00204549C1F89E
:10343000980110BD10B500204149091F08603F48A0
:10344000006820F070403D4908600846006840F080
:103450004050086001203B49C1F89C01022000F067
:10346000DDFC01203649091F0860022000F0D6FC6F
:1034700000203449C1F8980110BD70B504462F48AA
:10348000006820F070402D4908600846006840F050
:103490004050086000202A49091F0860002517E0F5
:1034A000E009274908606006040E022000F0B6FC1F
:1034B00001202449C1F89801022000F0AFFC00204F
:1034C0001F49091F0860022000F0A8FC681CC5B253
:1034D000082DE5DB70BD70B505460024174800686F
:1034E00020F07040154908600846006840F0004030
:1034F0000860002617E000201149091F086002201B
:1035000000F08CFC01200F49C1F898016006040E00
:103510000B488038006808B1601CC4B2012000F07C
:103520007DFC701CC6B2082EE5DB15B9FFF782FFE3
:1035300001E0FFF75CFF204670BD0000000C014079
:103540009C8121420080214208B50121482000F0E1
:10355000CBFB2020ADF8000010208DF803000320E5
:103560008DF802006946094800F002F92021074859
:1035700000F0ABF92020ADF800006946044800F0E7
:10358000F7F82021024800F0A0F908BD000C014026
:10359000001801400948804709480047FEE7FEE758
:1035A000FEE7FEE7FEE7FEE7FEE7FEE7FEE7FEE7F3
:1035B00004480549054A064B70470000070F0008FC
:1035C00031010008E0000020E0060020E0020020B9
:1035D000E002002031490143314A1160704770B563
:1035E000002100230F22C47804B32D4C246804F476
:1035F000E064C4F5E064210AC1F10403CA404478E0
:1036000004FA03F18478144021430901254C06781B
:10361000A155047804F01F050124AC4005786D1114
:10362000AD0005F1E025C5F8004109E0047804F09B
:103630001F050124AC401C4D0678761145F8264044
:1036400070BD1A4A0A400243154B1B1F1A6070478F
:1036500039B1134A121D12680243114B1B1D1A6027
:1036600006E00F4A121D126882430D4B1B1D1A60A3
:103670007047042808D14FF0E021096941F00401A6
:103680004FF0E022116107E04FF0E021096921F0DD
:1036900004014FF0E0221161704700000000FA05BC
:1036A0000CED00E000E400E080E100E080FFFF1F9F
:1036B00010B50446CC48844208D10121042000F012
:1036C0002DFB0021042000F029FB46E0C74884427E
:1036D00008D10121082000F021FB0021082000F082
:1036E0001DFB3AE0C248844208D10121102000F0BD
:1036F00015FB0021102000F011FB2EE0BD48844294
:1037000008D10121202000F009FB0021202000F039
:1037100005FB22E0B848844208D10121402000F096
:10372000FDFA0021402000F0F9FA16E0B348844287
:1037300008D10121802000F0F1FA0021802000F062
:10374000EDFA0AE0AE48844207D10121801500F06D
:10375000E5FA0021A01500F0E1FA10BD10B5012135
:10376000084600F0DBFA0021012000F0D7FA10BD76
:103770002DE9F04102460025002600200023002408
:10378000002791F803C00CF00F0591F803C00CF06E
:10379000100CBCF1000F03D091F802C04CEA0505F3
:1037A00091F800C0BCF1000F31D0146800202BE06C
:1037B0004FF0010C0CFA00F3B1F800C00CEA03065C
:1037C0009E4220D183004FF00F0C0CFA03F7BC434C
:1037D00005FA03FC4CEA040491F803C0BCF1280F7D
:1037E00006D14FF0010C0CFA00FCC2F814C00AE03C
:1037F00091F803C0BCF1480F05D14FF0010C0CFA51
:1038000000FCC2F810C0401C0828D1D31460B1F8E5
:1038100000C0BCF1FF0F34DD546800202EE000F141
:10382000080C4FF0010808FA0CF3B1F800C00CEADC
:1038300003069E4221D183004FF00F0C0CFA03F7D0
:10384000BC4305FA03FC4CEA040491F803C0BCF144
:10385000280F05D100F1080C08FA0CF8C2F8148002
:1038600091F803C0BCF1480F07D100F1080C4FF0EC
:10387000010808FA0CF8C2F81080401C0828CED3C2
:103880005460BDE8F0814FF6FF7101800221817024
:103890000421C17070470246002093680B400BB1B1
:1038A000012000E0002070470146886880B2704720
:1038B00002460020D3680B400BB1012000E000203D
:1038C00070470146C86880B2704701617047416126
:1038D00070470AB1016100E041617047C160704703
:1038E0004FF480320A438261816182618269826918
:1038F000704702460020434B18684FF6807318400B
:1039000040EA021008433F4B186070473E49C861C7
:103910007047F0B50A46002300240021002500F07E
:103920000046B6F1004F02D1364EF16901E0354E46
:103930007168C0F3034583B200F44016B6F5401F2A
:1039400008D121F070612F4E766826F070662D4FF9
:103950007E6012E000F48016B6F5801F06D10326C3
:1039600006FA05F4A14341F0706106E0460D360108
:1039700003FA06F6B14341F0706122B1460D3601FB
:1039800003FA06F6314300F00046B6F1004F02D1CB
:103990001C4EF16101E01B4E7160F0BD30B500229C
:1039A0008B071C0F0F2303FA04F2164B08338C10FD
:1039B00053F824309343134C08348D1044F82530C9
:1039C00023468C1053F824308C07240F00FA04F49B
:1039D00023430C4C08348D1044F8253030BD0A497F
:1039E000DC3108607047000000080140000C014015
:1039F000001001400014014000180140001C01406B
:103A0000002001400000014000002042DF48006823
:103A100040F00100DD49086008464068DC49084084
:103A2000DA49486008460068DA490840D749086022
:103A30000846006820F4802008600846406820F4AA
:103A4000FE0048604FF41F0088607047CF49096846
:103A500021F48031CD4A11601146096821F480219A
:103A60001160B0F5803F03D0B0F5802F0ED106E095
:103A7000C649096841F48031C44A116007E0C3496E
:103A8000096841F4A021C14A116000E000BF00BFF5
:103A9000704710B501460022002300204A11012A78
:103AA00002D1BA4C236806E0022A02D1B74C236A3D
:103AB00001E0B64C636A01F01F02012494401C40EF
:103AC0000CB1012000E0002010BD38B500200090AE
:103AD0000024002500BF3120FFF7DBFF05460098DA
:103AE000401C00900098B0F5A06F01D0002DF2D0DE
:103AF0003120FFF7CEFF08B1012400E0002420466A
:103B000038BD01460020A14A106820F0F80040EAC4
:103B1000C10010607047A04908607047024600204D
:103B20009A4B586820F47C1042EA01031843974BE3
:103B30005860704798490866704701460020934ACC
:103B4000506820F003000843506070478F48406879
:103B500000F00C007047014600208C4A506820F0AD
:103B6000F00008435060704701460020874A5068C3
:103B700020F4E06008435060704701460020834A0B
:103B8000506820F4605040EAC1005060704729B18D
:103B90007E4A527A02437D4B5A7204E07B4A527A43
:103BA00082437A4B5A7270477B49D831086070471C
:103BB00001460020754A506820F440400843506098
:103BC00070470021714A20321170704A82F820102B
:103BD000012802D004280AD104E001216B4A2032D6
:103BE000117005E00521694A2032117000E000BF24
:103BF00000BF70476949086070476449096A01431A
:103C0000624A11627047654944390860704730B5AF
:103C100000210022002400235C4D6D6805F00C019A
:103C200021B1042905D0082923D105E05C4D0560A8
:103C300022E05B4D05601FE0544D6D6805F4701285
:103C4000524D6D6805F48034022505EB92421CB993
:103C5000544D554305600BE04C4D6D6805F400353F
:103C60001DB1504D5543056002E04D4D5543056073
:103C700002E04B4D056000BF00BF444D6D6805F08C
:103C8000F0010909484D6B5C0568DD4045603F4D1A
:103C90006D6805F4E061090A434D6B5C4568DD40E1
:103CA00085603A4D6D6805F46051C90A3E4D6B5C04
:103CB0004568DD40C560354D6D6805F44041890BB0
:103CC0003A4D6B5CC568B5FBF3F5056130BD29B1B4
:103CD0002E4A526902432D4B5A6104E02B4A526925
:103CE00082432A4B5A61704729B1284A926902439C
:103CF000264B9A6104E0254A92698243234B9A61DC
:103D0000704729B1214AD2690243204BDA6104E0AD
:103D10001E4AD26982431D4BDA61704729B11B4AA2
:103D2000D2680243194BDA6004E0184AD268824331
:103D3000164BDA60704729B1144A12690243134BDB
:103D40001A6104E0114A12698243104B1A617047EC
:103D500012494039086070470F49C86470470B49E1
:103D6000C87170470948406A40F08070074948624E
:103D7000704701460020054A92680A400AB10120B6
:103D800000E000207047014988727047001002402F
:103D90000000FFF8FFFFF6FE0000424280044242AE
:103DA00000127A0000093D00540000206400002049
:103DB00010B504466FF00400FFF75BFCE11704EB5D
:103DC0005171C1F3C701234A11701046007800EB0E
:103DD0004001C1EBC0104FF6FF7101EAC0001E495F
:103DE000088010BD01461C4A12884A434FF0E02368
:103DF0005A6100229A6101221A6100BF4FF0E0224D
:103E0000106900F001021AB100F48032002AF5D0E6
:103E100000224FF0E0231A619A61704701460D4A73
:103E200012784A434FF0E0235A6100229A6101223E
:103E30001A6100BF4FF0E022106900F001021AB1D0
:103E400000F48032002AF5D000224FF0E0231A61FE
:103E50009A617047680000206A00002010B5431C7A
:103E600002E010F8011B71B18107FAD14FF0013265
:103E700002C88C1A8C4314EAC211F9D0C01A0A067F
:103E800003D0C01E10BDC01A10BD0A0401D0801E90
:103E900010BD0902FCD0401E10BD7047704770472E
:103EA00010B500F009F8006810BD10B5044600F028
:103EB00003F8046010BD0000004870477C0000203B
:103EC000004870477C0000207546FFF7F9FFAE46BA
:103ED00005006946534620F00700854618B020B516
:103EE000FFF766FBBDE820404FF000064FF00007EB
:103EF0004FF000084FF0000B21F00701AC46ACE892
:103F0000C009ACE8C009ACE8C009ACE8C0098D46FE
:103F1000704710B50446AFF300802046BDE810405E
:103F2000FCF74DB901491820ABBEFEE726000200A0
:103F300070472DE9F04106460F4600F033F9041EA4
:103F40000D4618BF0120284320F00040C0F17F60DB
:103F500000F1E040C00F0ED0301C18BF01203843E4
:103F600020F00040C0F17F6000F1E040C00F04BFCE
:103F70000120FFF79AFF20462946BDE8F08149104D
:103F800058BFC1F140415B1058BFC3F140438B4261
:103F9000EFF30080704700004FEA1153A3F58063F0
:103FA000D3F11E03A8BFD3F1200C08DB4FF0004271
:103FB00042EAC12252EA505232FA03F070470942F3
:103FC0000BD4102BC4BF0020704703F5787CBCF1E4
:103FD000FF3F05D04FF0FF3070474FF000007047B3
:103FE00070B500F055F800BF49922480002070475A
:103FF000F0E7B0FA80F310FA03F10AD0C3F11D0321
:1040000003F580634FEA41504FEA035202EBD1219E
:1040100070474FF00000704751EA030C17D41CF5AD
:10402000801F58BFBCF5801F00F10680994218BF61
:10403000704708BF9042704707D711F5801F58BFDF
:1040400013F5801F19D499427047894270471CF5B7
:10405000801F08D5BCF5801FF7D58B4218BF70476D
:1040600008BF824270474FF4001C1CEB410F38BF61
:104070001CEB430F01D28B42704770B500F008F87B
:10408000922449004FF000514FF08053FFF777BF63
:104090000EF1020E2EF0030E5EF8046B364205D4CC
:1040A000012A43EB030515F5001F12D8012841EB47
:1040B000010C1CF5001F0CD80ED14FEAD17C15F570
:1040C000001F0CEB4C0C0CF1020C08BF4CEBD37C2A
:1040D00004E04FF0080C01E04FEAD37C0CEB4C05F8
:1040E00026FA05F606F00706B6F1040C06D20EEB2A
:1040F000860CBDE870404CF0010C6047DFE80CF026
:10410000090B02024FF000414FF00000A1F5002121
:1041100070BD19461046012851EB010418BFD4F5B3
:10412000001484BF002001F0004170BD0808A0F514
:1041300000114FEA3101704753EA010C17D41CF506
:10414000801F58BFBCF5801F00F106808B4218BF4E
:10415000704708BF8242704707D713F5801F58BFCA
:1041600011F5801F19D48B4270479B4270471CF594
:10417000801F08D5BCF5801FF7D5994218BF70473E
:1041800008BF904270474FF4001C1CEB430F38BF30
:104190001CEB410F01D2994270470FB40CBC03BC19
:1041A000FFF76BBF2DE9F04101F5801CBCF5001F46
:1041B000C0F2C3804FEA115C21EA0C510CF1FD0CF6
:1041C00041F480115FEA5C0C0CF5C07C01D3400027
:1041D00049413DA4890241EA905187028E0E0A0CA2
:1041E000A45D04FB04F602FB06F6C6F14046A4FB00
:1041F0000662F60D46EA422606FB06F4A4FB0123FE
:104200005242C3F1404338BF5B1EA6FB024200246A
:10421000E6FB0324D20B42EA4446A6FB0623A1FB9D
:1042200002E2A3FB07E4A4184FF0000252F10002DF
:10423000E3FB01426442C2F1404E38BFAEF1010ED1
:10424000A6FB04234FF00002E6FB0E32A2FB03465E
:104250004FF00004B61954F10004E2FB0264A1FB24
:1042600006E6A4FB07E816EB08064FF0000858F135
:104270000008E4FB01687642C8F1405838BFA8F155
:104280000108A2FB06E4A3FB08E52D194FF000048A
:1042900054F10004E2FB0854A1FB05E6A7FB04E887
:1042A00018EB06084FF0000656F10006E1FB048605
:1042B00018F1200556F10006A809A8F11B08B1095C
:1042C00008F03F08B8F10A0F40EA86601CD901EBFC
:1042D0000C51BDE8F08100BFFCF5EEE8E2DDD8D37B
:1042E000CFCBC7C3C0BDB9B6B4B1AEACA9A7A5A367
:1042F000A19F9D9B9A9896959392908F8D8C8B8978
:104300008887868584838281A0FB006800FB01F298
:1043100008EB4208B8EB872807D5341858EB01049E
:10432000D5D5401C51F10001D1E7341A78EB0104D6
:10433000CDD4401E71F10001C9E75FEA4C0C5FEA81
:104340009C5C0DD105D34FF0000001F00041BDE8A9
:10435000F081BDE8F04170B5FFF79AFE6DDBFFBE5E
:10436000BDE8F0414FF00000004970470000F87FC1
:1043700043004FEAD30C4FEA3C0C43401FBF4007B9
:104380000CF1605113F0FE4F70471CF0006F03D129
:1043900000200CF0004170470CF0004343EA5070DD
:1043A00010B540EACC0000F01CFA00BF00000092FB
:1043B0004FEA0001FFF7BABE4FF000414FF0000096
:1043C000A1F500217047000090EA010F48BF81F07D
:1043D000004100F15882421A3CBF801A89184FEA06
:1043E000D0524FF07F4C1CEA410FA2EBD15318BFC3
:1043F0009CEA026F00F03B804FF0004C4CEA00203A
:104400004CEA012121FA03FC10EB0C0C1ED202F144
:10441000FF325FEA1C2040EBC25038BF70471CF0EF
:104420007F0F4FEA400C18BFBCF17F4F38BF704779
:10443000C3F12003994008BF20F00100BCF17F4F79
:1044400038BF7047A0F1C04000F011BA4FEA3C00FD
:10445000000A40EBC25028BF1CF0FF0F4FEA400C8F
:10446000E6D018BFBCF17F4F38BF7047EAE79CEA3F
:10447000026F05D010EA5C0F08BF00F000407047E3
:1044800010B500F0AEF900BF64FBBE3E4FF47F0CE8
:104490001CEAD0121EBF1CEAD11392EA0C0F93EA59
:1044A0000C0F00F0858090EA010F48BF42F4807243
:1044B00040F4000C41F400002CF07F4120F07F40DC
:1044C00000B58142A2EB03020FF2081CACEB504E88
:1044D000C0F100009EF800E04FEA4E0E00FB0EFC1B
:1044E00038BF49004FEA2C1C02F5FA020CFB0EF310
:1044F0004FEACE1E4FEA112C4FEAC1210EEB635E4C
:1045000042EB22420EFB0CFC4FEA1C5300FB031152
:104510004FEA112C4FEA01310EFB0CFC4FEADC4C48
:1045200000FB0C11C14228BF09184CEB03335DF8A6
:1045300004EB10EB410143EBC250B2F57C0F38BFE6
:10454000704729D512F0F00F1CBF00F1C04000F0F9
:1045500000407047008182838485868788898B8CA0
:104560008D8E8F919293959697999A9C9D9FA0A2DC
:10457000A3A5A7A8AAACAEB0B2B3B5B7B9BCBEC02C
:10458000C2C5C7C9CCCED1D4D7D9DCDFE2E6E9ECCD
:10459000F0F3F7FAFE0000004FEA400C0CF1807CCB
:1045A000BCF17E4F28BF7047B0F1C04000F05FB94A
:1045B00090EA010F0CEAD11348BF42F480726245C1
:1045C00038BF634507D213F47F0F16D080EA01008D
:1045D00000F00040704710B500F003F9097EFC3E82
:1045E00000F005B880EA010000F00040704780EA62
:1045F000010000F0004000F03AB912F47F0F04BF50
:104600000248704780EA010000F031B90000C07F25
:1046100041000B0ED3F19E0208D950F400034FEA7B
:10462000032323FA02F048BF4042704710B500F060
:10463000D8F800BF49922480002070476FF00042F4
:1046400082EA200070470000C10DD1F19E0206DB16
:104650004FEA002343F0004323FA02F07047004280
:1046600007D54FEA4001B1F1FE4F02D24FF00000F2
:10467000704710B500F0B5F84992248000207047CB
:104680006FEA20007047000010F0004148BF404230
:10469000B0FA80F310FA03F2C3F19D030BD051EA94
:1046A000C35101EB1220530638BF704700F10100DF
:1046B00008BF20F001007047B0FA80F310FA03F24F
:1046C000C3F19D030AD0D90501EB1220530638BF70
:1046D000704700F1010008BF20F0010070470000A2
:1046E0004FF47F0C1CEAD0121EBF1CEAD11392EAD1
:1046F0000C0F93EA0C0F00F0478090EA010F48BFBF
:1047000042F480724FF0004C4CEA00204CEA012148
:1047100002EB0302A0FB0113A2F50002002918BF5F
:1047200043F001035B0028BF4FEA330342EB224210
:104730005FEA132C4CEBC2502EBFBCEB436FB2F5BB
:104740007C0F70474FEA036CBCF1004F08BF20F0AC
:104750000100B2F57C0F38BF70470BD582F0FF0225
:1047600012F5803FC8BF704700F1C040D8BF00F0CD
:104770000040704700F5000C5FEA4C0C48BF7047E2
:10478000B0F1C04000F073B890EA010F0CEAD11309
:1047900048BF42F48072624538BF634504D280EA64
:1047A000010000F00040704710B500F01AF800BF9B
:1047B0008900013E00F007B800F009B85FEA410C3B
:1047C0005FEA1C6C08D080EA010000F050B85FEA94
:1047D000400C5FEA1C6CF6D14FF00040A0F5800061
:1047E00070470EF1020E2EF0030E5EF8044B2442C9
:1047F00004D44FEA4102B2F17F4F11D84FEA40038F
:10480000B3F17F4F0CD80ED14FEAD07CB2F17F4F7D
:104810000CEB4C0C0CF1020C08BF4CEBD17C04E00F
:104820004FF0080C01E04FEAD17C0CEB4C0324FA6A
:1048300003F404F00704B4F1040C06D20EEB840C6C
:10484000BDE810404CF0010C6047DFE80CF00708B1
:1048500002024FF00040A0F5800010BD0846420063
:1048600018BFD2F1807288BF00F0004010BDFF2158
:1048700041EAD050C005704790EA010F48BF81F06F
:1048800000413FF5A8AD421A04D882F00042A0EBE7
:10489000020011444FEAD0524FF07F4C1CEA410F06
:1048A000A2EBD15318BF9CEA026F4AD04FF0004CE4
:1048B0004CEA00204CEA012121FA03FCB0EB0C0C7D
:1048C0000FD412F0FE0F36D05FEA4C001DD5001257
:1048D00040EBC25038BF70471CF03F0F18BF704705
:1048E0000BE0A2F101025FEA1C2040EBC25038BF8E
:1048F00070471CF07F0F18BF7047C3F12003994029
:1049000014BF401E20F00100704780084FEA1223B8
:1049100008BF7047B0FA80FCA2EB0C02CCF1280C67
:1049200060FA0CF093EA122F04BF00EBC2507047FC
:104930004FEAC3707047130A5FEADC1008BF704784
:10494000F6E79CEA026F04D010EA5C0F08BF002073
:10495000704710B5FFF745FF40DFF63E81F000409D
:104960007047000000000000000000000000000090
:104970000404040404040004000000140A0A0000F3
:10498000000000000000000014143F140A3F0A0A4F
:10499000000000041E1505060C14150F040000008D
:1049A00012150D0A142C2A1200000000040A0A1E17
:1049B0001515093600000002020100000000000089
:1049C0000000002010080808080808102000000255
:1049D0000408080808080804020000000004150E76
:1049E0000E150400000000000404041F0404040069
:1049F00000000000000000000000000202010000B2
:104A00000000001F00000000000000000000000087
:104A1000000000020000001008080804040202025E
:104A2000010000000E1111111111110E0000000003
:104A3000040604040404040E000000000E11110812
:104A40000402011F000000000E11100C1010110EC6
:104A500000000000080C0A0A091E081800000000E7
:104A60001F01010F1010110E000000000E09010FB0
:104A70001111110E000000001F09080404040404B1
:104A8000000000000E11110E1111110E00000000A7
:104A90000E1111111E10120E000000000000040083
:104AA00000000004000000000000000400000004FA
:104AB0000400002010080402040810200000000078
:104AC00000001F00001F000000000002040810206A
:104AD00010080402000000000E1111080404000474
:104AE000000000000E111915151D011E0000000028
:104AF00004040C0A0A1E1233000000000F12120EEA
:104B00001212120F000000001E1101010101110E0E
:104B1000000000000F1212121212120F000000000B
:104B20001F120A0E0A02121F000000001F120A0EB6
:104B30000A020207000000001C1201013911120CC8
:104B4000000000003312121E121212330000000087
:104B50001F0404040404041F000000003E080808A9
:104B6000080808090700000037120A060A0A123767
:104B700000000000070202020202223F00000000C3
:104B80001B1B1B1B15151515000000003B121616EC
:104B90001A1A1217000000000E1111111111110E36
:104BA000000000000F12120E0202020700000000B7
:104BB0000E1111111117190E180000000F12120E0C
:104BC0000A121237000000001E1101060810110F12
:104BD000000000001F1504040404040E000000007F
:104BE000331212121212120C000000003312120AB9
:104BF0000A0C0404000000001515150E0A0A0A0A22
:104C0000000000001B0A0A04040A0A1B000000003E
:104C10001B0A0A040404040E000000001F09080413
:104C20000402121F0000001C040404040404040411
:104C30001C00000202020404080808100000000E14
:104C400008080808080808080E0000040A00000008
:104C50000000000000000000000000000000000054
:104C6000003F000400000000000000000000000001
:104C70000000000C121C123C000000000302020E97
:104C80001212120E000000000000001C1202021C92
:104C9000000000001810101C1212123C000000004E
:104CA0000000000C121E021C000000003804041E4C
:104CB0000404041E000000000000003C120C021E50
:104CC000221C00000302020E121212370000000024
:104CD000040000060404040E000000000800000C9C
:104CE00008080808080700000302023A0A0E1237F3
:104CF00000000000070404040404041F0000000076
:104D00000000000F15151515000000000000000F31
:104D100012121237000000000000000C1212120CD8
:104D2000000000000000000F1212120E0207000027
:104D30000000001C1212121C103800000000001BA2
:104D400006020207000000000000001E020C101EF8
:104D5000000000000004040E040404180000000019
:104D60000000001B1212123C00000000000000377F
:104D7000120A0C040000000000000015150E0A0ABB
:104D8000000000000000001B0A040A1B00000000D5
:104D900000000037120A0C04040300000000001E8B
:104DA0000804041E00000018080808040808080881
:104DB0001800080808080808080808080808000675
:104DC000040404080404040406000225180000007A
:104DD00000000000000000000000000000000000D3
:104DE000000000000000000000080808080808088B
:104DF00000001818000000486C2412000000000099
:104E00000000000000000000002424247F12121281
:104E10007F12121200000000081C2A2A0A0C18280F
:104E2000282A2A1C080800000022251515152A58D2
:104E30005454542200000000000C1212120A76256D
:104E40002911916E00000006060403000000000016
:104E500000000000000000402010100808080808AA
:104E60000810102040000002040808101010101054
:104E70001008080402000000000008086B1C1C6BEE
:104E800008080000000000000000080808087F086B
:104E900008080800000000000000000000000000FA
:104EA0000000060604030000000000000000FE00F1
:104EB00000000000000000000000000000000000F2
:104EC000000006060000000080404020201010086E
:104ED0000804040202000000001824424242424238
:104EE000424224180000000000080E0808080808C4
:104EF0000808083E00000000003C4242422020100A
:104F00000804427E00000000003C4242201820407D
:104F10004042221C000000000020302824242222CD
:104F20007E20207800000000007E0202021A264047
:104F30004042221C0000000000382402021A2642CF
:104F40004242241800000000007E222210100808AF
:104F50000808080800000000003C424242241824CF
:104F60004242423C00000000001824424242645881
:104F70004040241C00000000000000001818000041
:104F800000001818000000000000000000080000E9
:104F9000000000080804000000402010080402047B
:104FA0000810204000000000000000007F0000000A
:104FB0007F000000000000000002040810204020D4
:104FC0001008040200000000003C4242464020104D
:104FD0001000181800000000001C225A55555555A5
:104FE0002D42221C00000000000808181414243C64
:104FF000224242E700000000001F2222221E22421D
:105000004242221F00000000007C424201010101D7
:105010000142221C00000000001F22424242424284
:105020004242221F00000000003F4212121E1212D4
:105030000242423F00000000003F4212121E1212C4
:105040000202020700000000003C2222010101715F
:105050002122221C0000000000E7424242427E4220
:10506000424242E700000000003E08080808080825
:105070000808083E00000000007C101010101010FE
:1050800010101010110F0000007722120A0E0A12E1
:105090001222227700000000000702020202020230
:1050A0000202427F000000000077363636362A2A98
:1050B0002A2A2A6B0000000000E346464A4A525260
:1050C0005262624700000000001C22414141414100
:1050D0004141221C00000000003F424242423E0289
:1050E0000202020700000000001C22414141414130
:1050F0004D53321C60000000003F4242423E1212FB
:10510000222242C700000000007C42420204182014
:105110004042423E00000000007F4908080808089D
:105120000808081C0000000000E7424242424242D8
:105130004242423C0000000000E742422224241484
:105140001418080800000000006B494949495555EA
:10515000362222220000000000E7422424181818FA
:10516000242442E7000000000077222214140808DB
:105170000808081C00000000007E21201010080410
:105180000442423F000000780808080808080808A0
:105190000808080878000000020204040808081043
:1051A000102020204040001E101010101010101071
:1051B000101010101E000038440000000000000015
:1051C00000000000000000000000000000000000DF
:1051D0000000000000FF00060800000000000000C2
:1051E000000000000000000000000000003C4278C9
:1051F000444242FC0000000000030202021A264260
:105200004242261A0000000000000000003844025C
:1052100002024438000000000060404040784442F0
:10522000424264D80000000000000000003C427EC2
:105230000202423C0000000000F08808087E0808D6
:105240000808083E0000000000000000007C222248
:105250001C023C42423C000000030202023A464269
:10526000424242E700000000000C0C00000E08085B
:105270000808083E00000000003030000038202000
:1052800020202020221E0000000302020272120AC7
:105290001612227700000000000E0808080808080F
:1052A0000808083E0000000000000000007F929205
:1052B000929292B70000000000000000003B4642BE
:1052C000424242E70000000000000000003C424271
:1052D0004242423C0000000000000000001B264249
:1052E0004242221E020700000000000000784442F3
:1052F0004242447840E000000000000000774C0487
:105300000404041F0000000000000000007C4202B2
:105310003C40423E0000000000000008083E080833
:10532000080808300000000000000000006342424E
:10533000424262DC000000000000000000E742245E
:1053400024140808000000000000000000EB494998
:1053500055552222000000000000000000762418AD
:105360001818246E000000000000000000E742242E
:10537000241418080807000000000000007E221016
:105380000808447E000000C020202020201020209B
:1053900020202020C000101010101010101010102D
:1053A000101010101010000608080808081008084F
:1053B0000808080806000C32C200000000000000C7
:1053C000000000000000C9EE000027FC140414A433
:1053D000811042084040104017FC2040E0E021507E
:1053E00022482C4620400040DBDA1104112411240D
:1053F00011241124FD241124112411241124112419
:105400001D24E124422402040404CAD00200010045
:1054100000007FFC0100010001003FF82108210885
:10542000210821082128211001000100C8AB00003B
:105430000000018002400430180860061FF90100D6
:10544000010001003FF80100010001007FFEB6AF3E
:105450000000000000203E20007C002200227F226D
:105460001022102212221222224223423D82009C4C
:10547000B5E70000010001001FF0610C4104410488
:105480007FFC4104410441047FFC01000102010250
:1054900001FCD7D3000000003FF80010006000803E
:1054A000010000807FFE004000400020002000201E
:1054B00018400780BCBC10201020102013FEFC20D8
:1054C0001020102015FC18843088D048105010206F
:1054D000105051882606CAF5010001200110011064
:1054E0007FFC03800540054009201110210841047C
:1054F0008102010001000100D3D002000200FFFE82
:10550000040004000FF0081018102FF04810881045
:105510000FF00810081008500820CFDE00007BF8BC
:105520004A08520853F8620852084BF84A444A485D
:105530006A3052204210428843064200B9AB0080D4
:105540000480048008400840102020104208820691
:1055500004000440082010203FF010100000CBBED3
:1055600000003FF8000800087FE8000800081F88D6
:1055700010881088108810881F8810880028001054
:10558000BBB600800080FC8004FC050449082A406A
:105590001440104028A024A04510811002080404E3
:1055A0000802D3AD00002080133C12240224022400
:1055B000F2241224122412B41328122010202820BE
:1055C00047FE0000C4FA0900090011FC32045448E7
:1055D00099501148124414441140108002005104A3
:1055E000511290120FF0B4BF00000020102013FEE3
:1055F000202026244A247A241224222423FC7C20DE
:10560000002204227822003CC9AB00000000040004
:105610000FF0102020207FFC208420842084208410
:105620003FF82000200220021FFECCEE0000000008
:10563000204023FE204079FC220423FC220423FC8A
:10564000220423FC3A0465FA01980204B3E4000042
:10565000010001007FFE02200410040808043FFC42
:10566000044204400440044208421042607EBED816
:1056700000000000207E3E804880488048FE48822E
:105680007F8208820C8214FA12842280218040FEDC
:10569000D0CE000000007F842208223022C02202E7
:1056A00022047FC8223022C2220222042208223091
:1056B0004040BBAD000000007FFE00000FF0111065
:1056C0001110111051125FF25112511251124FF27A
:1056D00040027FFCD4B2000000007FFE47E2481287
:1056E000481247E24FF25012501251125112429298
:1056F0004472580A3FFCCDBC000000003FFE44024B
:1057000047F24C225362408243625E1A41824062F9
:10571000430240C240223FFCC6AC00000040204093
:10572000204020403FFE2000200020003FE02010CD
:1057300020102010201040104010CFD40000000096
:105740003FFC200420043FFC200420041FF82444D4
:105750001448144814480C5004407FFECABE000090
:1057600000003FFC0000000000007FFE0080089069
:105770000888108810842084208240820780B2CB61
:105780000000002008207FFE002000783F881108DC
:10579000089009207FFE018003400D30310C40024B
:1057A000B5A500000010081004203FF821042104D2
:1057B0003FFC210421043FF801007FFE01000100AD
:1057C0000100D6D000000100010001003FFC2104CF
:1057D000210421042104210421043FFC01000100D3
:1057E00001000100D3A20000000008207FFE082075
:1057F000092001003FF82108210821081FF4014079
:1058000002200C10700ECEC40000010001000080C8
:105810003F7C081008100410042002200240018080
:10582000018002601C18E006D7DB00000000102099
:1058300011FE2202220249FC5800300013FE2528E6
:10584000792401240D24722202A2BACF00000000A4
:10585000018002400430180860061FF800001FF89D
:10586000200420042004200420041FF8C1C10000EB
:10587000010001007FFE00003FF820083FF83FF8DC
:10588000400647C24824082008221022603EB6C8BD
:105890000000000000803FFE44105FFC44104410F4
:1058A00043F040005FF84408423041C04360BC1EF2
:1058B000B2E20000000067C2145205520552C55200
:1058C0002552055205521552175222822242444255
:1058D000483ECAD4000000002014101417FE001225
:1058E0000010601013F0109010901090149214EAB1
:1058F0001F0A0006B3CC0000000019FE720212025B
:1059000012027DFC18001BFE3420502053FE102094
:105910001020102013FED0F20000000000803FFE97
:10592000400047FC4208413040C05FFE40424042D8
:105930004044404840404440B5F70000000023FE8A
:10594000122202FA0222E22212FE1272128A128A33
:10595000128A16BA1A421202040EB9E200000100BD
:10596000010411080908091009207FFE04400440C1
:1059700004400440084208421042607CB0E6000047
:10598000000048FE4900490049007EFE4182414432
:105990007944452845284510452846440382C8A82F
:1059A00000001000100013FC7D0411041904188479
:1059B000348850485050102010501088130414029E
:1059C000CBF9000000003F7C204020403E40227E7A
:1059D0002244224422443E84208420844084410482
:1059E0004204C6C100003FF8200820083FF82410F8
:1059F00022202FF8222022203FFC22204220442077
:105A000084200820C4BB04407FFC04401FF0101019
:105A10001FF010101FF00400FFFE11103FF8D11608
:105A2000115011200100D0FD2080108010FE0100D7
:105A3000FE0021FC20243C2424A024A024BC24A07B
:105A400024A04560553E8A00D7AA2020202020208F
:105A5000FDFC4020504093FEFC40108011FC1C04D3
:105A6000F0885050102010101010BFAA00007FFCCA
:105A700008200820082008200820FFFE0820082011
:105A8000082008201020102020204020D4B400003E
:105A900027FE1420144085FC450445FC150415FC24
:105AA0002524E42024A829242A2230A00040D2BAA8
:105AB0000080204017FE11208120423C42441664A1
:105AC00012942348E24822302220225022880306E2
:105AD000BEA70FE0082008200FE0082008200FE0F4
