:020000040800F2
:100000003804002045010008810900083F07000866
:100010007D090008350500080314000800000000F1
:10002000000000000000000000000000BD0E0008FD
:100030008D050008000000002D0A0008831000084C
:10004000151400085F0100085F0100085F01000847
:100050005F0100085F0100085F0100085F01000800
:100060005F0100085F0100085F0100085F010008F0
:100070005F0100085F0100085F0100085F010008E0
:100080005F0100085F0100085F0100085F010008D0
:100090005F0100085F0100085F0100085F010008C0
:1000A0005F0100085F0100085F0100085F010008B0
:1000B0005F0100085F0100085F0100085F010008A0
:1000C0005F0100085F0100085F0100085F01000890
:1000D0005F010008611100085F0100085F0100086E
:1000E0005F0100085F0100085F0100085F01000870
:1000F0005F0100085F0100085F0100085F01000860
:100100005F0100085F0100085F0100085F0100084F
:100110005F0100085F0100085F0100085F0100083F
:100120005F0100085F0100085F0100085F0100082F
:10013000DFF80CD000F0ECF9004800478314000809
:10014000380400200648804706480047FEE7FEE7DF
:10015000FEE7FEE7FEE7FEE7FEE7FEE7FEE7FEE777
:1001600085100008310100082DE9FE4F804681EA24
:100170000300C00F0C46009021F0004123F0004521
:10018000B8EB0200A94105D24046214690461C46E4
:100190000B46024623F00040104347D0270DC7F31B
:1001A0000A00C3F30A510290401A019040286BDA0A
:1001B000C3F3130040F4801B0098924620B1002343
:1001C000D2EB030A63EB0B0B01985946C0F14002D6
:1001D000504600F00FF906460D4650465946019A22
:1001E00000F027F910EB08006141002487EA115262
:1001F00084EAE7731A4340D0009A62B3019A012A55
:100200004FEA075215DC001B61EB02014FF0004280
:1002100002EA0752CDE90042001C41F58011324646
:100220002B4600F027F903B0BDE8F08F4046214689
:10023000F9E7001B61EB0201001C41F58013001877
:100240005B412018A2F5001747EB030140EAD57087
:10025000B6196D4111E06D084FEA360645EAC075E2
:100260004FEA0752001B61EB0201001C41F58011AF
:1002700049084FEA30000019514132462B4603B07D
:10028000BDE8F04F00F0E7B80098012240000023DD
:10029000D0EB020263EBE073009821464FEAE07472
:1002A000B8EB000061EB0401E9E783F000435BE792
:1002B00081F0004158E72DE9F04D81EA030404F094
:1002C000004B21F0004514464FF0000A23F0004196
:1002D00050EA050220D054EA01021DD0C5F30A57A6
:1002E0000246C5F31303C1F31300C1F30A5640F4E9
:1002F000801543F48013A7EB0608101BD64608F2BE
:10030000FD3873EB050002D308F1010801E09218F3
:100310005B41B8F1000F03DA00200146BDE8F08D23
:1003200000204FF48011064684460EE0171B73EB45
:10033000050705D3121B63EB050306434CEA010CCA
:1003400049084FEA300092185B4150EA0107EDD1AD
:1003500052EA030012D082EA040083EA050108434E
:1003600005D0101BAB4106D20122002306E000227B
:100370004FF0004302E06FF0010253101AEB060049
:100380004CEB085110EB0A0041EB0B01BDE8F04DBE
:1003900000F061B80EB5C10F80EAE0700844CA07EA
:1003A000002140F233438DE80E000A460B4600F070
:1003B00061F803B000BD70B5C1F30A5201F0004509
:1003C0000024C1F3130140F2FF3341F480119A423B
:1003D00001DA002070BD40F233439A42A2F2334268
:1003E00003DC524200F015F800E090402C43F1D0BD
:1003F000404270BD202A04DB203A00FA02F10020BE
:1004000070479140C2F1200320FA03F31943904052
:100410007047202A04DB203A21FA02F000217047BD
:1004200021FA02F3D040C2F120029140084319465C
:100430007047202A06DBCB17203A41FA02F043EA44
:10044000E07306E041FA02F3D040C2F1200291408D
:1004500008431946704710B5141E73F1000408DAFA
:10046000401C41F1000192185B411A4301D120F078
:10047000010010BD2DE9F04D92469B4611B1B1FA35
:1004800081F202E0B0FA80F220329046FFF7B2FF2C
:1004900004460F4640EA0A0041EA0B0153465A4619
:1004A000084313D0114653EA010019D0C8F14002A5
:1004B0005046FFF7AEFF05460E46504659464246A7
:1004C000FFF798FF084305D0012004E02046394695
:1004D000BDE8F08D0020054346EAE0762C43374323
:1004E0000A986305E40AA0EB08000022FD0A44EA2A
:1004F00047540A3002D500200146E9E701051019EA
:100500006941DDE9084500196941BDE8F04DA2E700
:10051000064C074D06E0E06840F0010394E8070050
:1005200098471034AC42F6D3FFF706FE08150008D2
:100530002815000800BFFEE7002904DA4A4211B27C
:100540002D22027001E020220270642291FBF2F25F
:100550003032D3B2421C10461370642291FBF2F386
:1005600002FB13110A2291FBF2F23032D3B2421C89
:10057000104613700A2291FBF2F302FB131101F1F2
:100580003002D3B2421C104613707047704701B559
:1005900009E0002000E0401C4CF250318842FAD3C0
:1005A0000099491E009100990029F2D108BD000070
:1005B0000549096821F01001034A116011460968D4
:1005C00001431160704700000020024001460020F6
:1005D000034A106800F038000843106070470000BC
:1005E0000020024008B501213C2000F021FA4FF420
:1005F0000070ADF8000018208DF8030003208DF87E
:1006000002006946074800F00FF84FF48060ADF82B
:10061000000004208DF803006946024800F004F849
:1006200008BD0000000801402DE9F0410246002508
:100630000026002000230024002791F803C00CF0BE
:100640000F0591F803C00CF0100CBCF1000F03D0A3
:1006500091F802C04CEA050591F800C0BCF1000F0A
:1006600031D0146800202BE04FF0010C0CFA00F39D
:10067000B1F800C00CEA03069E4220D183004FF07F
:100680000F0C0CFA03F7BC4305FA03FC4CEA040414
:1006900091F803C0BCF1280F06D14FF0010C0CFA01
:1006A00000FCC2F814C00AE091F803C0BCF1480F86
:1006B00005D14FF0010C0CFA00FCC2F810C0401C30
:1006C0000828D1D31460B1F800C0BCF1FF0F34DDAD
:1006D000546800202EE000F1080C4FF0010808FAE1
:1006E0000CF3B1F800C00CEA03069E4221D183004E
:1006F0004FF00F0C0CFA03F7BC4305FA03FC4CEA6D
:10070000040491F803C0BCF1280F05D100F1080CD6
:1007100008FA0CF8C2F8148091F803C0BCF1480F35
:1007200007D100F1080C4FF0010808FA0CF8C2F8E4
:100730001080401C0828CED35460BDE8F08100BF73
:10074000FEE7000008B54020ADF8000003208DF85A
:10075000020014208DF8030069460848FFF764FF83
:100760008020ADF8000003208DF8020014208DF8E1
:10077000030069460148FFF757FF08BD000C014020
:1007800000B540200A49086000F0D6F880200849EA
:10079000091F086000F0D0F840200549091F0860D3
:1007A00000F0CAF840200249086000F0C5F800BD1A
:1007B000140C014000B50823002280201149086074
:1007C00014E05006020E40200E49091D086000F09A
:1007D000B3F840200B49086000F0AEF8094808382B
:1007E000006800F0800008B142F00102181EA3F179
:1007F0000101CBB2E5D140200249091D0860104635
:1008000000BD0000100C014000B50246082319E0AD
:1008100040201149086000F08FF802F0800020B1FC
:1008200080200D49091F086002E080200A49086005
:100830005006020E00F080F840200749091F0860AA
:1008400000F07AF8181EA3F10101CBB2E0D14020EC
:100850000149086000BD0000140C014000B5802073
:10086000134908604020086000F066F81048083816
:10087000006808B9012000E0002000F0800008B105
:10088000002000BD80200A49091D086000F054F8CE
:1008900007480838006800F0800008B10020F0E741
:1008A00080200349091D086000F046F80120E8E7B0
:1008B000100C014000B540200A49086000F03CF8E7
:1008C00080200849086000F037F840200549091FDA
:1008D000086000F031F880200249091F086000F02C
:1008E0002BF800BD140C014000B5402011490860F0
:1008F00000F022F880200F49091F086000F01CF862
:1009000040200C49091F086000F016F809480C380F
:10091000006800F0800030B140200649086000F017
:100920000BF8002000BD40200249086000F004F8E8
:100930000120F7E7140C0140052001E0411EC8B278
:100940000028FBD1704700B500226B21D02000F0B9
:1009500075FB07221921D02000F070FB06221A2116
:10096000D02000F06BFB18221B21D02000F066FB8A
:1009700001221C21D02000F061FB00BD00BFFEE77A
:10098000704708B54FF4A06000F046F825208DF8B8
:10099000000001208DF801008DF802008DF80300A1
:1009A000684600F001F808BD70B5002100230F2251
:1009B000C47804B3154C246804F4E064C4F5E0641E
:1009C000210AC1F10403CA40447804FA03F184788F
:1009D0001440214309010E4C0678A155047804F017
:1009E0001F050124AC4005786D11AD0005F1E0252F
:1009F000C5F8004109E0047804F01F050124AC406B
:100A0000044D0678761145F8264070BD0CED00E0E7
:100A100000E400E080E100E002490143024A116085
:100A2000704700000000FA050CED00E07047000080
:100A300029B1064A92690243044B9A6104E0034AD1
:100A400092698243014B9A61704700000010024096
:100A500010B500F047F84FF4803000F005F900F0D1
:100A600061F91F49087008460078012826D1002046
:100A700000F0EEF8002000F029F94FF4806000F05B
:100A800019F90220FFF7A2FD1020FFF791FD4FF4A6
:100A9000E0114FF4803000F02BF9012000F022F932
:100AA00000BF392000F0AEF80028FAD0022000F094
:100AB0002DF900BF00F0C4F80828FBD101210C205B
:100AC000FFF7B6FF01213020FFF7B2FF0121C02060
:100AD000FFF7AEFF012140F20110FFF7A9FF10BDA3
:100AE000180000200F48006840F001000D49086020
:100AF000084640680C4908400A49486008460068B2
:100B00000A490840074908600846006820F4802028
:100B100008600846406820F4FE0048604FF41F005B
:100B200088607047001002400000FFF8FFFFF6FEEB
:100B300030B500210022002400232D4D6D6805F002
:100B40000C0121B1042905D0082923D105E0294D44
:100B5000056022E0274D05601FE0254D6D6805F416
:100B60007012234D6D6805F48034022505EB924226
:100B70001CB9214D554305600BE01D4D6D6805F412
:100B800000351DB11C4D5543056002E0194D55431C
:100B9000056002E0174D056000BF00BF144D6D6891
:100BA00005F0F0010909154D6B5C0568DD404560F5
:100BB0000F4D6D6805F4E061090A104D6B5C4568E6
:100BC000DD4085600A4D6D6805F46051C90A0B4D22
:100BD0006B5C4568DD40C560054D6D6805F44041BE
:100BE000890B074D6B5CC568B5FBF3F5056130BD3E
:100BF0000010024000127A0000093D0000000020B1
:100C00001000002010B501460022002300204A11E8
:100C1000012A02D1094C236806E0022A02D1074CBE
:100C2000236A01E0054C636A01F01F02012494402D
:100C30001C400CB1012000E0002010BD001002405B
:100C40000248406800F00C007047000000100240AD
:100C500001460020034A506820F0F000084350602D
:100C600070470000001002401149096821F48031EA
:100C70000F4A11601146096821F480211160B0F516
:100C8000803F03D0B0F5802F0ED106E008490968F7
:100C900041F48031064A116007E00549096841F4D2
:100CA000A021034A116000E000BF00BF70470000B0
:100CB0000010024001460020034A506820F4E06022
:100CC00008435060704700000010024001460020B9
:100CD000034A506820F4605040EAC10050607047F9
:100CE00000100240014908667047000000004242BF
:100CF00002460020044B586820F47C1042EA0103AD
:100D00001843014B58607047001002400146002014
:100D1000034A506820F00300084350607047000009
:100D20000010024038B5002000900024002500BFCC
:100D30003120FFF767FF05460098401C009000989F
:100D4000B0F5A06F01D0002DF2D03120FFF75AFF8F
:100D500008B1012400E00024204638BD2DE9F04709
:100D60004421D02000F03CF94C4908704321D020A8
:100D700000F036F94949487008460078497840EA59
:100D8000012000B2464908800846B0F90000FFF78C
:100D900001FB06464FF06632424BFFF78CFA0446E1
:100DA000FFF709FB00B23E4908804621D02000F041
:100DB00017F93A4988704521D02000F011F93749D8
:100DC000C87008468078C97840EA012000B23649E8
:100DD00008800846B0F90000FFF7DCFA06464FF03D
:100DE0006632304BFFF767FA0446FFF7E4FA00B2C9
:100DF0002D4908804821D02000F0F2F827490871D9
:100E00004721D02000F0ECF82449487108460079C9
:100E1000497940EA012000B2244908800846B0F927
:100E20000000FFF7B7FA06464FF066321D4BFFF79A
:100E300042FA0446FFF7BFFA00B21C49088042217B
:100E4000D02000F0CDF8154988714121D02000F064
:100E5000C7F81249C87108468079C97940EA01206B
:100E600000B2134908800846B0F9000043F29031FF
:100E70000844FFF78FFA064600220E4BFFF71BFAD5
:100E8000044600220C4BFFF76FF98046FFF793FAF8
:100E900000B207490880BDE8F08700002800002064
:100EA0001E00002066663040200000202200002046
:100EB0002400002000807140008041407047000005
:100EC00070B50546284600F05DF93A2000F05AF961
:100ED000002405E00749085D00F054F9601CC4B225
:100EE000042CF7DB202000F04DF9202000F04AF917
:100EF00070BD00001A00002010B500F001F810BD10
:100F00000CB50020019000903348006840F4803018
:100F10003149086000BF3048006800F4003000909C
:100F20000198401C0190009818B90198B0F5A06F85
:100F3000F1D12948006800F4003010B10120009080
:100F400001E0002000900098012843D12348006868
:100F500040F01000214908600846006820F00300B6
:100F600008600846006840F0020008601A484068BF
:100F7000194948600846406848600846406840F49F
:100F8000806048600846406820F47C10486008464D
:100F9000406840F4E81048600846006840F08070FF
:100FA000086000BF0C48006800F000700028F9D00D
:100FB0000948406820F00300074948600846406837
:100FC00040F00200486000BF0348406800F00C0099
:100FD0000828F9D10CBD000000100240002002409A
:100FE00070B504460D46FFF739FC08B9002070BD06
:100FF0002046FFF709FCFFF777FC30B9FFF75AFCF2
:1010000001200D4908700020F1E72846FFF7FCFB9E
:10101000FFF76AFCFFF722FC611CC8B2FFF7F4FB84
:10102000FFF762FCFFF7C6FB0646FFF7A9FBFFF7D9
:1010300041FC3046DBE700001900002070B5064691
:101040000C461546FFF70AFC08B9002070BD304673
:10105000FFF7DAFBFFF748FC18B9FFF72BFC00207D
:10106000F4E72046FFF7D0FBFFF73EFC2846FFF7EA
:10107000CBFBFFF739FCFFF71DFC00F0FBF901206B
:10108000E4E7704710B51348006840F001001149CB
:10109000086008464068104908400E494860084604
:1010A00000680E4908400B4908600846006820F4B3
:1010B000802008600846406820F4FE0048604FF435
:1010C0001F008860FFF718FF4FF0006004490860B8
:1010D00010BD0000001002400000FFF8FFFFF6FE08
:1010E00008ED00E000B587B001214FF49040FFF714
:1010F0009FFC0020ADF80400ADF806004FF400702E
:10110000ADF808000020ADF80A0001A9134800F06E
:101110004EF84FF4E13003900020ADF81000ADF828
:101120001200ADF81400ADF818000C20ADF8160050
:1011300003A90A4800F0F0F840F22551074800F0F2
:101140002DF8012240F22551044800F0BFF801219A
:10115000024800F03DF807B000BD00000038014033
:1011600010B540F22551064800F086F838B1044821
:1011700000F03EF9C4B22146014800F03EF910BD2E
:101180000038014010B504462146034800F035F907
:101190000120FFF7FCF910BD0038014001F4007296
:1011A000B2F5007F00D100BFCA430280704710B57E
:1011B00002460020108A4FF2FF0318400B884C882B
:1011C00023438C882343CC8823431843108210BDCB
:1011D00021B1828942F40052828104E082894DF675
:1011E000FF731A408281704700B585B0012144F237
:1011F0000500FFF71DFC4FF40070ADF8100018203B
:101200008DF8130003208DF8120004A91848FFF789
:101210000BFA4FF48060ADF8100004208DF8130035
:1012200003208DF8120004A91148FFF7FDF94FF4CF
:10123000E13000900020ADF80400ADF80600ADF8F4
:101240000800ADF80C000C20ADF80A00694609480A
:1012500000F062F8FFF795FB012240F225510548A6
:1012600000F034F801210348FFF7B2FF05B000BDDC
:10127000000801400038014070B5024600240023F8
:101280000025002040F66A16B14200D100BFC1F32C
:10129000421501F01F03012606FA03F3012D02D1C6
:1012A0009689334006E0022D02D1168A334001E0D0
:1012B000968A33400C12012606FA04F4168834404C
:1012C00013B10CB1012000E0002070BDF0B5034661
:1012D000002400260025002040F66A17B94200D1FC
:1012E00000BF1846C1F3421401F01F06012707FA98
:1012F00006F5012C01D10C3004E0022C01D1103094
:1013000000E014301AB107682F43076002E0076855
:10131000AF430760F0BD00002DE9F04786B00546F9
:101320000E460024A24600BFA1460027B08900B1A6
:1013300000BF2F462C8A4CF6FF700440F08804430F
:101340002C82AC894EF6F3100440B08831890843F2
:10135000718908430443AC81AC8A4FF6FF400440D6
:10136000B0890443AC8201A8FFF7E2FB1F48874223
:1013700002D1DDF810A001E0DDF80CA0A88900F48E
:10138000004040B10AEBCA0000EB0A103168490086
:10139000B0FBF1F807E00AEBCA0000EB0A10316875
:1013A0008900B0FBF1F86420B8FBF0F004012009DB
:1013B000642101FB1089A88900F4004040B132206B
:1013C00000EBC900B0FBF1F000F00700044308E0B7
:1013D000322000EB09106421B0FBF1F000F00F00A7
:1013E00004432C8106B0BDE8F087000000380140BE
:1013F00001468888C0F308007047C1F30802828064
:10140000704700BFFEE700000020014908607047F8
:10141000082C004010B5502000F004F8FFF7F4FF4E
:1014200010BD000000F07F01014A1160704700000C
:10143000002C004002E008C8121F08C1002AFAD19F
:1014400070477047002001E001C1121F002AFBD144
:10145000704710B5FFF7C8FEFFF7FAFAFFF7C2F8BA
:10146000FFF740FEFFF76EF90A20FFF790F8FFF74D
:101470006AFA10BD42F2107000E0401E0028FCD154
:101480007047FFF7E6FF01E000F002F8FCE700001C
:1014900010B5FFF763FC1748B0F900101648FFF7C6
:1014A0004BF85820FFF70CFD1448B0F90010124813
:1014B000FFF742F85920FFF703FD1148B0F900107B
:1014C0000D48FFF739F85A20FFF7FAFC0D48B0F93C
:1014D00000100948FFF730F85420FFF7F1FC0D2009
:1014E000FFF750FE0A20FFF74DFE6420FFF74FF88C
:1014F00010BD00001E0000201A0000202000002067
:1015000022000020240000202815000800000020F0
:10151000280000003414000850150008280000209E
:10152000100400004414000800000000010203043D
:10153000010203040607080902040608000000006F
:10154000000000000000000000000000000000009B
:0400000508000131BD
:00000001FF
