:020000040800F2
:100000006004002045010008F9030008B703000858
:10001000F5030008850200088309000800000000BD
:100020000000000000000000000000009D05000826
:100030008902000800000000A5040008B1060008BD
:100040005F0100085F0100085F0100085F01000810
:100050005F0100085F0100085F0100085F01000800
:100060005F0100085F0100085F0100085F010008F0
:100070005F0100085F0100085F0100085F010008E0
:100080005F0100085F0100085F0100085F010008D0
:100090005F0100085F0100085F0100085F010008C0
:1000A0005F0100085F0100085F0100085F010008B0
:1000B0005F0100085F0100085F0100085F010008A0
:1000C0005F0100085F0100085F0100085F01000890
:1000D0005F010008150700085F0100085F010008C4
:1000E0005F0100085F0100085F0100085F01000870
:1000F0005F0100085F0100085F0100085F01000860
:100100005F0100085F0100085F0100085F0100084F
:100110005F0100085F0100085F0100085F0100083F
:100120005F0100085F0100085F0100085F0100082F
:10013000DFF80CD000F02AF8004800471D0D000839
:10014000600400200648804706480047FEE7FEE7B7
:10015000FEE7FEE7FEE7FEE7FEE7FEE7FEE7FEE777
:10016000B506000831010008D2B201E000F8012B09
:10017000491EFBD270470022F6E710B513460A4627
:1001800004461946FFF7F0FF204610BD064C074D08
:1001900006E0E06840F0010394E807009847103457
:1001A000AC42F6D3FFF7C8FFC40D0008E40D000809
:1001B00010B500F0CDFA00F001F900F07BFD10BDA4
:1001C00010B5044601A000F0DFFB10BDCBABBBF7C0
:1001D000B0B4BCFC0D0A000010B5044601A000F04C
:1001E000D3FB10BDB3A4B0B4C6DABCE4D2BBD6B165
:1001F000B4A5B7A20D0A000010B5044601A000F096
:10020000C3FB10BDB4EFB5BDB3A4B0B4CAB1BCE478
:10021000E3D0D6B5CAB1B4A5B7A2D2BBB4CE0D0A4D
:100220000000000010B5044601A000F0ADFB10BDB9
:10023000B0B4BCFCB0B4CFC20D0A000010B5044687
:1002400001A000F0A1FB10BDD6D8B8B4B0B4CFC2A5
:100250000D0A000010B5044601A000F095FB10BD8A
:10026000B0B4BCFCB5AFC6F00D0A000010B5044632
:1002700001A000F089FB10BDB5A5BBF7B0B4BCFC74
:100280000D0A000000BFFEE770472DE9F04102466D
:1002900000250026002000230024002791F803C039
:1002A0000CF00F0591F803C00CF0100CBCF1000F1E
:1002B00003D091F802C04CEA050591F800C0BCF1EA
:1002C000000F31D0146800202BE04FF0010C0CFA25
:1002D00000F3B1F800C00CEA03069E4220D183006F
:1002E0004FF00F0C0CFA03F7BC4305FA03FC4CEA81
:1002F000040491F803C0BCF1280F06D14FF0010CA3
:100300000CFA00FCC2F814C00AE091F803C0BCF17A
:10031000480F05D14FF0010C0CFA00FCC2F810C0D8
:10032000401C0828D1D31460B1F800C0BCF1FF0F05
:1003300034DD546800202EE000F1080C4FF0010875
:1003400008FA0CF3B1F800C00CEA03069E4221D172
:1003500083004FF00F0C0CFA03F7BC4305FA03FCC3
:100360004CEA040491F803C0BCF1280F05D100F158
:10037000080C08FA0CF8C2F8148091F803C0BCF11C
:10038000480F07D100F1080C4FF0010808FA0CF8EB
:10039000C2F81080401C0828CED35460BDE8F0811C
:1003A0000246002093680B400BB1012000E00020C2
:1003B00070470161704700BFFEE7000008B50121EA
:1003C000112000F071F84FF40050ADF8000010203B
:1003D0008DF8030003208DF8020069460448FFF7FA
:1003E00054FF4FF400510248FFF7E3FF08BD00003F
:1003F0000010014000BFFEE7704708B54FF4A06051
:1004000000F046F825208DF8000001208DF801004D
:100410008DF802008DF80300684600F001F808BD71
:1004200070B5002100230F22C47804B3154C246852
:1004300004F4E064C4F5E064210AC1F10403CA4095
:10044000447804FA03F184781440214309010E4CE6
:100450000678A155047804F01F050124AC40057806
:100460006D11AD0005F1E025C5F8004109E0047803
:1004700004F01F050124AC40044D0678761145F8C0
:10048000264070BD0CED00E000E400E080E100E0FB
:1004900002490143024A1160704700000000FA055A
:1004A0000CED00E07047000029B1064A9269024352
:1004B000044B9A6104E0034A92698243014B9A61BA
:1004C000704700000010024030B5002100220024D7
:1004D00000232D4D6D6805F00C0121B1042905D0D4
:1004E000082923D105E0294D056022E0274D05604C
:1004F0001FE0254D6D6805F47012234D6D6805F4FD
:100500008034022505EB92421CB9214D554305600C
:100510000BE01D4D6D6805F400351DB11C4D5543B4
:10052000056002E0194D5543056002E0174D056076
:1005300000BF00BF144D6D6805F0F0010909154DAD
:100540006B5C0568DD4045600F4D6D6805F4E0614A
:10055000090A104D6B5C4568DD4085600A4D6D6889
:1005600005F46051C90A0B4D6B5C4568DD40C56000
:10057000054D6D6805F44041890B074D6B5CC568FE
:10058000B5FBF3F5056130BD0010024000127A00A2
:1005900000093D001400002024000020704710B521
:1005A00000F002F810BD00000CB500200190009092
:1005B0003348006840F480303149086000BF30485B
:1005C000006800F4003000900198401C01900098F1
:1005D00018B90198B0F5A06FF1D12948006800F46E
:1005E000003010B10120009001E000200090009840
:1005F000012843D12348006840F0100021490860D9
:100600000846006820F0030008600846006840F0D3
:10061000020008601A484068194948600846406866
:1006200048600846406840F480604860084640687A
:1006300020F47C1048600846406840F4E8104860A8
:100640000846006840F08070086000BF0C480068F1
:1006500000F000700028F9D00948406820F003003D
:10066000074948600846406840F00200486000BF03
:100670000348406800F00C000828F9D10CBD0000C8
:100680000010024000200240042808D14FF0E02171
:10069000096941F004014FF0E022116107E04FF0D9
:1006A000E021096921F004014FF0E0221161704757
:1006B0007047000010B51348006840F00100114970
:1006C000086008464068104908400E4948600846DE
:1006D00000680E4908400B4908600846006820F48D
:1006E000802008600846406820F4FE0048604FF40F
:1006F0001F008860FFF753FF4FF000600449086057
:1007000010BD0000001002400000FFF8FFFFF6FEE1
:1007100008ED00E010B540F22551064800F06DF8F4
:1007200038B1044800F024F9C4B22146014800F071
:1007300024F910BD0038014021B1828942F40052F1
:10074000828104E082894DF6FF731A4082817047EE
:1007500000B585B0012144F20500FFF7A5FE4FF476
:100760000070ADF8100018208DF8130003208DF8EC
:10077000120004A91848FFF788FD4FF48060ADF817
:10078000100004208DF8130003208DF8120004A936
:100790001148FFF77AFD4FF4E13000900020ADF8EA
:1007A0000400ADF80600ADF80800ADF80C000C2010
:1007B000ADF80A006946094800F06EF8FFF71DFE23
:1007C000012240F22551054800F041F8012103487B
:1007D000FFF7B2FF05B000BD00080140003801403E
:1007E00002460020B1F5007F00D100BF13880B4006
:1007F0000BB1012000E00020704770B502460024D4
:1008000000230025002040F66A16B14200D100BF47
:10081000C1F3421501F01F03012606FA03F3012D6F
:1008200002D19689334006E0022D02D1168A334068
:1008300001E0968A33400C12012606FA04F4168869
:10084000344013B10CB1012000E0002070BDF0B5C0
:100850000346002400260025002040F66A17B9420E
:1008600000D100BF1846C1F3421401F01F06012752
:1008700007FA06F5012C01D10C3004E0022C01D15D
:10088000103000E014301AB107682F43076002E00F
:100890000768AF430760F0BD2DE9F04786B0054615
:1008A0000E460024A24600BFA1460027B08900B131
:1008B00000BF2F462C8A4CF6FF700440F08804439A
:1008C0002C82AC894EF6F3100440B088318908437D
:1008D000718908430443AC81AC8A4FF6FF40044061
:1008E000B0890443AC8201A8FFF7EEFD1F488742A0
:1008F00002D1DDF810A001E0DDF80CA0A88900F419
:10090000004040B10AEBCA0000EB0A103168490010
:10091000B0FBF1F807E00AEBCA0000EB0A103168FF
:100920008900B0FBF1F86420B8FBF0F00401200965
:10093000642101FB1089A88900F4004040B13220F5
:1009400000EBC900B0FBF1F000F00700044308E041
:10095000322000EB09106421B0FBF1F000F00F0031
:1009600004432C8106B0BDE8F08700000038014048
:1009700001468888C0F308007047C1F308028280EE
:10098000704700BFFEE70000014A024900F013B8BB
:10099000F90C00083000002002E008C8121F08C14E
:1009A000002AFAD170477047002001E001C1121FF0
:1009B000002AFBD170472DE9F04116460F46044648
:1009C000002503E03946B047641C6D1C20780028E0
:1009D000F8D12846BDE8F08108B501210820FFF7CD
:1009E00063FD0120ADF8000048208DF803000320CE
:1009F0008DF8020069460248FFF747FC08BD000079
:100A0000000C014000F1080343F82120704770B545
:100A10000446606880470546E07800F0070000283B
:100A200002DD2088401C2080E078B5EBD01F13D079
:100A3000E078C008401CE17860F3C501E170C1F3C3
:100A4000C20003280CDBE07865F3C710E070E078A3
:100A500020F03800E07003E0E07820F03800E0702B
:100A6000E07800F00700062826D2DFE800F0032631
:100A700052A1E3C2E078C0F38010E178B0EBD11F5F
:100A800015D1A07820F0F000A070A06810B1204629
:100A9000A168884700202080A07820F00F00401C2B
:100AA000A070E07820F00700401CE07004E0A0781F
:100AB00020F0F0008030A070BCE0E078C0F380103F
:100AC000E178B0EBD11F11D0A07820F0F000103009
:100AD000A070E06810B12046E168884700202080BF
:100AE000E07820F00700801CE07011E02088C82822
:100AF0000EDDA07820F0F0005030A070E06910B159
:100B00002046E1698847E07820F00700401DE0704A
:100B100090E0E078C0F38010E178B0EBD11F25D1F0
:100B2000A07820F0F000A070A06810B12046A16865
:100B30008847A078401CA17860F30301A170A078D9
:100B400000F00F00022804D1A06910B12046A1696D
:100B50008847206910B120462169884700202080FD
:100B6000E07820F00700C01CE07020E020883C28DE
:100B70001DDDA07800F00F0001280AD1A07820F038
:100B8000F0003030A070606968B120466169884724
:100B900009E0A07800F00F00022804D1A07820F02E
:100BA000F0004030A070E07820F00700E07041E0F5
:100BB000E078C0F38010E178B0EBD11F18D0A078B6
:100BC00020F0F0001030A070E06810B12046E1681D
:100BD000884720883C2807DA00202080E07820F031
:100BE0000700801CE07003E0E07820F00700E07070
:100BF00020E0E078C0F38010E178B0EBD11F0AD19B
:100C0000A07820F0F0006030A070206A88B1204603
:100C1000216A88470DE0A07820F0F0001030A07025
:100C2000E06810B12046E1688847E07820F00700CE
:100C3000E07000BF00BF70BD70B504460D4616469B
:100C400028212046FFF797FAA07820F0F0008030A6
:100C5000A070656060688047E17860F3C711E1705B
:100C6000E07866F38610E07070BD00000146094828
:100C7000026805E08A4202D14FF0FF307047526AA5
:100C8000002AF7D10348006848620248016000204A
:100C9000F4E700002C00002010B50548046803E0CC
:100CA0002046FFF7B4FE646A002CF9D110BD0000A5
:100CB0002C00002010B56FF00400FFF7E5FC0A4897
:100CC00000680A49B0FBF1F009490870084600784D
:100CD00000EB4001C1EBC0104FF6FF7101EAC0000C
:100CE0000449088010BD00000000002000127A00B6
:100CF000280000202A00002070B504460D46E1B20D
:100D00000548FFF73AFE00BF80210348FFF768FD62
:100D10000028F9D0204670BD003801400024FFF7BC
:100D200047FAFFF759FE002219491A48FFF784FFD6
:100D3000194A00211748FFF765FE184A0121154896
:100D4000FFF760FE164A02211248FFF75BFE154AC4
:100D500003211048FFF756FE134A04210D48FFF700
:100D600051FE124A05210B48FFF74CFE104A06219E
:100D70000848FFF747FE0748FFF778FF07E043F60C
:100D80009820844202D10024FFF786FF641CF6E716
:100D9000B50D0008340000202502000855020008A7
:100DA0003D0200086D020008C1010008F9010008B9
:100DB000D901000810B501210148FFF7F1FA10BD73
:100DC000000C0140E40D0008000000203400000089
:100DD00098090008180E0008340000202C040000B8
:100DE000A809000800A24A0400000000000000005A
:100DF00001020304060708090000000001020304C1
:100E000001020304060708090204060800000000A6
:080E10000000000000000000DA
:0400000508000131BD
:00000001FF
